:100000000C94A8020C94EF020C94EF020C94EF02F3
:100010000C94EF020C94EF020C94EF020C94EF029C
:100020000C94EF020C94EF020C94BF190C947B1902
:100030000C94BC1A0C94EF020C94EF020C94EF0297
:100040000C94EF020C94EF020C94EF020C94EF026C
:100050000C94EF020C94981A0C94EF020C94EF029B
:100060000C94EF020C94EF020C94EF020C94EF024C
:100070000C94EF020C94EF020C94EF020C94EF023C
:100080000C94EF020C94EF020C94EF020C94EF022C
:100090000C94EF020C94EF020C94EF020C94EF021C
:1000A0000C94EF020C94EF020C94EF02050109028C
:1000B000A10185020901A1000509190129081500FE
:1000C0002501950875018102050109300931158165
:1000D000257F95027508810609381581257F9501D0
:1000E00075088106050C0A38021581257F95017572
:1000F000088106C0C005010980A101850319012AF4
:10010000B700150126B700950175108100C0050CD8
:100110000901A101850419012AA002150126A002E6
:10012000950175108100C005010906A1018506052C
:100130000719E029E71500250195087501810205D9
:1001400007190029EF1500250195F07501810205B9
:10015000081901290595057501910295017503910D
:1001600001C00660FF0961A1010962150026FF00B8
:100170009520750881020963150026FF00952075FA
:10018000089102C005010906A101050719E029E748
:1001900015002501950875018102950175088101F9
:1001A0000507190029FF150026FF0095067508812F
:1001B000000508190129059505750191029501753C
:1001C000039101C0000000000000000000000000DA
:1001D000000000000000000000000000000000001F
:1001E00000000000000000007E0F00D4FFFFFFC7EA
:1001F0000000007800000000000000002A2B28000A
:1002000000000000000000000000000000000029C5
:10021000000000002C1E3420212224342627252E05
:10022000362D3738271E1F2021222324252633333D
:10023000362E37381F0405060708090A0B0C0D0E69
:100240000F101112131415161718191A1B1C1D2F35
:100250003130232D350405060708090A0B0C0D0E55
:100260000F101112131415161718191A1B1C1D2F15
:100270003130354C29001F002100230025002700C4
:100280002E001E0020002200240026002D00310038
:100290002B001A0015001C000C0013003000140085
:1002A00008001700180012002F002A00390016005D
:1002B00009000B000E0033005200040007000A0082
:1002C0000D000F0034002800E1001D0006000500AD
:1002D00010003700E50064001B0019001100360013
:1002E00038004F00E300000001512C000000E7003F
:1002F000E400E0000000E2008400E6000151350067
:1003000035003B003D003F004100430045003A00FE
:100310003C003E00400042004400010039004A0019
:100320004B0001000100010001000100520001002A
:10033000010001005200005C010050004F0001006C
:100340004A00500001004D0051004E0001004B00DA
:100350004F0001000100AA00A800010001004E00AA
:1003600001000100A900AE0001004D005100010094
:100370000100000001000100000001000100010077
:10038000000001000100010001004C00010001001B
:100390000100010001000100010001000100010055
:1003A0000100010001000100010001000100010045
:1003B0000100010001000100010001000100010035
:1003C0000100010001000100010001000100010025
:1003D0000100010001000100010001000100010015
:1003E0000100010001000100010001000100010005
:1003F00001000100010001000100010001000000F6
:1004000001000100000001000100010000000100E6
:1004100001000100010001000100010001000100D4
:1004200001000100010001000100010001000100C4
:1004300001000100010001000100010001000100B4
:1004400001000100010001000100010001000100A4
:100450000100010001000100010001000100010094
:100460000100010001000100010001000100010084
:100470000100010001000100010001000100010074
:100480000100010001000100010000000100010065
:100490000000010001000100000001000100010056
:1004A0000100010009025B00030100A0FA09040039
:1004B0000001030101000921110100012240000790
:1004C00005810308000A0904010002030000000975
:1004D00021110100012222000705820320000107EB
:1004E00005030320000109040200010300000009C4
:1004F000211101000122B6000705840320000A1221
:100500000100020000000858430306010101020037
:10051000012203630068006C007800200070007006
:100520000072002E006D006500720072006F0036D0
:1005300000300000001403630068006C00780020A5
:1005400000620073006D00740000000403090400E1
:1005500011241FBECFEFDAE0DEBFCDBF04B603FE2D
:1005600027C080914D0290914E02A0914F02B09110
:1005700050028730904BA740B04BD1F410924D02FF
:1005800010924E0210924F021092500214BE84B785
:10059000877F84BF0FB6F894A8958091600088612A
:1005A00080936000109260000FBEE0E0F8E30995D0
:1005B00011E0A0E0B1E0E8E5FFE302C005900D9294
:1005C000AE35B107D9F722E0AEE5B1E001C01D922A
:1005D000AD34B207E1F70E94E31A0C94731F0C9438
:1005E0000000E8EDF0E080818E7F80831092E200D1
:1005F0001092DA001092E100A0EEB0E08C918160E0
:100600008C9380818F77808319BCA7EDB0E08C91AB
:100610008E7F8C9380818F7E808310921A02089542
:100620002091E4003091E50095E6A9012091EC00CD
:10063000822F817020FF06C08091E80080FF06C0F5
:1006400080E008952091E80022FD1AC080913F02C9
:10065000882389F0853089F08091EB0085FD0FC0FB
:100660002091E4003091E50042175307F9F29150D0
:10067000E1F684E0089582E0089583E0089581E042
:100680000895EF92FF920F931F93CF937C018B01FC
:100690000E941003C82F811117C08091E80085FDCA
:1006A0000BC08091E8008E778093E8000E941003D1
:1006B000882399F3C82F08C0F70181917F018093A7
:1006C000F1000150110949F78C2FCF911F910F9123
:1006D000FF90EF9008958091410287FF13C08091B1
:1006E000E80082FF06C08091E8008B778093E800E5
:1006F00004C080913F028111F2CF089580913F02A2
:100700008823D9F38091E80080FFF8CF8091E8003A
:100710008E77ECCF982F9093E900242F762F50E01E
:10072000891731F07091EC002091ED005091F000AC
:1007300021FD07C09F5F973071F78093E90081E04A
:1007400008953091EB003E7F3093EB003091ED0047
:100750003D7F3093ED003091EB0031603093EB0042
:100760007093EC002093ED005093F0002091EE0088
:1007700027FDE0CF80E00895CF92DF92EF92FF92C5
:100780000F931F93CF93DF93C8EDD0E088818F7EC6
:100790008883E7EDF0E080818160808384E082BF20
:1007A00081E080931A0288818E7F888302EE10E0B8
:1007B000F80110821092DA0081EEC82ED12CF601D9
:1007C000108288818F778883888180688883888178
:1007D0008F7D888319BC10923F02109240021092C4
:1007E0003E0210923D0290EEE92EF12CF70180813D
:1007F0008B7F808388818160888342E060E080E035
:100800000E948A03F60180818E7F8083F8018081B7
:1008100081608083808188608083F70180818E7F02
:100820008083888180618883DF91CF911F910F91B0
:10083000FF90EF90DF90CF900895FC0180914702E8
:100840009091480286179707A0F06115710529F469
:100850009091E8009E779093E80090E06115710513
:1008600051F4911108C08091E80082FF34C080E00B
:100870000895BC01F2CF80913F028823C1F18530F9
:10088000C1F18091E80083FD30C08091E80082FDD5
:10089000EACF8091E80080FFE1CF8091F3002091C2
:1008A000F200382F6115710519F02830310558F024
:1008B00091E02830310509F090E02091E8002E7792
:1008C0002093E800CBCF81918093F10061507109B2
:1008D0002F5F3F4FE7CF80913F02882341F0853063
:1008E00041F08091E80083FFBECF81E0089582E06F
:1008F000089583E00895089580911C0208959C0155
:100900004FB7F8948091110290911202A0911302B6
:10091000B09114024FBF821B930B08952FB7F89428
:100920008091110290911202A0911302B0911402D1
:100930002FBF089520910E0230910F02281739071A
:1009400071F090930F0280930E02E0910C02F091EF
:100950000D02309721F00084F185E02D099408956F
:1009600020910A0230910B022817390771F09093F9
:100970000B0280930A02E0910C02F0910D02309775
:1009800021F00680F781E02D09940895E0910C0292
:10099000F0910D02309721F00190F081E02D099443
:1009A00080E008950E948E049C019091060280913F
:1009B0000702982B21F030930302209302029091BA
:1009C000080280910902982B21F0309301022093B4
:1009D0000002E0910C02F0910D02309749F082E0A4
:1009E000809304020480F581E02D84E092E0099474
:1009F000089540910602803F59F48091070287FFD5
:100A00000DC01092070241110BC01092FE0108C0E8
:100A1000813F81F48091070218169CF3442381F0F2
:100A20008091080290910902892B09F05AC0109216
:100A3000FD010895823F49F447FFF0CF109206026E
:100A4000809107028111ECCFE0CF833F19F4141697
:100A5000ACF3E4CF90910802893F29F41916F4F61B
:100A600010920802DBCF8A3F19F497FFD7CFF8CF57
:100A7000909109028B3F29F497FFD0CF1092090281
:100A8000CDCF8C3F19F41916CCF3C8CF9CE0980F4A
:100A9000953090F4845F990B21E030E0B90102C0F9
:100AA000660F771F8A95E2F7CB018095909105023A
:100AB000892380930502B2CF8D3F31F48091FF01ED
:100AC0008E7F8093FF01AACF8E3F21F48091FF019A
:100AD0008D7FF7CF8F3F09F0A1CF8091FF018B7FF2
:100AE000F0CF08958091FF0180FD16C081FD16C0F2
:100AF00082FD16C08091FD018823A1F0883280F428
:100B000028E0829FC001112468E270E00E94EF1E7D
:100B1000862F672B39F0089582E0089584E00895C8
:100B200088E0089581E008958091FF0180FD14C060
:100B300081FD14C082FD16C08091FE01882381F0E2
:100B4000843180F422E3829FC001112464E170E0CB
:100B50000E94EF1E862F08958CE0089589E1089584
:100B600085E0089582E30895803F31F40E94940562
:100B70008195809307020895813F19F40E9494059E
:100B8000F8CF823F31F40E9494058195809306024C
:100B90000895833F19F40E949405F8CF893F29F402
:100BA0000E9472058093080208958A3F21F40E94F2
:100BB00072058195F7CF8B3F31F40E9472058195C4
:100BC0008093090208958C3F19F40E947205F8CFB2
:100BD0009CE0980F953070F4845F990B21E030E031
:100BE00001C0220F8A95EAF780910502822B80933B
:100BF000050208958D3F31F48091FF01816080935B
:100C0000FF0108958E3F21F48091FF018260F7CFAC
:100C10008F3FB9F78091FF018460F1CF80E00895A4
:100C2000F894E82FE295EF70F0E031A1282F2F70B3
:100C300081E090E001C0880F2A95EAF7982F9095FF
:100C4000932391A392A1892B82A3789408959091E4
:100C5000150292FF06C0282F28712830F9F4877FEB
:100C6000846093FF06C0282F28712831F1F4877E15
:100C700084612091160220FF06C0382F3871383069
:100C8000D9F4877F816021FF06C0282F2871283181
:100C9000D1F4877E816194FD877E0895282F247189
:100CA0002430F9F68B7F8860DCCF282F2471243123
:100CB00001F78B7E8861DDCF382F3171313019F724
:100CC0008E7F8860E0CF282F2171213121F78E7E21
:100CD0008861E1CFCF93DF93EC0182389105A9F1D0
:100CE000D8F58133910509F496C048F5893291050C
:100CF00009F48AC08A9709F495C0C11521E5D20785
:100D000008F0BCC0C11530E5D30708F014C1C83ED7
:100D1000D10508F09CC0C13ED10560F5C83AD105A7
:100D200008F087C0C53AD10508F0FDC0C130D10533
:100D300009F12097F9F0C430D105E0F440C08533C3
:100D4000910509F45AC0C997C1F6809115028370C4
:100D500089F0C0EED0E00EC0833E910599F170F4A9
:100D6000803E910501F1823E910539F68091150290
:100D700082FD21C0CE01DF91CF910895863E91057D
:100D800061F1873E910571F1843E910509F0B5CF7F
:100D90008091160281FFEECF80911502C7EED0E060
:100DA00084FD0DC0E7CF8091150280FD12C19091A6
:100DB000160290FFDFCFC3EED0E084FFDBCFD0E0A0
:100DC000C0E0D8CF8091150282FD06C19091160235
:100DD00090FDBFCF84FFCECFF2CF8091150283FD6F
:100DE000DDCFC8CF8091150283FDF9C09091160226
:100DF00091FFF0CFC4EED0E0BDCF8091150285FF0A
:100E0000B9CFC9E2D0E0B6CF8091150285FFB2CF4D
:100E1000C5E3D0E0AFCF8091150286FFABCFCAE229
:100E2000D0E0A8CF8091150286FFA4CFC1E3D0E027
:100E3000A1CFCF3BD10518F6C85AD0E0CC0FDD1FAB
:100E4000C05FDE4F0990D881C02DD46493CFC11507
:100E500040E2D40758F4C11581E0D80708F08ACFE2
:100E6000C03FD10508F4ABCFD06584CFC11590E465
:100E7000D90708F4A4CFDF70D06A7CCFC11525E56F
:100E8000D20700F5C11534E5D30708F08AC0C115B3
:100E900043E5D40708F071C0C11582E5D80708F40E
:100EA00067C0CE018370992721E030E002C0220F95
:100EB000331F8A95E2F7C695C69580E2C89FE00188
:100EC000112452C0C11599E5D907A8F4C11528E528
:100ED000D20708F06BC0C11536E5D30708F06FCF15
:100EE0008C2F0E942706C82FD0E0DC2FCC27CC27E0
:100EF000DF71D0623FCFC1154AE5D40708F45BC06B
:100F0000CE0190568115904208F059CF8D2F8F71E8
:100F10000E94270690E0982F882788279F719C01C0
:100F20002C2BE901E6CFC55AD0E0C35FDE4FC88164
:100F3000D0E0D0641FCFCE01E4E096958795EA9586
:100F4000E1F783702C2F26952695237040E2249F8D
:100F500090011124382B8C2F8370C1E0D0E002C0A7
:100F6000CC0FDD1F8A95E2F7C22BD32BDC6802CFB2
:100F7000DC2FCC27C16FD06AFDCECE0183709927BC
:100F800021E030E002C0220F331F8A95E2F7C695B8
:100F9000C69590E2C99FE0011124C22BD32BDA68D9
:100FA000E9CEDC2FCC27C46FD06AE4CEDC2FCC276F
:100FB000C06FD06ADFCE8C2F8F700E94270634E07E
:100FC000D695C7953A95E1F7CF709C2FEC01D06983
:100FD000D1CEC9E3D0E0CECEC2EED0E0CBCEC6EECD
:100FE000D0E0C8CE8091D80181111092D801089527
:100FF00080959091D70198239093D701089580917F
:10100000D7019091D601892B9091D501892B80939E
:1010100060019091D8019923A1F0892B8093600100
:1010200080910C01882341F18091150287FF24C033
:101030008EE1E2E6F1E090E0815000F591110E942E
:10104000F207E0910C02F0910D023097E1F08091EF
:101050000C01882359F08091150287FF07C0809109
:1010600060018093610186E0809360010280F381DA
:10107000E02D80E691E0099486E0DBCF21912223E8
:10108000D9F29F5FD9CF089590910C019923D1F0A7
:101090009091150297FF16C0E82FE695E695E69524
:1010A000EE31E0F4F0E0E05AFE4F282F277081E0A7
:1010B00090E001C0880F2A95EAF7809592818923F4
:1010C00082830895E2E6F1E09191891303C0DF0184
:1010D00011971C9291E0E836F907B1F708959091C5
:1010E0000C019923C1F09091150297FF14C0E82FCD
:1010F000E695E695E695EE31F8F4F0E0E05AFE4F1D
:10110000877021E030E001C0220F8A95EAF78281E2
:10111000822B82830895A2E6B1E0EFEF90E02D915B
:10112000821751F0EF3F19F4211101C0E92F9F5FA1
:101130009630A9F7EF3F09F408950E2E000CFF0B2F
:10114000E05AFE4FE6CF8091D3019091A20198130F
:1011500001C008958F5F8770FACF27E0929F800DBE
:101160001124982F977086958695869523E0829F07
:10117000F0011124EF57FE4F50E040E080E0219154
:1011800030E0092E02C0369527950A94E2F72170C7
:101190003327042E01C0220F0A94EAF7822B4F5FF7
:1011A0005F4F4330510559F7089527E0929F800D16
:1011B0001124982F977041E001C0440F9A95EAF7E7
:1011C00086958695869593E0899FF0011124EF57C7
:1011D000FE4F90E080E070E05191DF0111979B019C
:1011E000082E02C0369527950A94E2F721702195C2
:1011F0002527242325272C9301968330910561F719
:10120000089590E080E00E94B00490E080E00E94A9
:101210009A041092D6011092D5010E94FF0786E031
:10122000E4E0F2E0DF011D928A95E9F71092FE01F9
:101230001092FD011092FF010C94D20480934C0295
:101240000C94010980914C02982F9670963019F4F5
:1012500088600C941E09877FFCCF21E030E001C03C
:10126000220F8A95EAF7209580914C0282230C94F4
:101270001E099091D401809589238093D401282F51
:10128000277091F4282F082E000C330B92171306A9
:1012900059F09091160292FD07C085958595859528
:1012A0000E942D091092D401089521E030E001C080
:1012B000220F8A95EAF780914C02822B0C941E092A
:1012C0008093D9010C940109882321F00E94F8072A
:1012D0000C94FF070895882339F09091D701982B3B
:1012E0009093D7010C94FF070895882309F452C006
:1012F000823871F40E94C60481FF4CC089E30E94C9
:101300006F080E94FF0789E30E9444080C94FF07BE
:10131000833859F40E94C60480FF3CC083E50E94D4
:101320006F080E94FF0783E5EFCF843859F40E94CD
:10133000C60482FF2FC087E40E946F080E94FF0747
:1013400087E4E2CF9CEF980F913AF0F290E2980F89
:10135000983050F4877091E001C0990F8A95EAF7B0
:10136000892F0E94F807D2CF9BE5980F933020F485
:1013700090E080E00C94B00498E5980F973120F449
:1013800090E080E00C949A04803F20F00E94F904E1
:101390000C94D2040895809581FF05C0479A82FF7E
:1013A00004C0889A08954798FACF88980895809342
:1013B0001702709319026093180280913F028430E3
:1013C000F9F48093E9008FEF9091E800815095FD4A
:1013D00006C095ED9A95F1F700008111F5CF809147
:1013E000E80085FF0DC050E040E063E070E087E179
:1013F00092E00E9441038091E8008E778093E8009C
:101400000895BC0184E00C94D709BC0183E00C94DE
:10141000D7099C0184E08093E9009FEF8091E80068
:10142000915085FD06C085ED8A95F1F70000911178
:10143000F5CF8091E80085FF0CC050E040E066E009
:1014400070E0C9010E9441038091E8008E7780938B
:10145000E8000895CF93DF93EC0180910C0188237D
:10146000B1F18091150287FF32C060E284E0809381
:10147000E9008FEF9091E800815095FD06C095ED51
:101480009A95F1F700008111F5CF8091E80085FF72
:101490001BC080910C0170E050E040E0811104C05D
:1014A00050E040E068E070E0CE010E94410380918E
:1014B000E8008E778093E80080E2FE01ADE1B2E0C3
:1014C00001900D928A95E1F7DF91CF91089568E040
:1014D00081E0CDCF81E08093E00080E28093D8006E
:1014E0001092C9008FE19EE40197F1F700C000005F
:1014F00087E090EBDC0180934D0290934E02A09325
:101500004F02B093500288E19CE00FB6F894A89582
:10151000809360000FBE90936000FFCFCF93C82FE1
:10152000882309F4AEC08238C1F40E94C60481FD4C
:10153000A8C089E30E946F080E94FF072FEF81EE89
:1015400094E0215080409040E1F700C0000089E322
:101550000E944408CF910C94FF078338A1F40E94A5
:10156000C60480FD8EC083E50E946F080E94FF07BD
:101570002FEF81EE94E0215080409040E1F700C0D1
:10158000000083E5E5CF8438A1F40E94C60482FD03
:1015900078C087E40E946F080E94FF072FEF81EE5A
:1015A00094E0215080409040E1F700C0000087E4C3
:1015B000CFCF8CEF8C0F813A88F580910C01882376
:1015C00001F18091150287FF1CC0EC2FE695E6958E
:1015D000E695F0E0E05AFE4F828190E04C2F477094
:1015E00021E030E002C0220F331F4A95E2F7822348
:1015F0009323892B79F08C2F0E9444080E94FF07C7
:1016000009C0E2E6F1E08191C817A9F321E0E836CC
:10161000F207C9F78C2F0E946F089CCF80E28C0FD5
:10162000883068F4C77021E030E001C0220FCA950D
:10163000EAF78091D701822B8093D7018BCFEBE51E
:10164000EC0FE33040F4F0E0E35FFE4F808190E088
:10165000CF910C94B004E8E5EC0FE73150F4F0E0E2
:10166000EE0FFF1FE05FFE4F80819181CF910C94C0
:101670009A04C03F30F08C2F0E94B405CF910C9497
:10168000D204CF9108951F93CF93DF93182FD0E00A
:10169000C0E0893311F4C0E5D0E0812F0E948E0AAA
:1016A000209731F4812FDF91CF911F910C94750910
:1016B0008FE99FE00197F1F700C000002197F0CF7C
:1016C0000F931F93CF93DF93C62FD42F022FFC01CC
:1016D00082818823A1F060934B020E948E04909334
:1016E0004A0280934902C77081E001C0880FCA9501
:1016F000EAF7DF91CF911F910F910C946B098091C4
:101700004B02681335C08091490290914A020E94B1
:101710007F04883C910560F510E21D0FCD17B9F0EC
:1017200080E28C0F883040F4C77081E001C0880FE0
:10173000CA95EAF70E946409183048F481E09D2FA9
:10174000977001C0880F9A95EAF70E946B09802F65
:101750000E94430B183098F4D77081E001C0880FC5
:10176000DA95EAF7DF91CF911F910F910C946409FC
:10177000C77081E001C0880FCA95EAF7F3CFDF9107
:10178000CF911F910F910895CF93DF93C8E5D2E0D9
:1017900060E0CE010E94321F2196C11584E0D80777
:1017A000B9F7DF91CF9108956F927F928F929F92B8
:1017B000AF92BF92CF92DF92EF92FF920F931F935F
:1017C000CF93DF9384E7C82E82E0D82E92ECE92EE7
:1017D000F12CE701CC58D10936011BC0F5018590E9
:1017E0009490692DC8010E94321F682DC80101968E
:1017F0000E94321F82E0A80EB11C0E5F1F4FC0175F
:10180000D10761F78EE0680E711C2E96CE15DF05AC
:1018100029F08E010E5011095301E0CF7E018CE8B2
:10182000E80EF11C8CE8C80ED11C82EFE81682E0AD
:10183000F80679F6DF91CF911F910F91FF90EF900D
:10184000DF90CF90BF90AF909F908F907F906F90E0
:101850000895CF93C82F6FEF811163E283E290E088
:101860000E94321F6FEFC11161E084E290E00E949C
:10187000321F6FEFC11164E285E290E0CF910C94CA
:10188000321F80E00E94290C60E087E290E00E9415
:10189000321F60E086E290E00E94321F0E94D40B6B
:1018A0000E94C40B81E00C94290CCF93C0911602C6
:1018B000C2FB992790F9981799F080FBC2F9C09361
:1018C00016026091150284E090E00E94321F6C2F96
:1018D00082E290E00E94321F82E0CF910C9439099D
:1018E000CF9108950F931F93CF93DF93C42FD0E030
:1018F000CC0FDD1F2EE0629FC00DD11D11243CE8EE
:10190000839FC00DD11D1124CE0188960E94241FF3
:10191000082F10E0102F0027CE0189960E94241F67
:101920009801282BC901DF91CF911F910F91089544
:10193000462F843038F47A3028F4673018F4672F53
:101940000C94720C90E080E00895CF92DF92FF92A9
:101950000F931F93CF93DF936C0100914C02809102
:10196000D901082BC7E0D0E010E0FC2EC8010C2EF6
:1019700002C0959587950A94E2F780FD0CC02197E7
:10198000A0F7F12C8F2DDF91CF911F910F91FF9038
:10199000DF90CF900895B6018C2F0E94980C0E9482
:1019A0006A06019761F3EECFCF93DF93EC010E94BB
:1019B000A50CBE010E94980CDF91CF910C946A0691
:1019C000FC01808191810E94D40C292F2F70929567
:1019D0009F7092509E3078F4E92FF0E0EB58F04E73
:1019E0000C94031F803F19F020F4883E20F481E01E
:1019F0000895843FE1F380E00895883EC0F3813F7D
:101A0000D1F7F5CF822F869586958695089583E246
:101A100090E00E94241F833289F484E290E00E94C7
:101A2000241F813059F485E290E00E94241F91E048
:101A3000843209F090E0892F8170089580E0FCCF16
:101A4000CF9384E090E00E94241FC82F82E290E0B0
:101A50000E94241F982F8C2FCF9108951092D701A8
:101A600080910C01E2E6F1E0882359F080911502A3
:101A700087FF07C08EE1DF011D928A95E9F70C947C
:101A8000010986E0F8CF1F93CF93DF93CDB7DEB780
:101A9000AA970FB6F894DEBF0FBECDBF81E492E0E7
:101AA0002091F100DC012D93CD01B2E089349B0738
:101AB000B9F780914202833009F472C0B8F48130E2
:101AC00009F449C0823009F4B3C08091E80083FF73
:101AD0008BC280914102909142029A3008F084C2F8
:101AE000E92FF0E0ED57F04E0C94031F8A3009F413
:101AF0008EC08B3009F471C0893039F78091410272
:101B0000813219F78091450290914602009711F0B9
:101B10000297D9F68091E800877F8093E800809152
:101B2000E80082FF38C09091F3008091F2000297A4
:101B300031F48091F100813011F0863021F48091F0
:101B4000F10080931C028091E8008B778093E8007D
:101B50000E946B03BACF80914102813A09F0B5CF60
:101B60008091E800877F8093E80080914502909102
:101B70004602892B61F460E28DE192E070E00E9400
:101B80001D048091E8008B778093E8009ECF60E091
:101B900090E080E0F3CF80913F028111C0CF95CFDC
:101BA00080914102813A09F090CF80914502909155
:101BB0004602892B09F089CF8091E800877F8093C6
:101BC000E8008091E80080FFFCCF80910C018093B9
:101BD000F1008091E8008E77B9CF80914102813287
:101BE00009F073CF8091450290914602892B09F04C
:101BF0006CCF8091E800877F8093E8000E946B03A0
:101C00008091430280930C010E942E0D5ECF809143
:101C10004102813209F059CF8091E800877F80939B
:101C2000E8000E946B038091440280931B024DCF19
:101C300080914102813A09F048CF8091E800877F86
:101C40008093E8008091E80080FFFCCF80911B0228
:101C5000BECF803899F0823809F0C6C18091450224
:101C60008F70873008F0C0C18093E9008091EB004D
:101C700085FB882780F91092E90006C080913D021B
:101C800090913E02911182609091E800977F90932D
:101C9000E8008093F1001092F1008091E8008E77C7
:101CA0009FC1882309F48DC1823009F09DC18091C4
:101CB0004302811190C1809145028F702FEF280F50
:101CC000263008F091C18093E9002091EB0020FFBD
:101CD00082C1933031F48091EB0080628093EB00FD
:101CE0007AC19091EB0090619093EB0021E030E09D
:101CF00001C0220F8A95EAF72093EA001092EA00C9
:101D00008091EB008860EACF81116EC1109143028F
:101D10001F778091E3008078812B8093E30080918E
:101D2000E800877F8093E8000E946B038091E800C1
:101D300080FFFCCF8091E30080688093E30082E025
:101D4000111183E080933F024FC18058823008F028
:101D50004BC120914302309144022C3DE3E03E0709
:101D6000A1F583E08A838AE289834FB7F894DE0184
:101D7000139620E03EE051E2E32FF0E0509357004D
:101D8000E49120FF03C0E295EF703F5FEF708E2F6C
:101D900090E0EA30C0F0C7968D939D932F5F243179
:101DA00059F74FBF8091E800877F8093E8006AE28F
:101DB00070E0CE0101960E941D048091E8008B77AF
:101DC0008093E80011C1C096E7CF809145029091C1
:101DD0004602432F55274330510509F44AC078F590
:101DE0004130510509F47AC08BE590E0E4EAF4E073
:101DF0004230510509F0F8C02091E800277F209378
:101E0000E80020914702309148028217930708F4B6
:101E10009C0140E02115310509F065C0411163C006
:101E20008091E80082FDC9CF80913F02882329F28A
:101E3000853019F28091E80083FFF2CFBECF4132A6
:101E4000510509F43CC04232510509F0CDC0833040
:101E5000910508F0C9C0FC01EE0FFF1FEE5AFE4FBE
:101E60000190F081E02D815B9E4FDC018C9190E030
:101E70001AC0332721303105D1F02115310561F029
:101E80002230310509F0B0C0E1E1F5E0E4918E2F98
:101E900090E0E1E1F5E007C0EBE4F5E0E4918E2F9E
:101EA00090E0EBE4F5E0009709F49EC0A5CFE5E3F0
:101EB000F5E0E4918E2F90E0E5E3F5E0F4CF833098
:101EC000910508F091C0880F991FFC01E85AFE4F58
:101ED0000190F081E02D89E090E08ECF82E190E0EA
:101EE000EFEFF4E089CF80913F02882309F465CFBA
:101EF000853009F462CF8091E80083FD5ECF809148
:101F0000E80082FD8DCF8091E80080FF83CF909123
:101F1000F3008091F2002115310519F08830910508
:101F200050F041E0089709F040E08091E8008E779A
:101F30008093E8006FCF44914093F1003196215097
:101F400031090196E8CF803809F04EC08091E80051
:101F5000877F8093E800809140028093F1009DCEBE
:101F6000811142C0109143021230F0F58091E800D7
:101F7000877F8093E800109340020E946B03112337
:101F800011F084E005C08091E30087FDFACF81E085
:101F900080933F0242E061EC81E00E948A0342E2CA
:101FA00061EC84E00E948A0342E261EC82E00E94DC
:101FB0008A0342E260EC83E00E948A0380913F0240
:101FC00013C080914302813079F481E0933009F0AD
:101FD00080E080933E021092E9008091E800877FC4
:101FE0008093E8000E946B038091E80083FF0AC0A1
:101FF0008091E800877F8093E8008091EB00806209
:102000008093EB00AA960FB6F894DEBF0FBECDBF4B
:10201000DF91CF911F9108958F929F92BF92CF929F
:10202000DF92EF92FF920F931F93CF93DF93CDB781
:10203000DEB72A970FB6F894DEBF0FBECDBF8E0174
:102040000F5F1F4F8AE0F80111928A95E9F79EE32E
:10205000E92E91E0F92EBB24B394CC24C394D12C67
:10206000F70181917F018F3F09F449C0F894E82F6F
:10207000E295EF70F0E021A18F70A60102C0440F3D
:10208000551F8A95E2F7CA01922F982B91A392A12E
:102090008095892382A3789400C085E4882E81E00E
:1020A000982ED8016B2D6095F40191914F018D917F
:1020B0009D01215031099F3F09F45DC0492F429590
:1020C0004F7050E0FA0140A150E09F7002C055955A
:1020D00047959A95E2F740FD4EC08B29F901808320
:1020E000FFE48F16F1E09F06F9F6F7013197808142
:1020F0008F3F11F00E94100640EA4A95F1F7BB0CA1
:1021000055E4E51651E0F50609F0AACF4AE050E0A3
:10211000B8018DED91E00E94661FFF24F3940097B3
:1021200009F4F12C892B49F18AE0F801ADEDB1E019
:1021300001900D928A95E1F781E08093DC010E9485
:102140008E049093DB018093DA018091DA01909103
:10215000DB010E947F040597A0F0EDEDF1E0A3EF15
:10216000B1E087EE91E021912D938E179F07D9F76B
:102170001092DC0106C08623B1CF8091DC01811171
:10218000E4CF8F2D2A960FB6F894DEBF0FBECDBFD9
:10219000DF91CF911F910F91FF90EF90DF90CF9043
:1021A000BF909F908F90089569EE7EEF90E080E061
:1021B0000E94501F60E082E090E00E94321F60E0C9
:1021C00083E090E00E94321F1092D90160E084E029
:1021D00090E00E94321F60E082E290E00E94321F95
:1021E00060E085E090E00E94321F60E086E090E0D1
:1021F0000E94321F6FEF87E090E00E94321F40E0A4
:1022000050E0BA0188E090E00E94441F60E08DE059
:1022100090E00E94321F40E050E0BA0188E190E077
:102220000E94441F60E087E190E00E94321F40E07E
:1022300050E0BA018CE190E00E94441F70E060E041
:1022400080E290E00E94501F40E050E0BA0188E137
:1022500090E00E94441F80E00E94290C0E94410CE3
:1022600040E050E0BA018FE090E00E94441F40E05F
:1022700050E0BA0183E190E00C94441F3F924F92EA
:102280005F926F927F928F929F92AF92BF92CF9206
:10229000DF92EF92FF920F931F93CF93DF9300D0C3
:1022A00000D00F92CDB7DEB78C01FC018381948101
:1022B000892B31F08081918189238F3F09F02EC5D0
:1022C0000F900F900F900F900F90DF91CF911F9173
:1022D0000F91FF90EF90DF90CF90BF90AF909F90C5
:1022E0008F907F906F905F904F903F9008950E94E5
:1022F000A50CF82E682F89819A810E94D5086981E2
:102300007A818F2D0E94980C7C01F80182818823AC
:1023100009F4F7C4970122513F452031310508F0F7
:10232000C3C48FEF93E00E94241FFEEEEF0E58E52A
:10233000852E52E0952E8823A1F18091D4018770DB
:1023400009F4BECFF8018281882309F4B9CF8091C6
:10235000160282FDB5CF82E00F900F900F900F9084
:102360000F90DF91CF911F910F91FF90EF90DF9031
:10237000CF90BF90AF909F908F907F906F905F9025
:102380004F903F900C943909811424E09206A9F2F1
:10239000C4010E94241F811101C0EA943FEF831AF7
:1023A000930AE110F1CF1C821B82442443944AE03B
:1023B000342E74018FEFE81AF80AC4010E94241F1A
:1023C00089831A82882309F4B8CF9FEF980F93303E
:1023D00000F58A83498292E0890E911CC7010E9410
:1023E000241F8B83882309F4A8CFFE0131967F0137
:1023F000F70120812223E9F2213009F049C09181BF
:102400008281913041F4F2E0EF0EF11C0E94430B07
:1024100009C04701EACF923049F422E0E20EF11CF4
:102420000E948E0A3FEFE31AF30AE2CF933031F4B1
:1024300032E0E30EF11C0E947509F4CF943021F0D4
:102440008FEFE81AF80AEECF92E0E90EF11C30E0C7
:1024500020E0B7016F5F7F4FF70141818053990BF7
:102460008A30910550F021503109E0F28FE99FE068
:102470000197F1F700C00000F6CF329EF001339EC5
:10248000F00D11249C012E0F3F1F842F7B01E1CF03
:10249000E22FF0E0EC50FE4F5490822F8695869507
:1024A000869590E0FC01EC51FE4F64902770712CF2
:1024B000022E02C0759467940A94E2F7E1E06E225E
:1024C0007724FC01EC52FE4FA490B12C022E02C0E6
:1024D000B594A7940A94E2F7F1E0AF22BB24FC0183
:1024E000EC53FE4FC490D12C02C0D594C7942A95CA
:1024F000E2F721E0C222DD246114710419F081EEBB
:102500000E948E0AA114B10419F086EE0E948E0A70
:10251000852D0E94430BAB2819F086EE0E947509A9
:10252000672819F081EE0E947509CD2809F47ACF49
:102530008CE26CCF81E00E9455090E942209FDCEF9
:1025400081E00E942D09F9CF82E0F5CF95EFE916E1
:102550009CE5F90609F46AC008F464C027E245EE78
:1025600066EEF6EFEF16FCE5FF0609F4C6C3882316
:1025700009F4E5C310924B0223E0E2162DE5F206C2
:1025800008F05BC03AEFE3163CE5F30630F4C70110
:1025900082509C45449708F056C00E94200D9093AD
:1025A00016028093150290E1E9169CE5F90609F4FC
:1025B00031C108F0A3C0F8E0EF16FCE5FF0609F40E
:1025C0001BC108F06CC034E0E3163CE5F30609F4E7
:1025D00005C108F04EC092E0E9169CE5F90609F441
:1025E000F7C0809115028260E3E0EE16ECE5FE068E
:1025F00009F4F1C060911502F090160284E090E0B9
:102600000E94321F6F2D82E290E00E94321F0E94D2
:102610002E0D93CE27E245EE65EE6FC326E241EE26
:1026200060EE6BC327E245EE64EE67C326E241EE3F
:1026300062EE63C328E241E0EFCF81E6E8168DE564
:10264000F80609F4AACFF6E1EF16FCE5FF0609F05B
:1026500083C38091D7018A7A91E009F490E0909346
:1026600080018111FCC089E20E946F080E94FF076F
:1026700064CE809115028061F6E0EF16FCE5FF065E
:1026800009F4A9C080911502886027E0E2162CE5C4
:10269000F20608F4A0C08091150280629CC080916F
:1026A00015028D7F3CE0E3163CE5F30609F493C088
:1026B00078F4809115028C609AE0E9169CE5F906A1
:1026C00009F489C008F49CC0809115028E7F83C0F4
:1026D00080911502877FFEE0EF16FCE5FF0609F406
:1026E0007AC0809115028B7F2FE0E2162CE5F2066E
:1026F00008F471C0809115028F7E6DC03CEFE31627
:102700003CE5F30609F482C0A0F594E1E9169CE5E6
:10271000F90609F493C098F4F2E1EF16FCE5FF0620
:1027200009F47CC0809115028F7B23E1E2162CE531
:10273000F20608F450C080911502837F4CC03AEF36
:10274000E3163CE5F30609F44DC008F051C095E1ED
:10275000E9169CE5F90609F04DCF8091150282FB40
:10276000992790F921E0922790FB82F990FB83F959
:1027700032C0E114EDE5FE0609F456C0A0F48091E4
:10278000160283602EEFE2162CE5F20671F18091BD
:1027900016028D7F3FEFE3163CE5F30630F18091A2
:1027A00016028C7F22C082E0E8168DE5F80609F457
:1027B00054C008F44CC0E1E6EE16EDE5FE0609F063
:1027C00019CF90911502892F8F7E94FF806103C0ED
:1027D000809115028160809315020CCF80911502C3
:1027E0008460F9CF8091160281608093160202CF37
:1027F000809116028260F9CF809115028064EBCF40
:102800000E942E0D809115028068E5CF80911602FE
:102810008E7FEBCF809115028F7DDDCF0E942E0D34
:10282000809115028F77D7CF80911602982F9095BF
:1028300091708E7F892B90FB81F9D7CF0E942E0D4E
:1028400090911502892F97FB87F98058C4CF61E0DA
:102850008EE090E00E94321FCDCE60E0F9CF85E39C
:1028600003CF85E376C20E942E0D2FEF34E38CE078
:10287000215030408040E1F700C000000E946A0A09
:1028800081E090C280E08EC2C7010E94AD08D82EC0
:102890009AC22F2D2F70C22E8F2D807F19F0C294D7
:1028A00090EFC922DD20B9F0CC2069F080E28E0DD6
:1028B000883010F0811009C08091D701C82AC092D9
:1028C000D7010E94FF078E2D4DC08091D601C82AE6
:1028D000C092D601F6CF8E2D0E947509CC2009F446
:1028E00043C080E28E0D883010F0811004C08C2D22
:1028F0000E94F80706C0C0948091D601C822C092F9
:10290000D6010E94FF0730C03F2D3F70C32E8F2D90
:10291000807F803219F0C29480EFC822882089F02D
:1029200081E0881609F481C0DD2009F48BC0BB204A
:1029300009F481C0F801858180FFC5CF8F70858340
:102940007AC02091160222FF4DC0DD2009F444C058
:10295000CC2039F08091D701C82AC092D7010E94BB
:10296000FF0780E00E948E0A292D2850330B243067
:10297000310520F40E94C6040E94CB09AA2009F464
:102980009FCC8091D40180FD9BCCF801128285956B
:10299000859585950E945509C8010E943E11809138
:1029A000D4018595859585950F900F900F900F9088
:1029B0000F90DF91CF911F910F91FF90EF90DF90DB
:1029C000CF90BF90AF909F908F907F906F905F90CF
:1029D0004F903F900C942D0980E00E947509CC2007
:1029E00019F285CFDD20A1F09091D8018C2D892B93
:1029F000B11003C00E946B09B7CFE1E0BE12FACF5D
:102A000022FDB2CF981709F4AFCF8093D801ACCF95
:102A1000B11006C00E94F2078C2D0E946409A4CF59
:102A2000F1E0BF1609F4A0CFF5CFDD2031F025E0AD
:102A30002B1508F499CF8C2DDDCF34E03B1508F42D
:102A400093CFEACFBB2041F3F9E38F1209C02FEFF8
:102A500037EE83E0215030408040E1F700C00000B5
:102A60008E2D0E94750980CF8F2D86958695837057
:102A700061F0813009F078CFC7019370D11002C0A6
:102A800090E080E00E949A046FCFC7019370D1104C
:102A900002C090E080E00E94B00466CF8E2DDD2061
:102AA00029F00E94B4050E94D2045ECF0E94F9046E
:102AB000FACF8F2D837091F5D11056CF4E2D4295C0
:102AC00046954770440F440F8E2D8F70042E01C021
:102AD000880F0A94EAF72E2D2071E4FE07C02FE03C
:102AE00030E001C0220F4A95EAF720953F2D369538
:102AF00036953370323069F050F44091D90131305D
:102B000029F0822B84230E9460092ECF842B822BF4
:102B1000FACF282B8091D9018227F5CF8695DD2029
:102B200011F08F2D8170882309F41ECF4E2D429510
:102B300046954770440F440F8E2D8F70042E01C0B0
:102B4000880F0A94EAF72E2D2071E4FE07C02FE0CB
:102B500030E001C0220F4A95EAF720953F2D3695C7
:102B600036953370323069F050F440914C02313078
:102B700029F0822B84230E941E09F6CE842B822BFF
:102B8000FACF282B80914C028227F5CF9F2D9F7082
:102B9000F92EDD2029F0892F0E9455098E2D2ACF8C
:102BA0008E2D0E9464098F2D0E942D09DDCE8E2D61
:102BB000E2EF8E16B1F1E81570F0F0EF8F16D1F05C
:102BC00021EF821691F0DD2009F45EC0B1107BCEBA
:102BD0008F2D8F712AC033EF831651F194EF891234
:102BE000F2CF8091160282FF2FC08F2D8F71DD20D2
:102BF000D9F21BC0DD2081F0E4E0EB1508F4B4CE7F
:102C00002F2D2F7181E090E001C0880F2A95EAF7FF
:102C100090914C028927AFCFF5E0FB1508F4A4CEC4
:102C2000EFCF8F2D8F71D110BFCF0E9455099CCE51
:102C300080E0DD2009F49FCF9F2D9F7181E001C0CE
:102C4000880F9A95EAF797CFDD2099F02F2D2F71F5
:102C5000F22E822F0E9455098091160282FD07C034
:102C600038E0F39EC001112483608093D4018F2D3E
:102C7000DCCF81E00E94390981E08B1508F074CE29
:102C800082E00E94390970CEBB2059F0893309F0E7
:102C9000E7CE9FEFE7EEF3E09150E040F040E1F740
:102CA000DDCE8F2D8F7180CFF0E1EF16FFE5FF06AF
:102CB00009F440CC21E1E2162FE5F20609F444CCF8
:102CC00093EFE9169CE5F90609F4A8CC08F03ECC90
:102CD000F8EDEF16FCE5FF0609F49CCC29EDE216B1
:102CE0002CE5F20609F4A6CC37EDE3163CE5F30635
:102CF00009F03DCC26E241EE61EEC8010E94600B76
:102D00001CCB30E1E3163FE5F30609F419CC91E161
:102D1000E9169FE5F906A1F682E013CC85E0DE0115
:102D2000119601900D928A95E1F7F801228189812F
:102D30009A812111DCCA0E94AD08F82EE0CAF6E1A2
:102D4000EF16FCE5FF0681F580918001811189CDA8
:102D500089E20E9444088ACC2AE5E2162DE5F206B3
:102D600009F48ECD68F4E1148CE5F80609F47BCD06
:102D70009EEDE9169CE5F906B9F40E94D410DDCA6F
:102D8000EBE5EE16EDE5FE0609F47CCDFCE5EF166D
:102D9000FDE5FF0649F48091160282FB882780F941
:102DA00091E089270E94550CF8018281E080F18032
:102DB000882309F469CDC7010E94A50CD82E682F7D
:102DC000C7010E94D508B7018D2D0E94980C0E9462
:102DD0006A067C01882EF801D280B580B2943FE06B
:102DE000B3228091D4018770C1F0AD2CDD20B1F009
:102DF0008F2D807F803421F080E28E0D883068F046
:102E00008091160282FD09C082E00E9439098091FA
:102E1000D4018770AA24A3948111A12C9F2C929491
:102E20002FE09222FBE0F91508F49ECDE92DF0E0A9
:102E3000E357F04E0C94031F1F93CF93DF938091C1
:102E4000A101807FA9F480919E01882389F080915F
:102E5000D301D091A20160919C0170919D01A0913C
:102E60009F01B091A001C62FC72316E0D81304C05C
:102E7000DF91CF911F91089590E0109711F0CF3F0F
:102E800019F401968770F2CF189F9001199F300DA9
:102E90001124F901ED55FE4F41814713F2CF4081D6
:102EA0004613EFCF42814111ECCF438154814A1B3D
:102EB0005B0B483C510528F78091A1018F70806120
:102EC0008093A101F901E855FE4F80818F708061E8
:102ED00080838CE991E00E943E11DF91CF911F9198
:102EE0000C94A308AF92BF92CF92DF92EF92FF9221
:102EF0000F931F93CF93DF93CDB7DEB761970FB6D4
:102F0000F894DEBF0FBECDBF8C0185E0F801DE0175
:102F10001D9601900D928A95E1F7F801E2808CE907
:102F2000A82E81E0B82E60919F017091A0016115DB
:102F3000710509F432C190919C0140919D01892F46
:102F400084238F3F09F429C120813181C380D4803B
:102F5000F0909E01F601E61BF70BFF2009F4E8C094
:102F60008091A101582F507FE83CF10508F0ABC0DB
:102F7000511177C0FE2C431321C092131FC0E110E2
:102F80001DC08F7080618093A101C5010E943E1118
:102F90008091A101F80185838F2D61960FB6F89479
:102FA000DEBF0FBECDBFDF91CF911F910F91FF907C
:102FB000EF90DF90CF90BF90AF900895CD2829F08B
:102FC000822F83238F3F09F003C180E0F82FF17037
:102FD000DF2E80FF3CC08091D3014091A20156E0DA
:102FE000841315C02D873E878D859E850E94D40C45
:102FF000292F22952F702230F0F0243018F59F7081
:10300000F1F0F8019581907FD1F4D12C1EC090E0B1
:10301000589FF001599FF00D1124ED55FE4F61812D
:10302000361306C06081261303C06281E6120FC00A
:1030300001968770D5CF9F7011F0882331F3805EA1
:10304000883018F3C8010E943E11FD2CA5CFEE2058
:1030500009F4A2CF8091A10181608093A101F12C9C
:103060009BCF431306C0921304C0F801EE2009F46D
:1030700079C0C8010E94E00C882309F1EE20F9F024
:103080008091A101803270F020919C0130919D01CE
:1030900038872F831986DB86CA868C87CE010796F0
:1030A0000E943E1186E0F801ACE9B1E001900D927A
:1030B0008A95E1F70E941C17FF24F3946DCFC80195
:1030C0000E943E11F9CF51110AC08CE991E00E9493
:1030D0003E1186E0F50111928A95E9F7C0CF4313BE
:1030E0000FC092130DC0E1100BC0F8018583C80119
:1030F0000E943E1186E0F50111928A95E9F74CCFC6
:10310000C8010E94E00C8823D1F2EE20C1F2809128
:10311000A101803238F220919C0130919D013A83C7
:1031200029831B82DD82CC828E83CE010196B8CFAB
:10313000E83CF105F8F6FE2CEE2009F243131FC01F
:1031400092131DC08091A10180FD10C0982F907F27
:1031500069F0F8018583903F31F0982F907F905F60
:103160008F70892B8583C8010E943E1186E0F8018B
:10317000ACE9B1E001900D928A95E1F70DCFC8015D
:103180000E94E00C81118ECF8091A101816080931B
:10319000A101C8010E943E11FFCEEE2009F48FCF9D
:1031A000C8010E94E00CF82E882309F488CF86E03D
:1031B000F801ACE9B1E001900D928A95E1F78091B8
:1031C0009C0190919D010E94D40C0E941C17E4CE9A
:1031D00081E08E25FBCE1F93CF93DF93CDB7DEB773
:1031E00067970FB6F894DEBF0FBECDBF4B8B5C8BDD
:1031F0006D8B7E8B8F8B61111092D6011A8A198A82
:1032000085E0FE017396DE011D9601900D928A9570
:10321000E1F786E0FE013D96DE01179601900D92E2
:103220008A95E1F7CE0107960E947217882389F0EC
:1032300016E08091D3019091A201891349C067964D
:103240000FB6F894DEBF0FBECDBFDF91CF911F91B7
:10325000089586E0FE013796DE01119601900D92E9
:103260008A95E1F78A859B85892B11F38F81988553
:1032700089238F3FE9F22091A20130E0C901019634
:10328000877099274091D3014817190671F40E945D
:103290002E0D1092A2011092D30186E0ECE9F1E02C
:1032A000DF011D928A95E9F7C3CF96E0929FD00186
:1032B000939FB00D1124AD55BE4FFE013196019084
:1032C0000D929A95E1F78093A2010E94A308B0CFD6
:1032D000819FC00111248D559E4F0E947217882333
:1032E00009F4ADCF8091D30190E0019687709927C2
:1032F0008093D3019ECF1F920F920FB60F9211248D
:103300002F933F934F935F936F937F938F939F93ED
:10331000AF93BF93CF93DF93EF93FF93D091E900E7
:10332000DF708091EC00C82FC17080FDC0E8109262
:10333000E9008091F000877F8093F00078940E94EC
:10334000430D1092E9008091F00088608093F000B6
:10335000CD2BCF70C093E900FF91EF91DF91CF911A
:10336000BF91AF919F918F917F916F915F914F919D
:103370003F912F910F900FBE0F901F9018951F92A5
:103380000F920FB60F9211242F933F934F935F9399
:103390006F937F938F939F93AF93BF93EF93FF931D
:1033A0008091E10082FF09C08091E20082FF05C0A8
:1033B0008091E1008B7F8093E1008091DA0080FFB3
:1033C00024C08091D80080FF20C08091DA008E7FD9
:1033D0008093DA008091D90080FF9DC080E189BD93
:1033E00082E189BD09B400FEFDCF81E080933F02F8
:1033F00080911A02811109C00E94F1020E94BC034F
:103400008091E20084608093E2008091E10080FF7F
:1034100017C08091E20080FF13C08091E2008E7F90
:103420008093E2008091E20080618093E2008091CD
:10343000D80080628093D80019BC85E080933F0259
:103440008091E10084FF2BC08091E20084FF27C0BF
:1034500080E189BD82E189BD89B5982F917080FF97
:10346000FBCF8091D8008F7D8093D8008091E100C0
:103470008F7E8093E1008091E2008F7E8093E20056
:103480008091E20081608093E20080914002882375
:1034900009F447C084E080933F0280913F0280910D
:1034A000E10083FF27C08091E20083FF23C0809169
:1034B000E100877F8093E10082E080933F021092D9
:1034C00040028091E1008E7F8093E1008091E200D4
:1034D0008E7F8093E2008091E20080618093E20021
:1034E00042E060E080E00E948A038091F000886002
:1034F0008093F000FF91EF91BF91AF919F918F91D9
:103500007F916F915F914F913F912F910F900FBEDF
:103510000F901F90189519BC10923F0210921A023A
:1035200074CF8091E30087FD93E090933F02B5CF85
:1035300078941F921FB61F9211248F939F93AF937D
:10354000BF938091110290911202A0911302B09149
:1035500014020196A11DB11D8093110290931202D5
:10356000A0931302B0931402BF91AF919F918F91DA
:103570001F901FBE1F9018951F921FB61F921124F7
:103580008F939F93AF93BF9380911002811113C0CB
:103590008091110290911202A0911302B091140235
:1035A0004196A11DB11D8093110290931202A09328
:1035B0001302B0931402BF91AF919F918F911F900E
:1035C0001FBE1F901895CDB7DEB7AA970FB6F89417
:1035D000DEBF0FBECDBF84B7877F84BF0FB6F89420
:1035E000A8958091600088618093600010926000CF
:1035F0000FBE80E890E00FB6F8948093610090933E
:1036000061000FBE85B7806885BF85B7806885BFBC
:103610008EE096E090935F0180935E010E94F1023C
:103620000E94BC038091E20084608093E200789461
:1036300080913F028823A1F01091E9001F709091C2
:10364000EC00892F817090FD80E8182B1092E90022
:103650008091E80083FD0E94430D1F701093E900E4
:1036600082E084BD93E095BD9AEF97BD80936E0094
:103670000E94070D811102C00E94410C0EE311E06F
:10368000B5E4EB2EB1E0FB2ED8018D918D018F3F7B
:1036900011F00E941006E016F106B1F705E411E002
:1036A000AFE4EA2EA1E0FA2EF80181918F018F3F5D
:1036B00011F00E941006E016F106B1F78AE0E3EF80
:1036C000F1E0DF01282F1D922A95E9F7EDEDF1E0F9
:1036D000DF011D928A95E9F790E080E00E942C1F9F
:1036E000893E9E4F21F40E94070D811102C00E9465
:1036F000D41082E090E00E94241F8093E8010E9491
:10370000200D90931602809315020E940C10EFE397
:10371000FCE93197F1F700C000000E940C10809185
:10372000F30180FF08C06FEF7FEF90E080E00E9420
:10373000501F0E946A0A83E090E00E94241F0E94AA
:1037400060093F9A479A809A889A80E091E0909326
:103750000D0280930C0268E1E62EF12C70E4872EB6
:10376000EDEFCE2EE1E0DE2EF0E19F2E80913F02C4
:1037700012E1853009F471C10E940C10882359F0C0
:103780008FB7F89440911102509112026091130288
:10379000709114028FBF03EF11E0E9EEF1E0D80160
:1037A000B12CA12C3A2D8D919191981709F466C1F5
:1037B000292F282790E077247394422F472109F47A
:1037C00058C199A33AA3872191E009F490E09BA303
:1037D0000E948E048160782F9DA38CA349A15AA1D9
:1037E0006BA18DA10E94EB18F501E751FE4F80817E
:1037F0007826708286E0E4E0F2E0DE011196019026
:103800000D928A95E1F77090060260900702B090E1
:103810000802A0900902109206021092070210926C
:10382000080210920902872D862909F448C0809168
:103830000202909103020E947F049C019091FE017C
:10384000992309F4C7C223333105C8F19F3F19F00A
:103850009F5F9093FE01772059F00E9494059FEF9F
:1038600017140CF491E0899F802D11248093060297
:10387000662059F00E9494059FEF16140CF491E015
:10388000899F802D112480930702309106023323F3
:10389000B1F020910702222391F045EB3403C001DF
:1038A0001124992309F403C19093060245EB2403E4
:1038B00090011124332309F4FEC0309307028B2DAD
:1038C0008A2909F448C080910002909101020E9467
:1038D0007F049C019091FD01992309F476C225365D
:1038E0003105C8F19F3F19F09F5F9093FD01BB2008
:1038F00059F00E9472059FEF1B140CF491E0899F10
:10390000802D112480930802AA2059F00E9472058C
:103910009FEF1A140CF491E0899F802D112480935D
:103920000902309108023323B1F0209109022223C9
:1039300091F045EB3403C0011124992309F4BFC071
:103940009093080245EB240390011124332309F4DA
:10395000BAC0309309028091060290910702892B28
:1039600090910802892B90910902892B11F00E94F5
:10397000D20486E0FE013196A4E0B2E001900D92FF
:103980008A95E1F70E94C6049091E701891731F00A
:103990000E94C6048093E7010E94CB0980913F02F8
:1039A000843009F0E3CE83E08093E9008091E80061
:1039B00082FFDCCE8091E80090E085FF06C00E9487
:1039C0001003882309F483C091E08091E8008B778D
:1039D0008093E800992309F4C9CEE981E150E331ED
:1039E00008F013C1F0E0E756F04E0C94031F8091ED
:1039F0003F02843021F180E00E94CB091092100236
:103A00000FB6F894A895E09260000FBE8092600017
:103A100083B7817F846083BF83B7816083BF7894DD
:103A2000889583B78E7F83BF0FB6F894A895809151
:103A30006000886180936000109260000FBE8091EA
:103A40003E02882351F00E940C10E3EFF1E08191D7
:103A50008111A5C1CE16DF06D1F780913F028530D6
:103A600009F4C5CF0E942E0D0E94C6040E94CB0906
:103A700083CE9F5F770C973009F09FCE2FEFA21A6D
:103A8000B20A4AE0A416B10409F08CCE8FEF8EA3DF
:103A90008FA318A60E948E048160782F9AA789A709
:103AA0004EA15FA168A58AA50E94EB18A3CE81E074
:103AB00080930602FBCE81E08093070200CF81E075
:103AC000809308023FCF81E08093090244CF50E207
:103AD000652E712CCE0101965C018091E80085FD78
:103AE0000AC08091E8008B778093E8000E94100361
:103AF000882399F369CF8091F100D5018D935D0101
:103B0000B1E06B1A710849F75FCF1A8289E08B83A5
:103B100032C08A818230C1F0833009F453C08130D1
:103B200009F073C02FB7F8946091110270911202DE
:103B300080911302909114022FBF0E94091F6B8382
:103B40007C838D839E8317C086E290E00E94241FB1
:103B500090E0B0E0A0E04424582E692E7A2E87E24F
:103B600090E00E94241F1B821C82482A5424452472
:103B700054245E824D8280913F02843009F0F6CD5C
:103B80001091E9001F709091EC00892F817090FDD9
:103B900080E8182B82E08093E9008091E80080FFA4
:103BA0000DC050E040E060E270E0CE0101960E945E
:103BB00041038091E8008E778093E8001F70109396
:103BC000E900D4CDFE013396D8018D918D0181930A
:103BD000B1E00D3F1B07C1F7CECF8A818230A9F437
:103BE0006B817C818D819E810E94091F2B013C018C
:103BF00087E290E00E94321F9927872D762D652D50
:103C000086E290E00E94321FB6CF8FEF8983B3CF58
:103C10004C816B818A810E94720C98278927982792
:103C20009E838D83A8CFAD80BE80BA24AB24BA24F6
:103C30008A810B81EEE00E9F80011124FCE88F9FAA
:103C4000000D111D11248C8190E0880F991F080F21
:103C5000191F6B2DC80188960E94321F6A2DC8015A
:103C60008996D0CF0E94D40B86CF9A8284CF81E0F0
:103C70008A8388EA4CCF0A811B81102701271027ED
:103C8000CE0101963C01AC80DC01AA0DB11D5D01A5
:103C9000C801885A9D4FA614B70409F46CCF083A9E
:103CA000B1E01B0750F40E94241FF30184830F5FCF
:103CB0001F4FBFEF6B1A7B0AEBCFD30114961C92F8
:103CC000F6CF0A811B81102701271027FE013196AC
:103CD0003F01AC80A00EB12EB11CC801885A9D4F87
:103CE000A016B10609F447CF083AF1E01F0728F4FF
:103CF000D30114966C910E94321FBFEF6B1A7B0A9E
:103D00000F5F1F4FEACF0E94C40B35CF84E08A8338
:103D100032CF0A811B81102701271027FE0131961F
:103D20003F01AC80CF018A0D911D5C01C8018896CE
:103D30006A147B0409F41FCF0033A2E01A0750F481
:103D40000E94241FF30184830F5F1F4FBFEF6B1A84
:103D50007B0AECCFD30114961C92F6CF0A811B810B
:103D6000102701271027FE0131963F01AC80A00EDD
:103D7000B12EB11CC80188960A151B0509F4FBCEAB
:103D80000033F2E01F0728F4D30114966C910E94CF
:103D9000321FBFEF6B1A7B0A0F5F1F4FEBCF99BC2F
:103DA00019BD09B400FEFDCF8091D8008F7D8093AE
:103DB000D8008091E00082608093E0008091E00074
:103DC00081FDFCCF0E942E0D48CE2D32314008F0EF
:103DD0008BCDC1CD2D32314008F03ACD70CD97FB5F
:103DE000072E16F4009407D077FD09D00E94101F0B
:103DF00007FC05D03EF4909581959F4F08957095EE
:103E000061957F4F0895EE0FFF1F0590F491E02D0F
:103E1000099469279627692778278727782708959F
:103E2000AA1BBB1B51E107C0AA1FBB1FA617B707E0
:103E300010F0A61BB70B881F991F5A95A9F78095FC
:103E40009095BC01CD010895F999FECF92BD81BD39
:103E5000F89A992780B50895A8E1B0E042E050E0D3
:103E60000C94581F262FF999FECF92BD81BDF89A68
:103E7000019700B4021639F01FBA20BD0FB6F894AE
:103E8000FA9AF99A0FBE08950396272F0E94331FBE
:103E90000E94321F252F0E94331F242F0C94331FA2
:103EA0000196272F0E94331F0C94321FDC01CB0197
:103EB000FC01F999FECF06C0F2BDE1BDF89A31963A
:103EC00000B40D9241505040B8F70895FB01DC0159
:103ED00004C08D910190801921F441505040C8F7E1
:103EE000881B990B0895F894FFCFF20CF20CFB0C91
:103EF000FB0CFD0CFB0CFB0CFB0CF20CF20C020D92
:103F0000FB0CFB0C020D290E510EF40F510EF40F99
:103F1000840EA50EF40FA30FB00F49144914841496
:103F2000841434154E15B414B4145915C615D71588
:103F3000D715851D891DED1D081E131E321E051E79
:103F4000051E051E051E051E351E371E3B1E611E65
:083F5000831E861E891EAE1EB1
:103F58007C042A0A090A050A010A7B040181828372
:103F6800E200E900EA00B500B600B700CD00830121
:103F7800CC008A0192019401210223022402250225
:103F8800260227022A02B300B4006F007000F7323D
:103F98003337973435F6F4F5F1313066369294407C
:0E3FA80022B684016201AC00B604CF04EF041F
:00000001FF
