:100000000C94B5020C94FC020C94FC020C94FC02BF
:100010000C94FC020C94FC020C94FC020C94FC0268
:100020000C94FC020C94FC020C94EB190C94A71990
:100030000C946E1F0C94FC020C94FC020C94FC02B9
:100040000C94FC020C94FC020C94FC020C94FC0238
:100050000C94FC020C944A1F0C94FC020C94FC02BD
:100060000C94FC020C94FC020C94FC020C94FC0218
:100070000C94FC020C94FC020C94FC020C94FC0208
:100080000C94FC020C94FC020C94FC020C94FC02F8
:100090000C94FC020C94FC020C94FC020C94FC02E8
:1000A0000C94FC020C94FC020C94FC020501090265
:1000B000A10185020901A1000509190129081500FE
:1000C0002501950875018102050109300931158165
:1000D000257F95027508810609381581257F9501D0
:1000E00075088106050C0A38021581257F95017572
:1000F000088106C0C005010980A101850319012AF4
:10010000B700150126B700950175108100C0050CD8
:100110000901A101850419012AA002150126A002E6
:10012000950175108100C005010906A1018505052D
:100130000719E029E71500250195087501810205D9
:1001400007190029EF1500250195F07501810205B9
:10015000081901290595057501910295017503910D
:1001600001C00660FF0961A1010962150026FF00B8
:100170009520750881020963150026FF00952075FA
:10018000089102C005010906A101050719E029E748
:1001900015002501950875018102950175088101F9
:1001A0000507190029FF150026FF0095067508812F
:1001B000000508190129059505750191029501753C
:1001C000039101C029001E001F0020002100220011
:1001D000230024002500260027002D002E003100DA
:1001E00035002B0014001A000800150017001C0031
:1001F00018000C00120013002F0030002A0000002D
:10020000390004001600070009000A000B000D0069
:100210000E000F0033003400520028000000E100FF
:1002200050001D001B000600190005001100100001
:10023000360037003800E5004F000000E000E30022
:10024000E200000000002C000000000000000000A0
:10025000E600E7005100E400000035003A003B00F2
:100260003C003D003E003F00400041004200430092
:100270004400450001004C000100C35CC45CC65C46
:10028000C75CC85CC95CCA5CCB5C010001000100B2
:100290000100005C000001000100010001000100FC
:1002A0000100010001000100010001000100010046
:1002B000010000000100010001000100BE5CC05C03
:1002C000BF5CC15C010001000100010001000100F0
:1002D000000001000100010000000000010000001A
:1002E000000000000000010001000100010000000A
:1002F00001000100010001000100010001000100F6
:1003000001000100010001000100010001000100E5
:1003100001000100010001000100010001000100D5
:1003200001000100010001000100000001000100C6
:1003300001000100010001000100010001000100B5
:1003400001000100010001000000010001000100A6
:100350000100010001000100010001000100010095
:100360000100010001000000010001000100000087
:10037000000001000000000000000000010001007A
:100380000100010000000100010001000100010066
:100390000100010001000100010001000100010055
:1003A0000100010001000100010001000100010045
:1003B0000100010001000100010001000100010035
:1003C0000000010001000100010001000100010026
:1003D0000100010001000100010001000100000016
:1003E0000100010001000100010001000100010005
:1003F00001000100010001000100010000000100F6
:1004000001000100000000000100000000000000E9
:1004100000000100010001000100000000000000D8
:1004200000000000000000000000000000000000CC
:1004300000000000000000000000000000000000BC
:100440007E0F00D4FFFFFFC700000078000000000F
:10045000000000002A2B280000000000000000001F
:100460000000000000000029000000002C1E3420C5
:10047000212224342627252E362D3738271E1F20EB
:100480002122232425263333362E37381F04050630
:100490000708090A0B0C0D0E0F1011121314151674
:1004A0001718191A1B1C1D2F3130232D3504050672
:1004B0000708090A0B0C0D0E0F1011121314151654
:1004C0001718191A1B1C1D2F3130354C09025B00FF
:1004D000030100A0FA090400000103010100092141
:1004E000110100012240000705810308000A0904E8
:1004F0000100020300000009211101000122220075
:1005000007058203200001070503032000010904F9
:100510000200010300000009211101000122B600C0
:100520000705840320000A1201100100000008588A
:100530004301060001010200011E03630068006C14
:1005400000780020006D006500720072006F0036B8
:100550000030007600310000000A03630068006C80
:100560000078000000040309040011241FBECFEF2F
:10057000DAE0DEBFCDBF04B603FE27C0809169027A
:1005800090916A02A0916B02B0916C028730904BFF
:10059000A740B04BD1F41092690210926A021092F7
:1005A0006B0210926C0214BE84B7877F84BF0FB6B3
:1005B000F894A89580916000886180936000109203
:1005C00060000FBEE0E0F8E3099511E0A0E0B1E0C3
:1005D000EAE8F0E402C005900D92A036B107D9F721
:1005E00022E0A0E6B1E001C01D92A936B207E1F712
:1005F0000E94C21A0C940C200C940000E8EDF0E06C
:1006000080818E7F80831092E2001092DA00109237
:10061000E100A0EEB0E08C9181608C9380818F77B7
:10062000808319BCA7EDB0E08C918E7F8C93808184
:100630008F7E80831092330208952091E4003091E0
:10064000E50095E6A9012091EC00822F817020FF42
:1006500006C08091E80080FF06C080E008952091E8
:10066000E80022FD1AC080915802882389F0853065
:1006700089F08091EB0085FD0FC02091E40030915E
:10068000E50042175307F9F29150E1F684E008952E
:1006900082E0089583E0089581E00895EF92FF924B
:1006A0000F931F93CF937C018B010E941D03C82FD2
:1006B000811117C08091E80085FD0BC08091E80092
:1006C0008E778093E8000E941D03882399F3C82F3A
:1006D00008C0F70181917F018093F1000150110959
:1006E00049F78C2FCF911F910F91FF90EF900895B4
:1006F00080915A0287FF13C08091E80082FF06C0F4
:100700008091E8008B778093E80004C080915802C4
:100710008111F2CF0895809158028823D9F38091F6
:10072000E80080FFF8CF8091E8008E77ECCF982F1B
:100730009093E900242F762F50E0891731F07091C3
:10074000EC002091ED005091F00021FD07C09F5F6B
:10075000973071F78093E90081E008953091EB00C4
:100760003E7F3093EB003091ED003D7F3093ED0004
:100770003091EB0031603093EB007093EC002093EC
:10078000ED005093F0002091EE0027FDE0CF80E0D7
:100790000895CF92DF92EF92FF920F931F93CF9322
:1007A000DF93C8EDD0E088818F7E8883E7EDF0E0AD
:1007B00080818160808384E082BF81E08093330206
:1007C00088818E7F888302EE10E0F80110821092FB
:1007D000DA0081EEC82ED12CF601108288818F7745
:1007E000888388818068888388818F7D888319BC0D
:1007F000109258021092590210925702109256020B
:1008000090EEE92EF12CF70180818B7F8083888127
:100810008160888342E060E080E00E949703F601F7
:1008200080818E7F8083F8018081816080838081D8
:1008300088608083F70180818E7F808388818061DA
:100840008883DF91CF911F910F91FF90EF90DF9000
:10085000CF900895FC01809160029091610286170B
:100860009707A0F06115710529F49091E8009E7733
:100870009093E80090E06115710551F4911108C062
:100880008091E80082FF34C080E00895BC01F2CF7F
:10089000809158028823C1F18530C1F18091E80030
:1008A00083FD30C08091E80082FDEACF8091E800AE
:1008B00080FFE1CF8091F3002091F200382F611585
:1008C000710519F02830310558F091E028303105D4
:1008D00009F090E02091E8002E772093E800CBCF3C
:1008E00081918093F100615071092F5F3F4FE7CFF5
:1008F00080915802882341F0853041F08091E800D2
:1009000083FFBECF81E0089582E0089583E00895DB
:1009100080E008958091350208959C014FB7F894C6
:1009200080912F0290913002A0913102B091320259
:100930004FBF821B930B08952FB7F89480912F021D
:1009400090913002A0913102B09132022FBF0895F0
:100950008091F90181111092F90108958091F801B7
:100960009091F701892B9091F601892B8093620178
:100970009091F9019923A1F0892B809362018091D4
:100980000A01882341F18091080287FF24C08EE18B
:10099000E4E6F1E090E0815000F591110E94A80496
:1009A000E0910A02F0910B023097E1F080910A0188
:1009B000882359F08091080287FF07C08091620167
:1009C0008093630185E0809362010280F381E02DD2
:1009D00082E691E0099486E0DBCF21912223D9F2CF
:1009E0009F5FD9CF089590910A019923D1F09091FA
:1009F000080297FF16C0E82FE695E695E695EE31DA
:100A0000E0F4F0E0EE59FE4F282F277081E090E0EF
:100A100001C0880F2A95EAF7809592818923828305
:100A20000895E4E6F1E09191891303C0DF01119785
:100A30001C9291E0EA36F907B1F7089590910A0106
:100A40009923C1F09091080297FF14C0E82FE69512
:100A5000E695E695EE31F8F4F0E0EE59FE4F87703A
:100A600021E030E001C0220F8A95EAF78281822BD3
:100A700082830895A4E6B1E0EFEF90E02D91821714
:100A800051F0EF3F19F4211101C0E92F9F5F96301B
:100A9000A9F7EF3F09F408950E2E000CFF0BEE5955
:100AA000FE4FE6CF2FE0929F800D1124982F977074
:100AB00086958695869525E0829FF0011124ED5359
:100AC000FE4F50E040E080E0219130E0092E02C06E
:100AD000369527950A94E2F721703327042E01C03A
:100AE000220F0A94EAF7822B4F5F5F4F4530510582
:100AF00059F708952FE0929F800D1124982F977039
:100B000041E001C0440F9A95EAF78695869586954F
:100B100095E0899FF0011124ED53FE4F90E080E0B5
:100B200070E05191DF0111979B01082E02C03695AC
:100B300027950A94E2F7217021952527242325275C
:100B40002C9301968530910561F708958091C2013B
:100B500090919101981301C008958F5F8770FACF2B
:100B6000882341F080959091F80189238093F801C2
:100B70000C94AE040895882339F09091F801982BD5
:100B80009093F8010C94AE04089520918701309160
:100B900088012817390771F09093880180938701A5
:100BA000E0910A02F0910B02309721F00084F18568
:100BB000E02D099408952091850130918601281730
:100BC000390771F09093860180938501E0910A02C4
:100BD000F0910B02309721F00680F781E02D099407
:100BE0000895E0910A02F0910B02309721F00190F4
:100BF000F081E02D099480E008950E949C049C01FE
:100C00009091150280911602982B21F030931202D8
:100C1000209311029091170280911802982B21F0D5
:100C200030930F0220930E02E0910A02F0910B0222
:100C3000309749F082E0809313020480F581E02D23
:100C400083E192E00994089590E080E00E94DB0542
:100C500090E080E00E94C5051092F7011092F60125
:100C60000E94AE0486E0E3E1F2E0DF011D928A9586
:100C7000E9F71092100210920D0210928A010C9462
:100C8000FD056093650270936602809367029093FE
:100C900068020C9424060F931F9360916502709173
:100CA000660280916702909168028B019C01067038
:100CB000112722273327063011052105310529F494
:100CC00068601F910F910C944106677FFACF0F93D4
:100CD0001F9341E050E060E070E004C0440F551FF6
:100CE000661F771F8A95D2F7CB01BA016095709580
:100CF000809590950091650210916602209167029F
:100D00003091680260237123822393231F910F91F6
:100D10000C9441069091F501809589238093F5010B
:100D2000282F277071F4282F082E000C330B9217F0
:100D3000130639F08595859585950E946706109272
:100D4000F50108950F931F9341E050E060E070E0DB
:100D500004C0440F551F661F771F8A95D2F78091F4
:100D6000650290916602A0916702B09168028A01C3
:100D70009B01082B192B2A2B3B2BC901B8011F9172
:100D80000F910C9441066093FA017093FB018093DC
:100D9000FC019093FD010C942406409115028D3EB8
:100DA00059F48091160287FF0DC01092160241116E
:100DB0000BC01092100208C08E3E81F48091160282
:100DC00018169CF3442381F0809117029091180229
:100DD000892B09F05AC010920D0208958F3E49F4F4
:100DE00047FFF0CF10921502809116028111ECCFCF
:100DF000E0CF803F19F41416ACF3E4CF90911702C2
:100E0000893F29F41916F4F610921702DBCF8A3FB6
:100E100019F497FFD7CFF8CF909118028B3F29F4A0
:100E200097FFD0CF10921802CDCF8C3F19F419162E
:100E3000CCF3C8CF9FE0980F983090F4815F990B66
:100E400021E030E0B90102C0660F771F8A95E2F712
:100E5000CB01809590911402892380931402B2CF24
:100E60008D3F31F480918A018E7F80938A01AACFD1
:100E70008E3F21F480918A018D7FF7CF8F3F09F05B
:100E8000A1CF80918A018B7FF0CF0895882309F448
:100E900059C0823871F40E94F10581FF53C089E383
:100EA0000E941E050E94AE0489E30E94F3040C9484
:100EB000AE04833859F40E94F10580FF43C083E5F6
:100EC0000E941E050E94AE0483E5EFCF843859F4DA
:100ED0000E94F10582FF36C087E40E941E050E9431
:100EE000AE0487E4E2CF9CEF980F913AF0F290E2E3
:100EF000980F983088F4877021E030E0A90102C093
:100F0000440F551F8A95E2F7CA0180959091F80128
:100F100089238093F801CBCF9BE5980F933020F481
:100F200090E080E00C94DB0598E5980F973120F471
:100F300090E080E00C94C5058D3E20F00E94CD0627
:100F40000C94FD05089580918A0180FD16C081FDF5
:100F500016C082FD16C080910D028823A1F0883250
:100F600080F428E0829FC001112468E270E00E94B2
:100F7000951F862F672B39F0089582E0089584E04D
:100F8000089588E0089581E0089580918A0180FDA8
:100F900014C081FD14C082FD16C080911002882308
:100FA00081F0843180F422E3829FC001112464E146
:100FB00070E00E94951F862F08958CE0089589E1C6
:100FC000089585E0089582E308958D3E31F40E94EE
:100FD000C50781958093160208958E3E19F40E94EC
:100FE000C507F8CF8F3E31F40E94C50781958093E5
:100FF00015020895803F19F40E94C507F8CF893F74
:1010000029F40E94A3078093170208958A3F21F4D0
:101010000E94A3078195F7CF8B3F31F40E94A3076D
:1010200081958093180208958C3F19F40E94A307BC
:10103000F8CF9FE0980F983070F4815F990B21E012
:1010400030E001C0220F8A95EAF780911402822BCA
:101050008093140208958D3F31F480918A0181605C
:1010600080938A0108958E3F21F480918A018260E5
:10107000F7CF8F3FB9F780918A018460F1CFF89460
:10108000E82FE295EF70F0E031A1282F2F7081E07A
:1010900090E001C0880F2A95EAF7982F9095932346
:1010A00091A392A1892B82A378940895909108022C
:1010B00092FF06C0282F28712830F9F4877F8460BA
:1010C00093FF06C0282F28712831F1F4877E8461B0
:1010D0002091090220FF06C0382F38713830D9F42A
:1010E000877F816021FF06C0282F28712831D1F425
:1010F000877E816194FD877E0895282F2471243096
:10110000F9F68B7F8860DCCF282F2471243101F71A
:101110008B7E8861DDCF382F3171313019F78E7FAA
:101120008860E0CF282F2171213121F78E7E8861E0
:10113000E1CFCF9384E090E00E94CA1FC82F81E2E4
:1011400090E00E94CA1F982F8C2FCF9108950F9383
:101150001F93CF93DF93C42FD0E0CC0FDD1F2EE180
:10116000629FC00DD11D112436E9839FC00DD11D92
:101170001124CE0187960E94CA1F082F10E0102F5D
:101180000027CE0188960E94CA1F9801282BC9010A
:10119000DF91CF911F910F910895462F843038F43D
:1011A000753028F46F3018F4672F0C94A70890E07E
:1011B00080E00895CF93DF930E94CD08EC01823840
:1011C0009105A9F1D8F58133910509F496C048F548
:1011D0008932910509F48AC08A9709F495C0C1152E
:1011E00021E5D20708F0BCC0C11530E5D30708F0EF
:1011F00014C1C83ED10508F09CC0C03ED10560F5C1
:10120000C83AD10508F087C0C53AD10508F0FDC03D
:10121000C130D10509F12097F9F0C430D105E0F4CF
:1012200040C08533910509F45AC0C997C1F6809131
:101230000802837089F0C0EED0E00EC0833E9105B5
:1012400099F170F4803E910501F1823E910539F6E5
:101250008091080282FD21C0CE01DF91CF910895D7
:10126000863E910561F1873E910571F1843E9105BD
:1012700009F0B5CF8091090281FFEECF809108027D
:10128000C7EED0E084FD0DC0E7CF8091080280FD5D
:1012900012C19091090290FFDFCFC3EED0E084FF2E
:1012A000DBCFD0E0C0E0D8CF8091080282FD06C13C
:1012B0009091090290FDBFCF84FFCECFF2CF8091F5
:1012C000080283FDDDCFC8CF8091080283FDF9C0FD
:1012D0009091090291FFF0CFC4EED0E0BDCF809194
:1012E000080285FFB9CFC9E2D0E0B6CF80910802ED
:1012F00085FFB2CFC5E3D0E0AFCF8091080286FF73
:10130000ABCFCAE2D0E0A8CF8091080286FFA4CF7D
:10131000C1E3D0E0A1CFCF3BD10518F6C85AD0E049
:10132000CC0FDD1FC25FDE4F0990D881C02DD46481
:1013300093CFC11540E2D40758F4C11581E0D80716
:1013400008F08ACFCD3ED10508F4ABCFD06584CF6D
:10135000C11590E4D90708F4A4CFDF70D06A7CCF20
:10136000C11525E5D20700F5C11534E5D30708F00E
:101370008AC0C11543E5D40708F071C0C11582E5E4
:10138000D80708F467C0CE018370992721E030E0C8
:1013900002C0220F331F8A95E2F7C695C69580E2F8
:1013A000C89FE001112452C0C11599E5D907A8F4DE
:1013B000C11528E5D20708F06BC0C11536E5D30783
:1013C00008F06FCF8C2F0E945608C82FD0E0DC2F7A
:1013D000CC27CC27DF71D0623FCFC1154AE5D407B7
:1013E00008F45BC0CE0190568115904208F059CFA9
:1013F0008D2F8F710E94560890E0982F882788279C
:101400009F719C012C2BE901E6CFC55AD0E0C55F46
:10141000DE4FC881D0E0D0641FCFCE01E4E09695C6
:101420008795EA95E1F783702C2F269526952370F2
:1014300040E2249F90011124382B8C2F8370C1E04F
:10144000D0E002C0CC0FDD1F8A95E2F7C22BD32B70
:10145000DC6802CFDC2FCC27C16FD06AFDCECE0175
:101460008370992721E030E002C0220F331F8A9554
:10147000E2F7C695C69590E2C99FE0011124C22B00
:10148000D32BDA68E9CEDC2FCC27C46FD06AE4CE48
:10149000DC2FCC27C06FD06ADFCE8C2F8F700E94DC
:1014A000560834E0D695C7953A95E1F7CF709C2F52
:1014B000EC01D069D1CEC9E3D0E0CECEC2EED0E00F
:1014C000CBCEC6EED0E0C8CEBF92CF92DF92EF92E5
:1014D000FF920F931F93CF93DF938C01C09065020F
:1014E000D0906602E0906702F09068028091FA0165
:1014F0009091FB01A091FC01B091FD01C82AD92A6D
:10150000EA2AFB2ACFE1D0E0BC2ED701C6010C2E7F
:1015100004C0B695A795979587950A94D2F780FD54
:101520000EC0219788F7B12C8B2DDF91CF911F91A1
:101530000F91FF90EF90DF90CF90BF900895B8018A
:101540008C2F0E94DA08019761F3EECFCF93DF93DF
:10155000EC010E94640ABE01DF91CF910C94DA087D
:101560000E94A60A292F2F7092959F7092509E304C
:1015700078F4E92FF0E0E25FFF4D0C94A91F803F63
:1015800019F020F4883E20F481E00895843FE1F3CF
:1015900080E00895883EC0F3813FD1F7F5CF822FD8
:1015A00086958695869508956F927F928F929F92E9
:1015B000AF92BF92CF92DF92EF92FF920F931F9361
:1015C000CF93DF9384ECC82E81E0D82E9BEDE92EDB
:1015D000F12CE701C659D10936011BC0F5018590F0
:1015E0009490692DC8010E94D81F682DC8010196EA
:1015F0000E94D81F82E0A80EB11C0E5F1F4FC017BB
:10160000D10761F78EE1680E711C6E96CE15DF056D
:1016100029F08E010E5111095301E0CF7E0186E9B8
:10162000E80EF11C86E9C80ED11C83E3E81683E0BE
:10163000F80679F6DF91CF911F910F91FF90EF900F
:10164000DF90CF90BF90AF909F908F907F906F90E2
:101650000895CF93DF93CFE7D2E060E0CE010E9400
:10166000D81F2196C11584E0D807B9F7DF91CF9133
:101670000895CF93DF9300D00F92CDB7DEB790914E
:101680005802943011F589837B836A839093E90033
:101690008FEF9091E800815095FD06C095ED9A95E9
:1016A000F1F700008111F5CF8091E80085FF0DC0B2
:1016B00050E040E063E070E0CE0101960E944E03EE
:1016C0008091E8008E778093E8000F900F900F9044
:1016D000DF91CF910895BC0184E00C94390BBC01DB
:1016E00083E00C94390B9C0184E08093E9009FEF28
:1016F0008091E800915085FD06C085ED8A95F1F74F
:1017000000009111F5CF8091E80085FF0CC050E0FA
:1017100040E066E070E0C9010E944E038091E8005D
:101720008E778093E8000895CF93DF93EC0180914A
:101730000A018823B1F18091080287FF32C060E27C
:1017400084E08093E9008FEF9091E800815095FD4F
:1017500006C095ED9A95F1F700008111F5CF8091C3
:10176000E80085FF1BC080910A0170E050E040E076
:10177000811104C050E040E068E070E0CE010E94BA
:101780004E038091E8008E778093E80080E2FE01AE
:10179000A6E3B2E001900D928A95E1F7DF91CF9137
:1017A000089568E081E0CDCF81E08093E00080E2A1
:1017B0008093D8001092C9008FE19EE40197F1F761
:1017C00000C0000087E090EBDC01809369029093F9
:1017D0006A02A0936B02B0936C0288E19CE00FB6A2
:1017E000F894A895809360000FBE90936000FFCF9F
:1017F000CF93C82F882309F4AEC08238C1F40E9469
:10180000F10581FDA8C089E30E941E050E94AE0477
:101810002FEF81EE94E0215080409040E1F700C02E
:10182000000089E30E94F304CF910C94AE04833846
:10183000A1F40E94F10580FD8EC083E50E941E0583
:101840000E94AE042FEF81EE94E021508040904042
:10185000E1F700C0000083E5E5CF8438A1F40E94E1
:10186000F10582FD78C087E40E941E050E94AE0447
:101870002FEF81EE94E0215080409040E1F700C0CE
:10188000000087E4CFCF8CEF8C0F813A88F58091F0
:101890000A01882301F18091080287FF1CC0EC2F08
:1018A000E695E695E695F0E0EE59FE4F828190E0F0
:1018B0004C2F477021E030E002C0220F331F4A95C1
:1018C000E2F782239323892B79F08C2F0E94F30473
:1018D0000E94AE0409C0E4E6F1E08191C817A9F3C3
:1018E00021E0EA36F207C9F78C2F0E941E059CCF33
:1018F00080E28C0F883068F4C77021E030E001C0CE
:10190000220FCA95EAF78091F801822B8093F801A3
:101910008BCFEBE5EC0FE33040F4F0E0E55FFE4FFA
:10192000808190E0CF910C94DB05E8E5EC0FE73186
:1019300050F4F0E0EE0FFF1FE25FFE4F80819181D7
:10194000CF910C94C505CD3E30F08C2F0E94E50759
:10195000CF910C94FD05CF9108951F93CF93DF9302
:10196000182FD0E0C0E0893311F4C0E5D0E0812F1A
:101970000E94F80B209731F4812FDF91CF911F91B6
:101980000C9446078FE99FE00197F1F700C0000033
:101990002197F0CF0F931F93CF93DF93C62FD42FB0
:1019A000022FFC0182818823A1F0609364020E94CF
:1019B0009C049093630280936202C77081E001C02F
:1019C000880FCA95EAF7DF91CF911F910F910C9480
:1019D000BB0580916402681335C0809162029091CA
:1019E00063020E948D04883C910560F510E21D0F92
:1019F000CD17B9F080E28C0F883040F4C77081E0D9
:101A000001C0880FCA95EAF70E94B005183048F463
:101A100081E09D2F977001C0880F9A95EAF70E9488
:101A2000BB05802F0E94AD0C183098F4D77081E070
:101A300001C0880FDA95EAF7DF91CF911F910F91DE
:101A40000C94B005C77081E001C0880FCA95EAF711
:101A5000F3CFDF91CF911F910F910895AF92BF9275
:101A6000CF92DF92EF92FF920F931F93CF93DF936A
:101A70000CE311E0CEEFD1E0C12CD12CEE24E394A5
:101A8000F12CF80181918F01F894E82FE295EF7025
:101A9000F0E021A18F70A70102C0440F551F8A9565
:101AA000E2F7CA01922F982B91A392A180958923E6
:101AB00082A3789400C0E1E4F1E030E020E0B12CB2
:101AC000A12C4191A42FA295AF70B0E090968C917B
:101AD00090E04F7002C0959587954A95E2F780FD9A
:101AE00067C0C701022E02C0880F991F0A94E2F74F
:101AF000A82AB92A2F5F3F4F2F30310511F7F8017F
:101B0000319780810E943F0854E0C51619F080EAA1
:101B10008A95F1F788819981A816B90609F44BC016
:101B2000B982A88281E0D82AC3942296E5E0CE1239
:101B3000A8CFDD2009F441C081E0809384010E9498
:101B40009C04909383018093820180918201909103
:101B500083010E948D040697A0F18091FE0190916F
:101B6000FF019093260280932502809100029091BC
:101B700001029093280280932702809102029091A3
:101B8000030290932A02809329028091040290918B
:101B9000050290932C0280932B0280910602909173
:101BA000070290932E0280932D021092840109C0A7
:101BB00090E080E09DCF80E0B6CF809184018111DC
:101BC000C4CF8D2DDF91CF911F910F91FF90EF909A
:101BD000DF90CF90BF90AF9008956BEE7EEF90E0D6
:101BE00080E00E94F61F60E082E090E00E94D81F33
:101BF00060E083E090E00E94D81F1092FA011092FA
:101C0000FB011092FC011092FD0160E084E090E085
:101C10000E94D81F60E081E290E00E94D81F60E03F
:101C200085E090E00E94D81F60E086E090E00E948E
:101C3000D81F6FEF87E090E00E94D81F40E050E08F
:101C4000BA0188E090E00E94EA1F60E08DE090E039
:101C50000E94D81F40E050E0BA0188E190E00E9465
:101C6000EA1F60E087E190E00E94D81F40E050E06A
:101C7000BA018CE190E00E94EA1F60E080E290E00F
:101C80000E94D81F40E050E0BA0188E190E00E9435
:101C9000EA1F40E050E0BA018FE090E00E94EA1FA6
:101CA00040E050E0BA0183E190E00C94EA1F10920A
:101CB000F80180910A01E4E6F1E0882359F080916F
:101CC000080287FF07C08EE1DF011D928A95E9F7C0
:101CD0000C94240686E0F8CF1F93CF93DF93CDB703
:101CE000DEB7AA970FB6F894DEBF0FBECDBF8AE568
:101CF00092E02091F100DC012D93CD01B2E082361B
:101D00009B07B9F780915B02833009F471C0B8F486
:101D1000813009F448C0823009F4B2C08091E800F3
:101D200083FF3AC180915A0290915B029A3008F089
:101D300033C1E92FF0E0E45EFF4D0C94A91F8A3017
:101D400009F48DC08B3009F470C0893039F7809167
:101D50005A02813219F780915E0290915F020097DA
:101D600011F00297D9F68091E800877F8093E80010
:101D70008091E80082FF37C09091F3008091F200DB
:101D8000029729F48091F1008B7F813021F48091BA
:101D9000F100809335028091E8008B778093E80012
:101DA0000E947803BBCF80915A02813A09F0B6CFE6
:101DB0008091E800877F8093E80080915E02909197
:101DC0005F02892B61F460E286E392E070E00E949A
:101DD0002A048091E8008B778093E8009FCF60E031
:101DE00090E080E0F3CF809158028111C1CF96CF6F
:101DF00080915A02813A09F091CF80915E029091D0
:101E00005F02892B09F08ACF8091E800877F809359
:101E1000E8008091E80080FFFCCF80910A01809368
:101E2000F1008091E8008E77B9CF80915A0281321B
:101E300009F074CF80915E0290915F02892B09F0C6
:101E40006DCF8091E800877F8093E8000E9478033F
:101E500080915C0280930A010E94570E5FCF8091AF
:101E60005A02813209F05ACF8091E800877F80932F
:101E7000E8000E94780380915D02809334024ECF87
:101E800080915A02813A09F049CF8091E800877F1A
:101E90008093E8008091E80080FFFCCF80913402BD
:101EA000BECF803899F0823809F076C080915E020A
:101EB0008F70873008F070C08093E9008091EB004C
:101EC00085FB882780F91092E90006C080915602B0
:101ED00090915702911182609091E800977F9093C2
:101EE000E8008093F1001092F1008091E8008E7775
:101EF000B5C1882309F4A2C1823009F04DC0809198
:101F00005C028111A6C180915E028F702FEF280FB5
:101F1000263008F041C08093E9002091EB0020FFBB
:101F200098C1933031F48091EB0080628093EB0094
:101F300090C19091EB0090619093EB0021E030E034
:101F400001C0220F8A95EAF72093EA001092EA0076
:101F50008091EB008860EACF81111EC010915C0275
:101F60001F778091E3008078812B8093E30080913C
:101F7000E800877F8093E8000E9478038091E80062
:101F800080FFFCCF8091E30080688093E30082E0D3
:101F9000111183E0809358028091E80083FF0AC00A
:101FA0008091E800877F8093E8008091EB00806259
:101FB0008093EB00AA960FB6F894DEBF0FBECDBF9C
:101FC000DF91CF911F9108958058823028F720919A
:101FD0005C0230915D022C3DE3E03E07A1F583E019
:101FE0008A838AE289834FB7F894DE01139620E052
:101FF0003EE051E2E32FF0E050935700E49120FFE0
:1020000003C0E295EF703F5FEF708E2F90E0EA30F3
:10201000C0F0C7968D939D932F5F243159F74FBF22
:102020008091E800877F8093E8006AE270E0CE014B
:1020300001960E942A048091E8008B778093E80043
:10204000ABCFC096E7CF80915E0290915F02432FA5
:1020500055274330510509F44AC078F54130510500
:1020600009F47AC08BE590E0ECECF4E042305105E5
:1020700009F092CF2091E800277F2093E80020917B
:102080006002309161028217930708F49C0140E0DE
:102090002115310509F065C0411163C08091E80048
:1020A00082FDC9CF80915802882329F2853019F228
:1020B0008091E80083FFF2CFBECF4132510509F491
:1020C0003CC04232510509F067CF8330910508F0DA
:1020D00063CFFC01EE0FFF1FED5AFE4F0190F08120
:1020E000E02D805B9E4FDC018C9190E01AC033277D
:1020F00021303105D1F02115310561F02230310553
:1021000009F04ACFE9E3F5E0E4918E2F90E0E9E3AE
:10211000F5E007C0E5E6F5E0E4918E2F90E0E5E616
:10212000F5E0009709F438CFA5CFE9E5F5E0E491B3
:102130008E2F90E0E9E5F5E0F4CF8330910508F0CB
:102140002BCF880F991FFC01E75AFE4F0190F081B9
:10215000E02D89E090E08ECF82E190E0E7E2F5E0CB
:1021600089CF80915802882309F465CF853009F41E
:1021700062CF8091E80083FD5ECF8091E80082FD10
:102180008DCF8091E80080FF83CF9091F300809104
:10219000F2002115310519F08830910550F041E029
:1021A000089709F040E08091E8008E778093E8007E
:1021B0006FCF44914093F10031962150310901963F
:1021C000E8CF803809F0E8CE8091E800877F8093DF
:1021D000E800809159028093F10087CE8111DCCE16
:1021E00010915C02123008F0D7CE8091E800877F12
:1021F0008093E800109359020E947803112311F094
:1022000084E005C08091E30087FDFACF81E08093F0
:10221000580242E061EC81E00E94970342E261ECE7
:1022200084E00E94970342E261EC82E00E949703FF
:1022300042E260EC83E00E949703AECE80915C02A4
:10224000813009F0A9CE81E0933009F080E08093DD
:1022500057021092E9008091E800877F8093E800A0
:102260000E94780399CE3F924F925F926F927F9235
:102270008F929F92AF92BF92CF92DF92EF92FF9296
:102280000F931F93CF93DF9300D000D00F92CDB761
:10229000DEB78C01FC0183819481892B31F0808130
:1022A000918189238F3F09F078C50F900F900F908F
:1022B0000F900F90DF91CF911F910F91FF90EF90B2
:1022C000DF90CF90BF90AF909F908F907F906F9056
:1022D0005F904F903F9008950E94640AF82E682FF7
:1022E00089819A810E947A0569817A818F2D0E9465
:1022F000CD087C01F8018281882309F441C597014A
:1023000022513F452031310508F00DC58FEF93E094
:102310000E94CA1FFEEEEF0E5FE7852E52E0952E5B
:10232000882381F18091F501877009F4BECFF8010F
:102330008281882309F4B9CF82E00F900F900F902B
:102340000F900F90DF91CF911F910F91FF90EF9021
:10235000DF90CF90BF90AF909F908F907F906F90C5
:102360005F904F903F900C948A06811424E092066F
:10237000C9F2C4010E94CA1F811101C0EA943FEF53
:10238000831A930AE110F1CF1C821B8244244394E8
:102390004AE0342E74018FEFE81AF80AC4010E9453
:1023A000CA1F89831A82882309F4BCCF9FEF980F34
:1023B000933000F58A83498292E0890E911CC7010F
:1023C0000E94CA1F8B83882309F4ACCFFE0131968B
:1023D0007F01F70120812223E9F2213009F049C071
:1023E00091818281913041F4F2E0EF0EF11C0E9464
:1023F000AD0C09C04701EACF923049F422E0E20E69
:10240000F11C0E94F80B3FEFE31AF30AE2CF93307E
:1024100031F432E0E30EF11C0E944607F4CF943011
:1024200021F08FEFE81AF80AEECF92E0E90EF11CE6
:1024300030E020E0B7016F5F7F4FF70141818053AB
:10244000990B8A30910550F021503109E0F28FE963
:102450009FE00197F1F700C00000F6CF329EF00137
:10246000339EF00D11249C012E0F3F1F842F7B0102
:10247000E1CFE22FF0E0E45BFB4F5490822F869592
:102480008695869590E0FC01E45CFB4F6490277094
:10249000712C022E02C0759467940A94E2F7E1E071
:1024A0006E227724FC01E45DFB4FA490B12C022E38
:1024B00002C0B594A7940A94E2F7F1E0AF22BB24DE
:1024C000FC01E45EFB4FC490D12C02C0D594C794AC
:1024D0002A95E2F721E0C222DD246114710419F08B
:1024E00081EE0E94F80BA114B10419F086EE0E944F
:1024F000F80B852D0E94AD0CAB2819F086EE0E94DA
:102500004607672819F081EE0E944607CD2809F496
:102510007ACF8CE26CCF81E00E94A2060E944B062B
:1025200001CF81E00E946706F9CF82E0F5CF96EFF8
:10253000E9169CE5F90609F46AC008F464C027E2CC
:1025400045EE66EEF7EFEF16FCE5FF0609F414C45E
:10255000882309F433C41092640222E0E2162CE5C9
:10256000F20608F44CC136E1E3163CE5F30638F018
:1025700097012B5F3C452930310508F040C10E948E
:102580009908909309028093080280E1E8168CE58F
:10259000F80609F403C108F083C0E8E0EE16ECE5A4
:1025A000FE0609F4EDC008F04FC024E0E2162CE569
:1025B000F20609F4DDC090F582E0E8168CE5F80635
:1025C00009F4D0C080910802826093E0E9169CE58E
:1025D000F90609F4CAC060910802F090090284E08B
:1025E00090E00E94D81F6F2D81E290E00E94D81FDA
:1025F0000E94570E97CE27E245EE65EEBDC326E258
:1026000041EE60EEB9C327E245EE64EEB5C326E2C3
:1026100041EE62EEB1C328E241E0EFCF80910802C3
:102620008061E6E0EE16ECE5FE0609F49EC08091BE
:1026300008028860F7E0EF16FCE5FF0608F495C095
:1026400080910802806291C0809108028D7F2CE009
:10265000E2162CE5F20609F488C060F48AE0E81678
:102660008CE5F80609F496C008F48EC08091080243
:102670008E7F7BC080910802877FEEE0EE16ECE54E
:10268000FE0609F472C0809108028B7FFFE0EF160E
:10269000FCE5FF0608F469C0809108028F7E65C0E2
:1026A0002CEFE2162CE5F20609F466C068F583E12A
:1026B000E8168CE5F80609F479C090F4E1E1EE162D
:1026C000ECE5FE0609F46EC0F2E1EF16FCE5FF064C
:1026D00009F081CF0E94570E809108028F7745C084
:1026E00025E1E2162CE5F20609F468C008F47CC086
:1026F0008BEFE8168CE5F80609F06DCF80910902A2
:1027000081608093090267CFE1149DE5F90609F421
:1027100051C0A0F4809109028D7FFEEFEF16FCE519
:10272000FF0679F3809109028E7F2FEFE2162CE5E8
:10273000F20638F3809109028360E3CF32E0E316BA
:102740003DE5F30609F459C008F444C060E093E0A5
:10275000E9169DE5F90609F03ECF8EE090E00E9473
:10276000D81F39CF8091080281608093080233CF4F
:10277000809108028460F9CF809109028260C1CF04
:10278000809108028064F1CF0E94570E8091080268
:102790008068EBCF809108028C60E7CF80910802BF
:1027A0008F7DE3CF809108028F7BDFCF809108027D
:1027B000837FDBCF809109028C7FA3CF80910802B9
:1027C00082FB992790F921E0922790FB82F990FBF8
:1027D00083F9CBCF80910902982F909591708E7FCD
:1027E000892B90FB81F98DCF0E94570E90910802A2
:1027F000892F97FB87F98058B8CF61E0AECFE6E12B
:10280000EE16ECE5FE0609F0E6C28091F8018A7A40
:1028100091E009F490E090938901811106C089E26A
:102820000E941E050E94AE047DCD85E3F9CF85E3AD
:10283000CFC20E94570EFFEF24E33CE0F15020404E
:102840003040E1F700C000000E94D40B0E94ED0D63
:1028500069CDC7010E945205D82ED6C22F2D2F70E8
:10286000A22E8F2D807F19F0A29490EFA922DD2057
:10287000C9F0AA2069F080E28E0D883010F0811036
:102880000BC08091F801A82AA092F8010E94AE0422
:102890008E2D0E94F80B19C08091F701A82AA092F2
:1028A000F701F4CF8E2D0E944607AA2071F0A09464
:1028B00080E28E0D883010F081103DC08091F801CB
:1028C000A822A092F8010E94AE04232D2850330BB9
:1028D0002430310510F40E94F105CC2009F4E5CC38
:1028E0008091F50180FDE1CCF801128285958595F6
:1028F00085950E94A206C8010E9433118091F501BE
:102900008595859585950F900F900F900F900F905E
:10291000DF91CF911F910F91FF90EF90DF90CF90BB
:10292000BF90AF909F908F907F906F905F904F90EF
:102930003F900C9467068091F701A822A092F701BE
:10294000C2CF3F2D3F70932E8F2D807F803219F0A4
:10295000929480EF9822882071F081E0881661F1CE
:10296000DD20B9F1AA2071F1F801858180FF90CFB7
:102970008F70858327C0DD2091F09091F901892D1A
:10298000892BA11003C00E94BB059FCFE1E0AE12CE
:10299000FACF981709F499CF8093F90196CFA11037
:1029A00006C00E94A804892D0E94B0058ECFF1E0D8
:1029B000AF1609F48ACFF5CFDD2031F025E02A15D6
:1029C00008F483CF892DDFCF34E03A1508F47DCFAA
:1029D000EACFAA2041F3F9E38F1209C02FEF37EEB7
:1029E00083E0215030408040E1F700C000008E2D90
:1029F0000E9446076ACF8F2D86958695837061F079
:102A0000813009F062CFC7019370D11002C090E00D
:102A100080E00E94C50559CFC7019370D11002C054
:102A200090E080E00E94DB0550CF8E2DDD2029F064
:102A30000E94E5070E94FD0548CF0E94CD06FACF0F
:102A40008F2D837009F066C0D1103FCF8E2D8295F7
:102A500086958770880F880F6E2D6F70462E512CCB
:102A6000712C612C082E04C0440C551C661C771C6C
:102A70000A94D2F740E050E0BA01E4FE0FC04FE004
:102A800050E060E070E004C0440F551F661F771FE0
:102A90008A95D2F740955095609570958F2D8695C3
:102AA00086958370823019F1D8F48090FA01909065
:102AB000FB01A090FC01B090FD01813069F0442938
:102AC000552966297729CB01BA01682179218A2104
:102AD0009B210E94C306F9CE482859286A287B28E2
:102AE000CB01BA016429752986299729F2CF442997
:102AF0005529662977294090FA015090FB01609092
:102B0000FC017090FD01CB01BA0164257525862575
:102B10009725DFCF8695DD2011F08F2D81708823DA
:102B200009F4D3CE8E2D829586958770880F880FF5
:102B30006E2D6F70462E512C712C612C082E04C006
:102B4000440C551C661C771C0A94D2F740E050E0F8
:102B5000BA01E4FE0FC04FE050E060E070E004C056
:102B6000440F551F661F771F8A95D2F740955095E1
:102B7000609570958F2D869586958370823019F1BA
:102B8000D8F48090650290906602A0906702B090A1
:102B90006802813069F04429552966297729CB01DB
:102BA000BA01682179218A219B210E9441068DCE9C
:102BB000482859286A287B28CB01BA01642975293D
:102BC00086299729F2CF44295529662977294090EB
:102BD0006502509066026090670270906802CB01B7
:102BE000BA016425752586259725DFCF9F2D9F7017
:102BF000F92EDD2029F0892F0E94A2068E2DC3CE4A
:102C00008E2D0E94B0058F2D0E9467065ECE8E2D00
:102C1000E2EF8E1609F453C0E81578F0F0EF8F1646
:102C200029F121EF821609F442C0DD2009F46BC0BE
:102C3000A1102ECE8F2D8F713FC033EF831609F474
:102C400043C094EF8912F1CFDD2009F451C02F2D3C
:102C50002F71F22E822F0E94A20638E0F39EC0014F
:102C6000112483608093F5018F2D26C0DD20D1F0E3
:102C7000E4E0EA1508F429CE2F2D2F7161E070E011
:102C800080E090E004C0660F771F881F991F2A9587
:102C9000D2F7409065025090660260906702709093
:102CA00068029FCFF5E0FA1508F40FCEE5CF8F2D1F
:102CB0008F71DD2009F4A8CF0E94A20606CE8F2DC9
:102CC0008F71DD20C9F3A0CF60E070E0CB01DD2083
:102CD00009F46BCF2F2D2F7161E070E080E090E060
:102CE00004C0660F771F881F991F2A95D2F75DCF02
:102CF00081E00E948A0681E08A1508F0E6CD82E034
:102D00000E948A06E2CDAA2059F0893309F06FCEDD
:102D10009FEFE7EEF3E09150E040F040E1F765CE41
:102D20008F2D8F7171CFF0E1EF16FFE5FF0609F4EB
:102D3000F2CB21E1E2162FE5F20609F4F6CB94EF8F
:102D4000E9169CE5F90609F45ACC08F0F0CBF9ED48
:102D5000EF16FCE5FF0609F44ECC2AEDE2162CE551
:102D6000F20609F458CC38EDE3163CE5F30609F019
:102D7000EFCB26E241EE61EEC8010E94CA0CD2CA36
:102D800030E1E3163FE5F30609F4CBCB91E1E91618
:102D90009FE5F906A1F682E0C5CB85E0DE0111963C
:102DA00001900D928A95E1F7F801228189819A813B
:102DB000211192CA0E945205F82E96CAF6E1EF162A
:102DC000FCE5FF0699F480918901811130CD89E2FB
:102DD0000E94F30427CDE1142CE5F20609F429CD75
:102DE0003FEDE3163CE5F30609F430CDF801E08051
:102DF000F180882309F42DCDC7010E94640AD82EE2
:102E0000682FC7010E947A05B7018D2D0E94DA084C
:102E10007C01882EF801D280A580A2943FE0A322F5
:102E20008091F5018770A1F0CD2CDD2091F08F2DE0
:102E3000807F803421F080E28E0D883048F082E07F
:102E40000E948A068091F5018770CC24C394811179
:102E5000C12C3F2C32942FE03222FBE0F31508F412
:102E600034CDE32DF0E0EA5DFF4D0C94A91F1F93D4
:102E7000CF93DF9380919001807FA9F480918D01A1
:102E8000882389F08091C201D091910160918B01DA
:102E900070918C01A0918E01B0918F01C62FC72334
:102EA00016E0D81304C0DF91CF911F91089590E0F0
:102EB000109711F0CF3F19F401968770F2CF189F49
:102EC0009001199F300D1124F901EE56FE4F4181FA
:102ED0004713F2CF40814613EFCF42814111ECCF2F
:102EE000438154814A1B5B0B483C510528F7809174
:102EF00090018F70806180939001F901E956FE4F37
:102F000080818F70806180838BE891E00E94331113
:102F1000DF91CF911F910C94A605AF92BF92CF92F3
:102F2000DF92EF92FF920F931F93CF93DF93CDB772
:102F3000DEB761970FB6F894DEBF0FBECDBF8C0130
:102F400085E0F801DE011D9601900D928A95E1F76A
:102F5000F80180819181E2802BE8A22E21E0B22E3F
:102F600060918E0170918F016115710509F43EC168
:102F700030918B0140918C01232F24232F3F09F4A2
:102F800035C1C380D480F0908D01F601E61BF70BAC
:102F9000FF2009F4FBC020919001522F507FE83CA4
:102FA000F10508F0BBC0511178C0FE2C491321C0B7
:102FB00038131FC0E1101DC02F70206120939001B5
:102FC000C5010E94331180919001F80185838F2DF6
:102FD00061960FB6F894DEBF0FBECDBFDF91CF91E3
:102FE0001F910F91FF90EF90DF90CF90BF90AF9027
:102FF0000895CD2829F0282F29232F3F09F014C147
:1030000020E0F22FF170DF2E20FF3DC02091C201A1
:103010004091910156E0241315C08D879E878D85C0
:103020009E850E94A60A292F22952F702230F8F043
:10303000243020F59F70F9F0F8019581907FD9F444
:10304000D12C1FC030E0529FF001539FF00D11248E
:10305000EE56FE4F6181961306C06081861303C051
:103060006281E61210C02F5F3F4F2770D4CF9F7050
:1030700011F0882329F3805E883010F3C8010E9484
:103080003311FD2CA4CFEE2009F4A1CF8091900143
:10309000816080939001F12C9ACF491312C03813AC
:1030A00010C0E1100EC0F8012583C8010E94331141
:1030B00086E0F801ABE8B1E001900D928A95E1F766
:1030C00086CF8D879E878D859E850E94B00A882336
:1030D00009F1EE20F9F080919001803270F020919A
:1030E0008B0130918C0138872F831986DB86CA8645
:1030F0008C87CE0107960E94331186E0F801ABE879
:10310000B1E001900D928A95E1F70E943717FF24F4
:10311000F3945DCFC8010E943311F9CF51110AC059
:103120008BE891E00E94331186E0F50111928A95B7
:10313000E9F7B1CF49130FC038130DC0E1100BC030
:10314000F8012583C8010E94331186E0F501119230
:103150008A95E9F73CCF8D879E878D859E850E9455
:10316000B00A8823B9F2EE20A9F280919001803252
:1031700020F220918B0130918C013A8329831B82AC
:10318000DD82CC828E83CE010196B5CFE83CF1057D
:10319000E0F6FE2CEE2009F4BDCF491316C038131B
:1031A00014C08091900180FD83CF982F907F09F407
:1031B0007FCFF8018583903F09F477CF982F907FD8
:1031C000905F8F70892B858370CF8D879E878D85CB
:1031D0009E850E94B00A811190CF809190018160FC
:1031E00080939001C8010E943311F1CEEE2009F4C2
:1031F00091CF8D879E878D859E850E94B00AF82E7F
:10320000882309F487CF86E0F801ABE8B1E00190AC
:103210000D928A95E1F780918B0190918C010E942B
:10322000A60A0E943717D3CE21E02E25EACE1F939F
:10323000CF93DF93CDB7DEB767970FB6F894DEBFB5
:103240000FBECDBF342F4B8B252F5C8B6D8B7E8BB0
:103250008F8B8E899F8961111092F7011A8A198AC2
:103260003D872E876F87998B888B86E0FE013D9680
:10327000DE01179601900D928A95E1F7CE0107962F
:103280000E948D17882389F016E08091C2019091E9
:103290009101891349C067960FB6F894DEBF0FBE3F
:1032A000CDBFDF91CF911F91089586E0FE01379643
:1032B000DE01119601900D928A95E1F78A859B8532
:1032C000892B11F38F81988589238F3FE9F2209113
:1032D000910130E0C9010196877099274091C201A0
:1032E0004817190671F40E94570E1092910110921E
:1032F000C20186E0EBE8F1E0DF011D928A95E9F773
:10330000C3CF96E0929FD001939FB00D1124AE568B
:10331000BE4FFE01319601900D929A95E1F7809390
:1033200091010E94A605B0CF819FC00111248E5645
:103330009E4F0E948D17882309F4ADCF8091C20162
:1033400090E00196877099278093C2019ECF1F92CB
:103350000F920FB60F9211242F933F934F935F93C9
:103360006F937F938F939F93AF93BF93CF93DF938D
:10337000EF93FF93D091E900DF708091EC00C82FAC
:10338000C17080FDC0E81092E9008091F000877F55
:103390008093F00078940E946C0E1092E900809166
:1033A000F00088608093F000CD2BCF70C093E900CF
:1033B000FF91EF91DF91CF91BF91AF919F918F914D
:1033C0007F916F915F914F913F912F910F900FBE21
:1033D0000F901F9018951F920F920FB60F92112405
:1033E0002F933F934F935F936F937F938F939F930D
:1033F000AF93BF93EF93FF938091E10082FF09C0E9
:103400008091E20082FF05C08091E1008B7F809374
:10341000E1008091DA0080FF24C08091D80080FF15
:1034200020C08091DA008E7F8093DA008091D900ED
:1034300080FF9BC080E189BD82E189BD09B400FEA7
:10344000FDCF81E08093580280913302811109C041
:103450000E94FE020E94C9038091E2008460809372
:10346000E2008091E10080FF17C08091E20080FFC0
:1034700013C08091E2008E7F8093E2008091E20091
:1034800080618093E2008091D80080628093D800B0
:1034900019BC85E0809358028091E10084FF29C027
:1034A0008091E20084FF25C080E189BD82E189BD71
:1034B00089B5982F917080FFFBCF8091D8008F7DC8
:1034C0008093D8008091E1008F7E8093E10080910D
:1034D000E2008F7E8093E2008091E2008160809321
:1034E000E20080915902882309F445C084E080936A
:1034F00058028091E10083FF27C08091E20083FFA2
:1035000023C08091E100877F8093E10082E0809377
:103510005802109259028091E1008E7F8093E10061
:103520008091E2008E7F8093E2008091E2008061D2
:103530008093E20042E060E080E00E949703809187
:10354000F00088608093F000FF91EF91BF91AF9100
:103550009F918F917F916F915F914F913F912F91AB
:103560000F900FBE0F901F90189519BC1092580223
:103570001092330276CF8091E30087FD93E0909321
:103580005802B7CFCDB7DEB7AA970FB6F894DEBF13
:103590000FBECDBF84B7877F84BF0FB6F894A895C0
:1035A00080916000886180936000109260000FBE7F
:1035B00080E890E00FB6F8948093610090936100EA
:1035C0000FBE85B7806885BF85B7806885BF88E8EE
:1035D00094E090936101809360010E94FE020E943A
:1035E000C9038091E20084608093E2007894809126
:1035F00058028823A1F01091E9001F709091EC000F
:10360000892F817090FD80E8182B1092E90080913D
:10361000E80083FD0E946C0E1F701093E90082E0A9
:1036200084BD93E095BD9AEF97BD80936E0084E9C9
:103630000E943F0885E90E943F0883E90E943F08F5
:1036400085E30E943F0884EF0E943F0801E411E0F7
:10365000F0E5EF2EF1E0FF2EF80181918F010E943D
:103660003F08E016F106C1F71092FF011092FE012B
:10367000109226021092250210920102109200026E
:103680001092280210922702109203021092020256
:1036900010922A021092290210920502109204023E
:1036A00010922C0210922B02109207021092060226
:1036B00010922E0210922D020E942E0D8FE39CE993
:1036C0000197F1F700C000000E942E0D80912502A5
:1036D00080FF17C06FEF82E290E00E94D81F6FEF6B
:1036E00083E290E00E94D81F6FEF84E290E00E9496
:1036F000D81F6FEF7FEF90E080E00E94F61F0E94DE
:10370000D40B90E080E00E94D21F8B3E9E4F11F0C0
:103710000E94ED0D82E290E00E94CA1F813209F002
:1037200091C383E290E00E94CA1F833009F08AC3EC
:1037300084E290E00E94CA1F803109F083C390E0C8
:1037400080E00E94D21F8B3E9E4F11F00E94ED0D33
:1037500082E090E00E94CA1F80931A020E9499089A
:10376000909309028093080283E090E00E94CA1FB0
:10377000682F70E090E080E00E94C30680E091E056
:1037800090930B0280930A0258E1E52EF12C60E43D
:10379000A62E7FE2C72E72E0D72EE0E1BE2E8091EA
:1037A000580212E1853009F47BC10E942E0D882356
:1037B00059F08FB7F89440912F02509130026091E8
:1037C0003102709132028FBFA5E2B2E0EBE1F2E08C
:1037D00010E000E0702F8D919D912191319128177B
:1037E000390709F46DC12827392760E088248394BC
:1037F000912CA90148215921452B09F45BC169A3EA
:103800007AA39C012821392191E0232B09F490E02F
:103810009BA30E949C048160782F9DA38CA349A147
:103820005AA16BA18DA10E941719000F111FF80159
:10383000E55EFD4F80819181882699269182808264
:1038400086E0E3E1F2E0DE01119601900D928A95A7
:10385000E1F79090150280901602109117020091E6
:10386000180210921502109216021092170210926E
:103870001802892D882909F448C08091110290917D
:1038800012020E948D049C0190911002992309F468
:10389000FCC223333105C8F19F3F19F09F5F90931D
:1038A0001002992059F00E94C5079FEF19140CF4DB
:1038B00091E0899F802D112480931502882059F072
:1038C0000E94C5079FEF18140CF491E0899F802D8A
:1038D000112480931602309115023323B1F0209108
:1038E0001602222391F045EB3403C00111249923E1
:1038F00009F4FDC09093150245EB240390011124B7
:10390000332309F4F8C030931602812F802B09F479
:1039100048C080910E0290910F020E948D049C017C
:1039200090910D02992309F4ABC225363105C8F1F7
:103930009F3F19F09F5F90930D02112359F00E9451
:10394000A3079FEF11160CF491E0899F802D11249D
:1039500080931702002359F00E94A3079FEF1016CF
:103960000CF491E0899F802D1124809318023091EE
:1039700017023323B1F020911802222391F045EB76
:103980003403C0011124992309F4B9C0909317029C
:1039900045EB240390011124332309F4B4C0309380
:1039A00018028091150290911602892B90911702AE
:1039B000892B90911802892B11F00E94FD0586E059
:1039C000FE013196A3E1B2E001900D928A95E1F7F4
:1039D0000E94F10590911902891721F00E94F105CA
:1039E0008093190280915802843009F0D8CE83E088
:1039F0008093E9008091E80082FFD1CE8091E800B9
:103A000090E085FF06C00E941D03882309F47FC053
:103A100091E08091E8008B778093E800992309F486
:103A2000BECEE981E150E33108F030C1F0E0EE5C58
:103A3000FF4D0C94A91F80915802843009F1109217
:103A40000C020FB6F894A895E09260000FBEA09209
:103A5000600083B7817F846083BF83B7816083BF49
:103A60007894889583B78E7F83BF0FB6F894A89516
:103A700080916000886180936000109260000FBEAA
:103A800080915702882361F00E942E0DE5E2F2E05A
:103A900081919191892B09F0BFC1CE16DF06C1F744
:103AA00080915802853009F4C6CF0E94570E0E94BB
:103AB000F1057BCE6F5F880C991C6F3009F099CEB1
:103AC0000F5F1F4F0530110509F084CE8FEF8EA3D5
:103AD0008FA318A60E949C048160782F9AA789A7BB
:103AE0004EA15FA168A58AA50E941719A9CE81E001
:103AF0008093150201CF81E08093160206CF81E00A
:103B00008093170245CF81E0809318024ACF00E2EC
:103B100010E0CE0101964C018091E80085FD0AC0BD
:103B20008091E8008B778093E8000E941D03882332
:103B300099F36ECF8091F100F40181934F01015010
:103B4000110951F765CF1A8289E08B8332C08A81CF
:103B50008230C1F0833009F453C0813009F096C03F
:103B60002FB7F89460912F0270913002809131024A
:103B7000909132022FBF0E94AF1F6B837C838D8395
:103B80009E8317C085E290E00E94CA1F90E0B0E0DB
:103B9000A0E04424582E692E7A2E86E290E00E94FE
:103BA000CA1F1B821C82482A5424452454245E8246
:103BB0004D8280915802843009F0F1CD1091E900D6
:103BC0001F709091EC00892F817090FD80E8182B78
:103BD00082E08093E9008091E80080FF0DC050E012
:103BE00040E060E270E0CE0101960E944E038091B9
:103BF000E8008E778093E8001F701093E900CFCD26
:103C000080912502909126029827892798279C83E6
:103C10008B838091270290912802982789279827E3
:103C20009E838D838091290290912A02982789276B
:103C3000982798878F8380912B0290912C02982748
:103C4000892798279A87898780912D0290912E0243
:103C50009827892798279C878B87ABCF8A818230CA
:103C6000A9F46B817C818D819E810E94AF1F2B0105
:103C70003C0186E290E00E94D81F9927872D762D7F
:103C8000652D85E290E00E94D81F93CF8FEF898346
:103C900090CF4C816B818A810E94A7089827892741
:103CA00098279E838D8385CF8D809E80982489243C
:103CB00098248A810B81FEE10F9F8001112426E95F
:103CC000829F000D111D11248C8190E0880F991F97
:103CD000080F191F692DC80187960E94D81F682DEB
:103CE000C8018896D0CF0E94D40A63CFBA8261CF30
:103CF00081E08A8381E829CF0A811B81102701276F
:103D00001027CE0101963C018C80FC01E80DF11DCD
:103D10004F01C80181589D4F6814790409F449CFB7
:103D20000138F1E01F0750F40E94CA1FF301848399
:103D30000F5F1F4FFFEF6F1A7F0AEBCFF301148263
:103D4000F7CF0A811B81102701271027CE0101968A
:103D50003C018C80800E912E911CC80181589D4F92
:103D60000815190509F425CF0138E1E01E0720F4F4
:103D7000F30164810E94D81FFFEF6F1A7F0A0F5F63
:103D80001F4FEBCF0E94290B14CF84E08A8311CF01
:103D90000A811B81102701271027CE0101963C01C3
:103DA0008C80FC01E80DF11D4F01C8018796681455
:103DB000790409F4FECE0835F2E01F0750F40E94A2
:103DC000CA1FF30184830F5F1F4FFFEF6F1A7F0A33
:103DD000ECCFF3011482F7CF0A811B811027012752
:103DE0001027CE0101963C018C80800E912E911CF3
:103DF000C80187968016910609F4DBCE0835E2E00B
:103E00001E0720F4F30164810E94D81FFFEF6F1A90
:103E10007F0A0F5F1F4FECCFB9BC19BD09B400FE7C
:103E2000FDCF8091D8008F7D8093D8008091E000F5
:103E300082608093E0008091E00081FDFCCF0E94D1
:103E4000570E2ECE60E086E290E00E94D81F60E020
:103E500085E290E00E94D81F0E94D40A0E94290B9C
:103E600061E282E290E00E94D81F63E083E290E08A
:103E70000E94D81F60E184E290E00E94D81F5FCCCE
:103E80002D32314008F056CD8CCD2D32314008F026
:103E900005CD3BCD78941F921FB61F9211248F93AE
:103EA0009F93AF93BF9380912F0290913002A09186
:103EB0003102B09132020196A11DB11D80932F02F3
:103EC00090933002A0933102B0933202BF91AF9130
:103ED0009F918F911F901FBE1F9018951F921FB624
:103EE0001F9211248F939F93AF93BF9380910C02E5
:103EF000811113C080912F0290913002A091310264
:103F0000B09132024196A11DB11D80932F02909372
:103F10003002A0933102B0933202BF91AF919F91D2
:103F20008F911F901FBE1F90189597FB072E16F4B8
:103F3000009407D077FD09D00E94B61F07FC05D07A
:103F40003EF4909581959F4F0895709561957F4FB0
:103F50000895EE0FFF1F0590F491E02D0994692755
:103F6000962769277827872778270895AA1BBB1BE0
:103F700051E107C0AA1FBB1FA617B70710F0A61B69
:103F8000B70B881F991F5A95A9F780959095BC018A
:103F9000CD010895F999FECF92BD81BDF89A992778
:103FA00080B50895A8E1B0E042E050E00C94FE1F17
:103FB000262FF999FECF92BD81BDF89A019700B4E2
:103FC000021639F01FBA20BD0FB6F894FA9AF99A82
:103FD0000FBE08950396272F0E94D91F0E94D81F55
:103FE000252F0E94D91F242F0C94D91F0196272F0B
:103FF0000E94D91F0C94D81FDC01CB01FC01F99958
:10400000FECF06C0F2BDE1BDF89A319600B40D9224
:1040100041505040B8F70895F894FFCFBF0ABF0A47
:10402000C80AC80ACA0AC80AC80AC80ABF0ABF0A10
:10403000CF0AC80AC80ACF0A510F790FCC0F790FDF
:10404000CC0FAC0FE40FCC0FE110EE102E142E1499
:10405000A114A114FB141515651465142015F6158B
:1040600007160716A31DA71D2E1E491E541E731EDC
:10407000461E461E461E461E461E761E781E7C1E88
:0A408000A11EC21EC51EC81EEC1EC4
:10408A008A04940B730B6F0B6B0B01818283E20022
:10409A00E900EA00B500B600B700CD008301CC0004
:1040AA008A01920194012102230224022502260296
:1040BA0027022A02B300B4006F007000949593356A
:1040CA00F43791903031C632339297343666679618
:1040DA004022B684016201AC00DE04F70417050031
:00000001FF
