:100000000C94CB030C9403040C9403040C9403048D
:100010000C9403040C9403040C9403040C94030444
:100020000C9403040C9403040C947B2D0C94372D36
:100030000C94782E0C9403040C9403040C94030485
:100040000C9403040C9403040C9403040C94030414
:100050000C9403040C94542E0C9403040C94030489
:100060000C9403040C9403040C9403040C940304F4
:100070000C9403040C9403040C9403040C940304E4
:100080000C9403040C9403040C9403040C940304D4
:100090000C9403040C9403040C9403040C940304C4
:1000A0000C9403040C9403040C940304050109024A
:1000B000A10185020901A100050919012905150001
:1000C00025019505750181029501750381010501E1
:1000D000093009311581257F950275088106093897
:1000E0001581257F950175088106050C0A380215D2
:1000F00081257F950175088106C0C005010980A191
:1001000001850319012AB700150126B7009501756D
:10011000108100C0050C0901A101850419012AA064
:1001200002150126A002950175108100C005010984
:1001300006A1018506050719E029E71500250195A7
:1001400008750181020507190029EF1500250195A1
:10015000F0750181020508190129059505750191C0
:1001600002950175039101C00660FF0961A10109B3
:1001700062150026FF0095207508810209631500AD
:1001800026FF00952075089102C005010906A1010E
:10019000050719E029E71500250195087501810279
:1001A0009501750881010507190029FF150026FF33
:1001B0000095067508810005081901290595057542
:1001C000019102950175039101C00000000000003B
:1001D000000000000000000000000000000000001F
:1001E00000000000000000000000000000007E0F82
:1001F00000D4FFFFFFC700000078000000000000EF
:1002000000002A2B28000000000000000000000071
:10021000000000000029000000002C1E34202122D4
:1002200024342627252E362D3738271E1F2021223D
:10023000232425263333362E37381F0405060708B6
:10024000090A0B0C0D0E0F101112131415161718A6
:10025000191A1B1C1D2F3130232D350405060708E4
:10026000090A0B0C0D0E0F10111213141516171886
:10027000191A1B1C1D2F3130354CFD377A585A0086
:100280000004E6D6B4460200210116000000742FD7
:10029000E5A3E0066901FB5D003D8889C65436C3CD
:1002A000174FE4EFAD232B2989BFC77627B2EA7A2F
:1002B0004686CE44DA4C4B7047F6BE21A652DC94FB
:1002C00098B9B11097BF4317637E2469EA2309598F
:1002D000BF4AA0E5490153F1B4C48F8982B8CDC1AA
:1002E00034EC56FBDE4C81843D38D9EEDCEF4458CB
:1002F0002CE83F41AA14026A935F0E3AD96BA5E538
:10030000CF140CE2EF7750BEF73EAFFE604F87B7D9
:1003100007E0F02DA6402F9F49DA77A26CFA651E00
:100320000AEC0B2C15EEDBCC22A39FFC63E8B06A31
:1003300035E815D5F3A250070AB7A0B9E5073EAFD7
:10034000A6DD59534F2FAC53242F06665B7D6A1FE1
:10035000347FFC3B591D988A716430C14359370979
:10036000E42FD5F0642F58280963368FED50190417
:10037000C5CC583CED01088846C6AC093822F40EBD
:100380009DB6C732051BB030C701AFA3A7203AF511
:10039000C629440278F06EA64CF9417A6B5D11FCD7
:1003A000474B6A23E209C5D82879B76C20713F5FB3
:1003B0008CE70D53C7C1D033A9C10B2F8E197BCB4E
:1003C000CC371648CC87C9EFF9FCFEB0A5241F7FB7
:1003D00020234427A9FC8FECDBF8DFC0BD3C6FC2B3
:1003E000411AC8B0E86530DFC86AE3CE7CA5C1A079
:1003F000264FEFEE93C41F2E113241C97D25247B79
:1004000005C081ADE17FBFB64D4DD58AD0029E7D3E
:100410008EAF5D3353E64A525415CFD94D45D28540
:10042000CB430CD44BC8A87D084059590011E58531
:10043000CFE715FEA7A97EE7E806E6D554BA01F195
:10044000BB68CA8E39146FB6111BC3F31F3E1D4122
:10045000C3A38955FB0D1F5758C66F1FEC31EF37EB
:10046000E809DCA7924826585C5889348D32BBC60F
:100470005D570AB42EBE909C46517AD7600F8CEB24
:1004800093C837598EBB802DD83EB5D9DEB57BBC1D
:100490004DCB4A06000027D111AEBD207E6600017B
:1004A0009704EA0C0000DE0C6E86B1C467FB020004
:1004B00000000004595A29001E001F0020002100DE
:1004C0002200230024002500260027002D002E00F6
:1004D000310035002B0014001A0008001500170029
:1004E0001C0018000C00120013002F0030002A001E
:1004F0000000390004001600070009000A000B0084
:100500000D000E000F0033003400520028000000E0
:10051000E10050001D001B0006001900050011003D
:100520001000360037003800E5004F000000E00002
:10053000E300E200000000002C00000000000000CA
:100540000000E600E7005100E400000035003A003A
:100550003B003C003D003E003F00400041004200A7
:1005600043004400450001004C000100C25CC35C34
:10057000C55CC65CC75CC85CC95CCA5C01000100A4
:1005800001000100005C0000010001000100010009
:100590000100010001000100010001000100010053
:1005A0000100010000000100010001000100BD5C2C
:1005B000BF5CBE5CC05C01000100010001000100E5
:1005C0000100000001000100010000000000010026
:1005D0000000000000000000010001000100010017
:1005E0000000010001005804860EB90E0000020050
:1005F00002005404860EB90E0000030001005904E5
:10060000860EB90E0000040002003E04860EB90EEC
:100610007D07050001005A04860EB90E0000060091
:1006200002004004860EB90E0000070002005604C6
:10063000860EB90E0000080001005B04860EB90E9C
:100640000000090002004204860EB90E58070A0095
:1006500002004404860EB90E58070B00020046043F
:10066000860EB90E58070C0002004804860EB90E1B
:1006700058070D0002004A04860EB90E58070E00F6
:1006800002004C04860EB90E58070F0002004E04FB
:10069000860EB90E5807100002005004860EB90EDF
:1006A0005807110002005204860EB90E58071200B6
:1006B00002005C04860EB90E0000130002005E0406
:1006C000860EB90E0000140001006004860EB90EFB
:1006D0000000150000000000D506101700000902F8
:1006E0005B00030100A0FA090400000103010100FE
:1006F00009211101000122400007058103080001C2
:100700000904010002030000000921110100012277
:1007100022000705820320000107050303200001D2
:100720000904020001030000000921110100012257
:10073000BC00070584032000011201000200000034
:1007400008584301060001010203011C03760069F9
:100750000061006C003A006600360034006300322D
:100760000062003300630000001A03630068006C3D
:1007700000780020006D006500720072006F003686
:1007800000300000000A03630068006C007800007D
:1007900000040309040011241FBECFEFDAE0DEBF1E
:1007A000CDBF04B603FE18C080915805909159053D
:1007B000A0915A05B0915B058730904BA740B04B94
:1007C00059F4109258051092590510925A0510923A
:1007D0005B05E0E0F8E3099511E0A0E0B1E0E8E8AE
:1007E000FEE602C005900D92A837B107D9F725E0C3
:1007F000A8E7B1E001C01D92A835B207E1F70E9459
:100800009F2E0C9417370C940000E8EDF0E08081E7
:100810008E7F80831092E2001092DA001092E10045
:10082000A0EEB0E08C9181608C9380818F77808383
:1008300019BCA7EDB0E08C918E7F8C9380818F7E68
:1008400080831092270508952091E4003091E500FF
:1008500095E6A9012091EC00822F817020FF06C04F
:100860008091E80080FF06C080E008952091E800B4
:1008700022FD1AC080915505882389F0853089F0C2
:100880008091EB0085FD0FC02091E4003091E500E0
:1008900042175307F9F29150E1F684E0089582E09F
:1008A000089583E0089581E00895EF92FF920F93F9
:1008B0001F93CF937C018B010E942404C82F8111C8
:1008C00017C08091E80085FD0BC08091E8008E770D
:1008D0008093E8000E942404882399F3C82F08C05D
:1008E000F70181917F018093F1000150110949F7CF
:1008F0008C2FCF911F910F91FF90EF900895CF9380
:10090000FC0180915505843001F5C091E900CF705C
:100910002091EC00922F917020FD90E8C92B82E08D
:100920008093E9008091E80080FF0CC050E040E037
:1009300060E270E0CF010E9455048091E8008E775C
:100940008093E800CF70C093E900CF910895809123
:100950004D0587FF13C08091E80082FF06C080919B
:10096000E8008B778093E80004C0809155058111E1
:10097000F2CF0895809155058823D9F38091E8003E
:1009800080FFF8CF8091E8008E77ECCF982F90937E
:10099000E900242F762F50E0891731F07091EC0098
:1009A0002091ED005091F00021FD07C09F5F97302E
:1009B00071F78093E90081E008953091EB003E7F6C
:1009C0003093EB003091ED003D7F3093ED0030919E
:1009D000EB0031603093EB007093EC002093ED005E
:1009E0005093F0002091EE0027FDE0CF80E00895C5
:1009F000CF92DF92EF92FF920F931F93CF93DF93EB
:100A0000C8EDD0E088818F7E8883E7EDF0E08081BB
:100A10008160808384E082BF81E0809327058881A4
:100A20008E7F888302EE10E0F80110821092DA00C7
:100A300081EEC82ED12CF601108288818F778883B1
:100A400088818068888388818F7D888319BC109213
:100A5000550510924C0510924B0510924A0590EEE8
:100A6000E92EF12CF70180818B7F80838881816062
:100A7000888342E060E080E00E94C604F601808145
:100A80008E7F8083F801808181608083808188608F
:100A90008083F70180818E7F808388818061888355
:100AA000DF91CF911F910F91FF90EF90DF90CF904A
:100AB0000895FC018091530590915405861797077E
:100AC000A0F06115710529F49091E8009E7790934C
:100AD000E80090E06115710551F4911108C0809112
:100AE000E80082FF34C080E00895BC01F2CF80911D
:100AF00055058823C1F18530C1F18091E80083FD5F
:100B000030C08091E80082FDEACF8091E80080FF4C
:100B1000E1CF8091F3002091F200382F611571052B
:100B200019F02830310558F091E02830310509F0EE
:100B300090E02091E8002E772093E800CBCF8191C0
:100B40008093F100615071092F5F3F4FE7CF809193
:100B50005505882341F0853041F08091E80083FFFE
:100B6000BECF81E0089582E0089583E0089508955E
:100B70008091290508959C014FB7F89480911E0536
:100B800090911F05A0912005B09121054FBF821BB8
:100B9000930B08952FB7F89460911E0570911F056F
:100BA00080912005909121052FBF08952FB7F894CB
:100BB00080911E0590911F05A0912005B0912105FF
:100BC0002FBF089520911B0530911C052817390768
:100BD00071F090931C0580931B05E0911905F0912D
:100BE0001A05309721F00084F185E02D09940895CD
:100BF00020911705309118052817390771F0909347
:100C0000180580931705E0911905F0911A053097A2
:100C100021F00680F781E02D09940895E0911905EF
:100C2000F0911A05309721F00190F081E02D0994A0
:100C300080E00895CF93DF93EC014091330450910D
:100C4000340460913504709136042FB7F894809184
:100C50001E0590911F05A0912005B09121052FBF81
:100C6000841B950BA60BB70B843F9140A105B105E2
:100C700018F58091330490913404A0913504B0911B
:100C8000360480932F0490933004A0933104B093E2
:100C9000320484EF91E0A0E0B0E080932B049093C5
:100CA0002C04A0932D04B0932E04D0933B04C09346
:100CB0003A04DF91CF9108950E94CA0560932F04F2
:100CC00070933004809331049093320482E390E077
:100CD000A0E0B0E0E2CFFC018481862351F4928150
:100CE0009923B9F06923808583FF05C081E06111F4
:100CF0000FC080E00895892F8F7092959F70982B78
:100D0000862F8F7062956F70682B81E09613F1CFFC
:100D1000089581E0FDCF452B39F0682381E06F3FD6
:100D200009F080E08170089581E0FCCFDC016091E2
:100D3000270480912804962F891301C00895292F34
:100D400030E0F901EE0FFF1FE15EFB4F4081518162
:100D50004A175B07A1F487E08A9FA0018B9F500D83
:100D6000112449515C4F81E0FA0184839613E6CF48
:100D70002F5F3F4F237033272093270408952F5F61
:100D80003F4F922F9370D8CF109284031092830319
:100D9000E7EEF3E08581811102C014821682379656
:100DA00084E0EF31F807B1F70895AF92BF92CF9288
:100DB000DF92EF92FF920F931F93CF93DF938FEF0A
:100DC0009FEF4430510508F468C04091220541FB73
:100DD000882780F990E0880F991F42FB002700F9CF
:100DE00010E0000F111F000F111F802B912B40FBF3
:100DF000CC24C0F8D12C8C299D2943FB222720F933
:100E0000C22FE0E0DE2F53E0CC0FDD1F5A95E1F753
:100E10008C2B9D2B44FBAA27A0F9B0E0E4E0AA0F9D
:100E2000BB1FEA95E1F78A2B9B2B45FBEE27E0F9E8
:100E3000F0E0A5E0EE0FFF1FAA95E1F78E2B9F2BA8
:100E400046FB222720F930E0B6E0220F331FBA9587
:100E5000E1F7822B932B47FB222720F930E03695D0
:100E6000322F222737952795822B932B209123050C
:100E7000322F3170F32EF92A26952170B22EBB0C39
:100E8000A82EBF28C501BB0CAA0BBB0BFB0180839E
:100E90009183A283B38390E080E0DF91CF911F9193
:100EA0000F91FF90EF90DF90CF90BF90AF9008959B
:100EB000EEE3F4E0848195812AE030E0B9010E94FC
:100EC0006236609316018681809315018285809336
:100ED000140184858093130186859785B9010E944A
:100EE0006236609312018089809311018289809318
:100EF0001001848980930F01089580913E049091A0
:100F00003F049093180180931701089581152CE5F3
:100F1000920741F42091580330915903232B11F487
:100F200090E080E008950E94D6059C0190916702B0
:100F300080916802982B21F0309364022093630221
:100F40009091690280916A02982B21F0309362029D
:100F500020936102E0911905F0911A05309749F04C
:100F600082E0809365020480F581E02D85E692E0C1
:100F70000994089590916702803F59F48091680226
:100F800087FF0DC01092680291110BC010925F0292
:100F900008C0813F81F48091680218169CF3992360
:100FA00081F08091690290916A02892B09F064C0F6
:100FB00010925E020895823F49F497FFF0CF10929D
:100FC0006702809168028111ECCFE0CF833F19F472
:100FD0001916ACF3E4CF20916902893F29F4121667
:100FE000F4F610926902DBCF8A3F19F427FFD7CFBE
:100FF000F8CF20916A028B3F29F427FFD0CF1092BF
:101000006A02CDCF8C3F19F41216CCF3C8CF843FBF
:1010100031F4809166028E7F80936602C0CF853F57
:1010200021F4809166028D7FF7CF863F21F4809175
:1010300066028B7FF1CF873F21F480916602877F24
:10104000EBCF883F21F4809166028F7EE5CF8D3F04
:1010500031F4809160028E7F80936002A0CF8E3F3A
:1010600021F4809160028D7FF7CF8F3F09F097CFF9
:10107000809160028B7FF0CF08958091600280FFA5
:101080000CC06091100170E0759567957595679536
:101090006115710549F1862F089581FF06C06091A1
:1010A000100170E075956795F3CF6091100182FD96
:1010B0000BC090915E029923A1F060910F01809185
:1010C0001001961738F0682F70E06038710500F352
:1010D0008FE70895899FC001112470E00E94763641
:1010E000F4CF61E070E0D7CF81E008958091600295
:1010F000609146047091470480FF16C0209114014E
:10110000269FC001279F900D1124BC0176956795FD
:10111000769567956038710508F043C061157105D3
:1011200009F441C0862F089581FF0BC0209114015E
:10113000269FC001279F900D1124BC0176956795CD
:10114000E9CF82FF09C0809114019B01829FB00109
:10115000839F700D1124DECF20915F022223D1F2F4
:101160009091130180911401482F50E0291748F005
:10117000CB01849FB001859F700D949F700D112449
:10118000C9CF289F90011124269FA001279F500DB1
:10119000369F500D1124692F70E0CA010E946236FB
:1011A000B9CF8FE7089581E00895803F31F40E9420
:1011B00076088195809368020895813F19F40E9412
:1011C0007608F8CF823F31F40E94760881958093AB
:1011D00067020895833F19F40E947608F8CF893F8B
:1011E00029F40E943D088093690208958A3F21F402
:1011F0000E943D088195F7CF8B3F31F40E943D0856
:10120000819580936A0208958C3F19F40E943D08ED
:10121000F8CF843F31F4809166028160809366024A
:101220000895853F21F4809166028260F7CF863F62
:1012300021F4809166028460F1CF873F21F4809190
:1012400066028860EBCF883F21F48091660280615E
:10125000E5CF8D3F31F48091600281608093600220
:1012600008958E3F21F4809160028260F7CF8F3F16
:10127000B9F7809160028460F1CF80E00895F8941E
:10128000E82FE295EF70F0E031A1282F2F7081E078
:1012900090E001C0880F2A95EAF7982F9095932344
:1012A00091A392A1892B82A378940895909122050D
:1012B00092FF06C0282F28712830F9F4877F8460B8
:1012C00093FF06C0282F28712831F1F4877E8461AE
:1012D0002091230520FF06C0382F38713830D9F40B
:1012E000877F816021FF06C0282F28712831D1F423
:1012F000877E816194FD877E0895282F2471243094
:10130000F9F68B7F8860DCCF282F2471243101F718
:101310008B7E8861DDCF382F3171313019F78E7FA8
:101320008860E0CF282F2171213121F78E7E8861DE
:10133000E1CFCF93DF93EC0182389105A9F1D8F585
:101340008133910509F496C048F58932910509F475
:101350008AC08A9709F495C0C11521E5D20708F023
:10136000BCC0C11530E5D30708F014C1C83ED10593
:1013700008F09CC0C13ED10560F5C83AD10508F01F
:1013800087C0C53AD10508F0FDC0C130D10509F1CB
:101390002097F9F0C430D105E0F440C085339105C1
:1013A00009F45AC0C997C1F680912205837089F06B
:1013B000C0EED0E00EC0833E910599F170F4803EFE
:1013C000910501F1823E910539F68091220582FD59
:1013D00021C0CE01DF91CF910895863E910561F144
:1013E000873E910571F1843E910509F0B5CF80915A
:1013F000230581FFEECF80912205C7EED0E084FD6A
:101400000DC0E7CF8091220580FD12C19091230588
:1014100090FFDFCFC3EED0E084FFDBCFD0E0C0E0B1
:10142000D8CF8091220582FD06C19091230590FDC1
:10143000BFCF84FFCECFF2CF8091220583FDDDCFD9
:10144000C8CF8091220583FDF9C09091230591FFBB
:10145000F0CFC4EED0E0BDCF8091220585FFB9CF9B
:10146000C9E2D0E0B6CF8091220585FFB2CFC5E3B7
:10147000D0E0AFCF8091220586FFABCFCAE2D0E0AB
:10148000A8CF8091220586FFA4CFC1E3D0E0A1CFF1
:10149000CF3BD10518F6C85AD0E0CC0FDD1FC95D8F
:1014A000DE4F0990D881C02DD46493CFC11540E29E
:1014B000D40758F4C11581E0D80708F08ACFC03F9F
:1014C000D10508F4ABCFD06584CFC11590E4D9071E
:1014D00008F4A4CFDF70D06A7CCFC11525E5D20710
:1014E00000F5C11534E5D30708F08AC0C11543E5FE
:1014F000D40708F071C0C11582E5D80708F467C0A9
:10150000CE018370992721E030E002C0220F331F03
:101510008A95E2F7C695C69580E2C89FE00111243E
:1015200052C0C11599E5D907A8F4C11528E5D2071D
:1015300008F06BC0C11536E5D30708F06FCF8C2FCC
:101540000E945609C82FD0E0DC2FCC27CC27DF71B2
:10155000D0623FCFC1154AE5D40708F45BC0CE0185
:1015600090568115904208F059CF8D2F8F710E94AF
:10157000560990E0982F882788279F719C012C2B73
:10158000E901E6CFC55AD0E0CC5DDE4FC881D0E09E
:10159000D0641FCFCE01E4E096958795EA95E1F7F8
:1015A00083702C2F26952695237040E2249F90016E
:1015B0001124382B8C2F8370C1E0D0E002C0CC0FF7
:1015C000DD1F8A95E2F7C22BD32BDC6802CFDC2F1C
:1015D000CC27C16FD06AFDCECE018370992721E060
:1015E00030E002C0220F331F8A95E2F7C695C695F8
:1015F00090E2C99FE0011124C22BD32BDA68E9CE17
:10160000DC2FCC27C46FD06AE4CEDC2FCC27C06F90
:10161000D06ADFCE8C2F8F700E94560934E0D695A9
:10162000C7953A95E1F7CF709C2FEC01D069D1CEE8
:10163000C9E3D0E0CECEC2EED0E0CBCEC6EED0E055
:10164000C8CE80912D02882331F010922D02109285
:101650002C0210922B020895CF93C82F809123055E
:1016600082FD0CC080912D028C1741F00E94D6059E
:1016700090932C0280932B02C0932D02CF9108955A
:1016800080959091570598239093570508958095DC
:1016900090915E03982390935E03089590915E036A
:1016A000892B80935E03089510920A02109209021A
:1016B0001092080208958091400490914104892B72
:1016C00089F00E94D60520912B0230912C02AC01AA
:1016D000421B530B81E0209140043091410442179A
:1016E000530708F480E0817008958091070281110A
:1016F00010920702089590911B019923D1F09091C7
:10170000220597FF16C0E82FE695E695E695EE319F
:10171000E0F4F0E0E658FE4F282F277081E090E0DB
:1017200001C0880F2A95EAF78095928189238283E8
:101730000895ECE7F1E09191891303C0DF0111975F
:101740001C9291E0E238F907B1F7089590911B01DE
:101750009923C1F09091220597FF14C0E82FE695D8
:10176000E695E695EE31F8F4F0E0E658FE4F877026
:1017700021E030E001C0220F8A95EAF78281822BB6
:1017800082830895ACE7B1E0EFEF90E02D918217EE
:1017900051F0EF3F19F4211101C0E92F9F5F9630FE
:1017A000A9F7EF3F09F408950E2E000CFF0BE65841
:1017B000FE4FE6CF209106029091C501291302C089
:1017C00080E0089530E0F90153E0EE0FFF1F5A95D5
:1017D000E1F7EA53FE4F5181561306C0508158136A
:1017E00003C05281541304C02F5F3F4F2770E6CFD0
:1017F00081E00895809106029091C501981301C07F
:1018000008958F5F8770FACF9E3F49F1E82F2FE050
:10181000929FE00D11249E2F9770E695E695E69530
:1018200083E0E89FF0011124E156FE4F50E040E0D4
:1018300080E0219130E0092E02C0369527950A9468
:10184000E2F721703327042E01C0220F0A94EAF731
:10185000822B4F5F5F4F4330510559F7089580E069
:1018600008959E3F69F1E82F2FE0929FE00D11242B
:101870008E2F877041E001C0440F8A95EAF7E69504
:10188000E695E69583E0E89FF0011124E156FE4FCE
:1018900030E020E070E05191DF011197CB01022E82
:1018A00002C0969587950A94E2F781708195852705
:1018B000842385278C932F5F3F4F2330310559F7C1
:1018C000089592959F70963091F058F4925F9F70B2
:1018D000923058F4803F19F030F4883E30F481E0C3
:1018E00008959A5FF4CF843FD1F380E00895883E55
:1018F000B0F3813FD1F7F3CF9C013A9521153F41D9
:1019000050F5FC01EE27F170BC0166277270AC0146
:10191000442754709C012227387094FF0EC080E148
:10192000EF2B09F480E0672B09F08062452B09F06A
:101930008064232B89F08068089581E0EF2B09F4FF
:1019400080E0672B09F08260452B09F08460232B2F
:1019500019F08860089580E00895809324057093BD
:10196000260560932505809155058430F9F4809310
:10197000E9008FEF9091E800815095FD06C095ED4C
:101980009A95F1F700008111F5CF8091E80085FF6D
:101990000DC050E040E063E070E084E295E00E941A
:1019A00055048091E8008E778093E8000895BC018B
:1019B00084E00C94AD0CBC0183E00C94AD0C9C0154
:1019C00084E08093E9009FEF8091E800915085FDCD
:1019D00006C085ED8A95F1F700009111F5CF809151
:1019E000E80085FF0CC050E040E066E070E0C9010F
:1019F0000E9455048091E8008E778093E800089556
:101A0000CF93DF93EC0180911B018823B1F180918A
:101A1000220587FF32C060E284E08093E9008FEF07
:101A20009091E800815095FD06C095ED9A95F1F7EB
:101A300000008111F5CF8091E80085FF1BC08091E7
:101A40001B0170E050E040E0811104C050E040E034
:101A500068E070E0CE010E9455048091E8008E7726
:101A60008093E80080E2FE01AAE2B5E001900D92C9
:101A70008A95E1F7DF91CF91089568E081E0CDCFBD
:101A800081E08093E00080E28093D8001092C9004A
:101A90008FE19EE40197F1F700C0000087E090EB32
:101AA000DC018093580590935905A0935A05B09393
:101AB0005B0588E19CE00FB6F894A89580936000E0
:101AC0000FBE90936000FFCF019708F40895EFE9EF
:101AD000FFE03197F1F700C00000F6CF0F931F939E
:101AE000CF93DF930EE314E0C0E8D2E0CE010E9472
:101AF000CD36F80181938F012196C43AF2E0DF07D9
:101B0000A9F7CCEED5E0FE0185919491009711F0F4
:101B1000FC0109952C96F6E0C83EDF07A1F7DF919E
:101B2000CF911F910F9108950F931F93CF93DF9340
:101B3000843030F5653020F54F3010F5C42FD0E0FB
:101B4000CC0FDD1F2EE1629FC00DD11D112436E99F
:101B5000839FC00DD11D1124CE0188960E94CD36E1
:101B6000082F10E0102F0027CE0189960E94CD3655
:101B70009801282BC901DF91CF911F910F910895F2
:101B800090E080E0F8CF462F20915C0330915D0318
:101B9000232B91F47E3F39F46E3F71F480915A0308
:101BA00090915B030895843038F4753028F46F30D9
:101BB00018F4672F0C94940D90E080E00895CF9274
:101BC000DF92FF920F931F93CF93DF936C010091ED
:101BD000560580912E02082BC7E0D0E010E0FC2EC5
:101BE000C8010C2E02C0959587950A94E2F780FDF6
:101BF0000CC02197A0F7F12C8F2DDF91CF911F9171
:101C00000F91FF90DF90CF900895B6018C2F0E9426
:101C1000C30D0E949909019761F3EECFCF93DF9333
:101C2000EC010E94DF0DBE010E94C30DDF91CF9138
:101C30000C949909FC0186819781009721F00E94FC
:101C400099090C94610C808191810E940E0EF9CF4C
:101C50001F93CF93DF9300D000D00F92CDB7DEB7A4
:101C600049835A8389819A816623B9F02223A9F096
:101C70000E94DF0D182F682F89819A810E94310CF4
:101C800069817A81812F0F900F900F900F900F90A4
:101C9000DF91CF911F910C94C30D0E94040C182F5B
:101CA000EFCFFC01262F86819781009739F4408180
:101CB00051816281738184810C94280E089583E29E
:101CC00090E00E94CD36833089F484E290E00E9457
:101CD000CD36843E59F485E290E00E94CD3691E005
:101CE0008D3409F090E0892F8170089580E0FCCF59
:101CF000CF9384E090E00E94CD36C82F82E290E03E
:101D00000E94CD36982F8C2FCF910895DB01FC01D6
:101D10003296259134914217530758F0FC013496BE
:101D200065917491A901CD010E94AD3690E080E0EB
:101D300008958FEF9FEF08950F931F93CF93DF9335
:101D40000EE314E0C0E8D2E0CE010E94CD36F801E7
:101D500061918F01681719F0CE010E94DB36219640
:101D6000C43AF2E0DF0781F7DF91CF911F910F9125
:101D70000895DA019C012E5F3F4FF901459154917E
:101D8000F90125913491A217B30758F0FC0134965C
:101D9000859194910E94AD360E949C0E90E080E067
:101DA00008958FEF9FEF0895CF93DF93C4E9D3E0B9
:101DB00060E0CE010E94DB362196C11584E0D80791
:101DC000B9F7DF91CF9108950F931F93CF93DF93CE
:101DD0008901843048F5653038F54F3028F52115F4
:101DE0003C4531F42091580330915903232BE1F005
:101DF000C42FD0E0CC0FDD1F9EE1699FC00DD11D27
:101E0000112496E9899FC00DD11D1124612FCE01A7
:101E100088960E94DB36602FCE018996DF91CF91A4
:101E20001F910F910C94DB36DF91CF911F910F9191
:101E30000895CF93C82F6FEF811163E083E290E0A4
:101E40000E94DB366FEFC11164EE84E290E00E94E5
:101E5000DB366FEFC1116DE485E290E0CF910C9419
:101E6000DB36CF93C92F682F84E090E00E94DB36E9
:101E70006C2F82E290E0CF910C94DB369B0188308E
:101E800070F49AE0899FB00111246C557D4F4AE0AF
:101E900050E0C9010E94BD3690E080E008958FEFC8
:101EA0009FEF08958F929F92AF92BF92CF92DF9251
:101EB000EF92FF920F931F93CF93DF93CDB7DEB7CF
:101EC0002A970FB6F894DEBF0FBECDBF07E614E029
:101ED000F12CE12C81E9C82E8CE2D82E9BEBA92EA7
:101EE0009CE2B92E2AEF822E2BE2922EF801D182AB
:101EF000C082B382A28295828482F58AE48ABE017E
:101F00006F5F7F4F8E2D0E943E0F892B29F48985AC
:101F10009A85F801938B828BFFEFEF1AFF0A0A5E16
:101F20001F4F88E0E816F10409F72A960FB6F894D7
:101F3000DEBF0FBECDBFDF91CF911F910F91FF90FC
:101F4000EF90DF90CF90BF90AF909F908F900895CB
:101F50008F929F92AF92BF92CF92DF92EF92FF92B9
:101F60000F931F93CF93DF93CDB7DEB72A970FB6AA
:101F7000F894DEBF0FBECDBF00EE12E08EECC82E8F
:101F800082E0D82E94E4E92E93E0F92E27E0922EF9
:101F90003DECA32E32E0B32E88248394D6010D931A
:101FA0001D936D014AE050E0B701CE0101960E94F9
:101FB000BD36F8013896DF01892D1D928A95E9F723
:101FC00089819A81D80111969C938E938F81129664
:101FD0008C9312978D8113968C9313978885149602
:101FE0008C931497898515968C9315978B819C817A
:101FF00017969C938E93169718961C9218978A851D
:1020000087FF4BC01E961C921E921D9780FF03C037
:10201000D80118968C9281FF04C0F80190859260D7
:10202000908782FF07C0D80118969C9118979460FA
:1020300018969C9383FF04C0F80190859860908760
:1020400084FF07C0D80118969C9118979061189644
:102050009C9385FF04C0F801808580628087015FC2
:102060001F4FFAE0EF0EF11C84E9E81683E0F80652
:1020700009F094CF2A960FB6F894DEBF0FBECDBFFD
:10208000DF91CF911F910F91FF90EF90DF90CF9054
:10209000BF90AF909F908F900895F801B686A58667
:1020A000B5CFCF92DF92EF92FF920F931F93CF9312
:1020B000DF93CDB7DEB72A970FB6F894DEBF0FBE19
:1020C000CDBFEDE7F2E080E5DF011D928A95E9F7EB
:1020D000E7EEF3E088E3DF011D928A95E9F78DE7EB
:1020E000C82E82E0D82E7F0104EF12E0F701D182E2
:1020F000C0824AE050E0B801CE0101960E94BD3690
:1021000088E0FE013196D60101900D928A95E1F7A3
:1021100089859A85D70113969C938E931297BAE07E
:10212000CB0ED11CE7E0EE0EF11C065F1F4F04340E
:10213000F3E01F07D9F62A960FB6F894DEBF0FBE5C
:10214000CDBFDF91CF911F910F91FF90EF90DF9066
:10215000CF9008954F925F926F927F928F929F924D
:10216000AF92BF92CF92DF92EF92FF920F931F93A5
:10217000CF93DF93CDB7DEB72A970FB6F894DEBFC3
:102180000FBECDBF8E010F5F1F4F8AE0F801119285
:102190008A95E9F795E5E92E91E0F92E68012AE59F
:1021A000422E21E0522E66246394712C49E6842E3F
:1021B00041E0942EF70181917F018F3F09F445C0E2
:1021C000F894E82FE295EF70F0E021A18F70A30161
:1021D00002C0440F551F8A95E2F7CA01922F982B2F
:1021E00091A392A18095892382A3789400C0EAE507
:1021F000F1E021E030E0B12CA12C41914F3F09F4F6
:102200007EC0A42FA295AF70B0E090968C9190E024
:102210004F7002C0959587954A95E2F780FD6FC093
:10222000C901A82AB92A220F331F8E169F0629F743
:10223000F701319780818F3F11F00E943F0950EAEA
:102240005A95F1F7F601B182A082F2E0CF0ED11CCF
:102250004E145F0409F0AECF4AE050E0B80182E3CB
:1022600092E00E94A036FF24F394009709F4F12C29
:10227000892B09F447C08AE0F801A2E3B2E001909B
:102280000D928A95E1F781E0809331020E94D60594
:102290009093300280932F0280912F029091300210
:1022A0000E94BB05059790F1809132029091330214
:1022B000909355028093540280913402909135029C
:1022C0009093570280935602809136029091370284
:1022D000909359028093580280913802909139026C
:1022E00090935B0280935A0280913A0290913B0254
:1022F00090935D0280935C021092310207C090E0DF
:1023000080E08FCF809131028111C6CF8F2D2A9628
:102310000FB6F894DEBF0FBECDBFDF91CF911F91F6
:102320000F91FF90EF90DF90CF90BF90AF909F9074
:102330008F907F906F905F904F900895CF93809192
:102340005E0390915705892B80937A0180912D022D
:10235000882329F18091400490914104892B29F030
:102360000E945B0B81110E94210B80917A01909158
:102370002D02892B80937A0180911B01882309F417
:1023800046C08091220587FF42C08EE1ECE7F1E074
:1023900090E0815008F03DC091110E94210BC09146
:1023A0003704C09580917A01C82380913804C82BE6
:1023B000C0937A0140E250E06BE072E08AE791E07E
:1023C0000E94A036892B59F180E2EAE7F1E0ABE008
:1023D000B2E001900D928A95E1F7E0911905F09134
:1023E0001A053097E1F080911B01882349F0809114
:1023F000220587FF05C0C0937B0186E080937A01A8
:102400000280F381E02D8AE791E0CF91099486E084
:10241000BDCF2191222309F4BCCF9F5FBACFCF91CA
:102420000895EF92FF920F931F93CF93DF93EC01E8
:102430008A85811134C0EB80FC8087E5F81A26E19B
:102440002E9DC0012F9D900D1124DC01A959BB4F79
:102450001496ED91FC911597309731F054966D914B
:102460007C9183599B4F099586E18E9D80018F9DBC
:10247000100D112409591B4FF80187810E94470B49
:10248000F80180850E94400B0E949E1118821986D7
:102490001B861E821D821092660410926504DF91D5
:1024A000CF911F910F91FF90EF900895CF93DF93FD
:1024B000EC018989811118C081E0898B8F810E948C
:1024C0004E0B809157059885892B809357050E9464
:1024D0009E11EA81FB81309739F06C897D89CE01AC
:1024E0000696DF91CF910994DF91CF910895809165
:1024F0001901877F8093190182E00E94400B80912F
:10250000190184FF06C08F7E8093190182E00E942A
:102510004E0B8091190185FF06C08F7D80931901B4
:1025200080E20E944E0B0C949E1190E080E00E948D
:10253000F80590E080E00E94E205109257050E94A5
:102540009E1186E0E5E6F2E0DF011D928A95E9F74B
:1025500010925F0210925E02109260020C94930738
:10256000809356050C94951280915605982F96707D
:10257000963019F488600C94B012877FFCCF21E06C
:1025800030E001C0220F8A95EAF720958091560528
:1025900082230C94B01290910A0280958923809333
:1025A0000A02282F277091F4282F082E000C330BD5
:1025B0009217130659F09091230592FD07C0859557
:1025C000859585950E94BF120C94540B08959091A7
:1025D000230592FB222720F9281769F080FB92F946
:1025E0009093230580912205909123050E94310F3D
:1025F00082E00C94CB12089521E030E001C0220F5C
:102600008A95EAF780915605822B0C94B01290912E
:10261000230592FD10C098E0899F90011124622B40
:1026200060930A020E94FC120E94D6059093090250
:102630008093080208950C94FC1280932E020C944F
:10264000951210925E0380911B01ECE7F1E0882364
:1026500059F08091220587FF07C08EE1DF011D92AE
:102660008A95E9F70C94951286E0F8CF1F93CF93E3
:10267000DF93CDB7DEB7AA970FB6F894DEBF0FBED3
:10268000CDBF8DE495E02091F100DC012D93CD01CB
:10269000B5E085359B07B9F780914E05833009F485
:1026A00072C0B8F4813009F449C0823009F4B3C073
:1026B0008091E80083FF96C280914D0590914E0570
:1026C0009A3008F08FC2E92FF0E0E75EF84C0C94E6
:1026D0008A368A3009F48EC08B3009F471C0893093
:1026E00039F780914D05813219F78091510590910C
:1026F0005205009711F00297D9F68091E800877F84
:102700008093E8008091E80082FF38C09091F30048
:102710008091F200029731F48091F100813011F044
:10272000863021F48091F100809329058091E800A2
:102730008B778093E8000E94A704BACF80914D0563
:10274000813A09F0B5CF8091E800877F8093E80057
:102750008091510590915205892B61F460E28AE2E3
:1027600095E070E00E9459058091E8008B77809396
:10277000E8009ECF60E090E080E0F3CF80915505C7
:102780008111C0CF95CF80914D05813A09F090CF4E
:102790008091510590915205892B09F089CF809144
:1027A000E800877F8093E8008091E80080FFFCCFFD
:1027B00080911B018093F1008091E8008E77B9CF62
:1027C00080914D05813209F073CF80915105909130
:1027D0005205892B09F06CCF8091E800877F8093A8
:1027E000E8000E94A70480914F0580931B010E947E
:1027F00021135ECF80914D05813209F059CF809130
:10280000E800877F8093E8000E94A704809150052C
:10281000809328054DCF80914D05813A09F048CF2E
:102820008091E800877F8093E8008091E80080FF36
:10283000FCCF80912805BECF803899F0823809F00E
:10284000D1C1809151058F70873008F0CBC1809342
:10285000E9008091EB0085FB882780F91092E90060
:1028600006C080914A0590914B059111826090912C
:10287000E800977F9093E8008093F1001092F100B8
:102880008091E8008E77AAC1882309F498C182302C
:1028900009F0A8C180914F0581119BC1809151051C
:1028A0008F702FEF280F263008F09CC18093E9002D
:1028B0002091EB0020FF8DC1933031F48091EB002B
:1028C00080628093EB0085C19091EB0090619093C2
:1028D000EB0021E030E001C0220F8A95EAF7209357
:1028E000EA001092EA008091EB008860EACF811143
:1028F00079C110914F051F778091E3008078812B7B
:102900008093E3008091E800877F8093E8000E9435
:10291000A7048091E80080FFFCCF8091E3008068ED
:102920008093E30082E0111183E0809355055AC142
:102930008058823008F056C120914F0530915005E3
:102940002C3DE3E03E07A1F583E08A838AE2898398
:102950004FB7F894DE01139620E03EE051E2E32FFA
:10296000F0E050935700E49120FF03C0E295EF7030
:102970003F5FEF708E2F90E0EA30C0F0C7968D93E6
:102980009D932F5F243159F74FBF8091E800877FD7
:102990008093E8006AE270E0CE0101960E9459053A
:1029A0008091E8008B778093E8001CC1C096E7CF48
:1029B0008091510590915205432F55274330510581
:1029C00009F44AC078F54130510509F485C08BE51A
:1029D00090E0EEEDF6E04230510509F003C12091A0
:1029E000E800277F2093E80020915305309154059B
:1029F0008217930708F49C0140E02115310509F086
:102A000070C041116EC08091E80082FDC9CF8091F5
:102A10005505882329F2853019F28091E80083FF5B
:102A2000F2CFBECF4132510509F447C042325105C1
:102A300009F0D8C08330910508F0D4C0FC01EE0F36
:102A4000FF1FE459FE4F0190F081E02D87599E4F02
:102A5000DC018C9190E01DC0332721303105E9F075
:102A60002115310579F022303105F9F02330310597
:102A700009F0B8C0EBE4F7E0E4918E2F90E0EBE4CE
:102A8000F7E007C0E1E9F7E0E4918E2F90E0E1E99B
:102A9000F7E0009709F4A6C0A2CFE5E8F7E0E491DB
:102AA0008E2F90E0E5E8F7E0F4CFE9E6F7E0E49177
:102AB0008E2F90E0E9E6F7E0ECCF8330910508F047
:102AC00091C0880F991FFC01EE58FE4F0190F081D4
:102AD000E02D89E090E083CF82E190E0E9E3F7E048
:102AE0007ECF80915505882309F45ACF853009F4AB
:102AF00057CF8091E80083FD53CF8091E80082FD9D
:102B000082CF8091E80080FF78CF9091F300809190
:102B1000F2002115310519F08830910550F041E09F
:102B2000089709F040E08091E8008E778093E800F4
:102B300064CF44914093F1003196215031090196C0
:102B4000E8CF803809F04EC08091E800877F8093FD
:102B5000E80080914C058093F10092CE811142C033
:102B600010914F051230F0F58091E800877F809337
:102B7000E80010934C050E94A704112311F084E093
:102B800005C08091E30087FDFACF81E08093550571
:102B900042E061EC81E00E94C60442E261EC84E024
:102BA0000E94C60442E261EC82E00E94C60442E256
:102BB00060EC83E00E94C6048091550513C08091AB
:102BC0004F05813079F481E0933009F080E0809303
:102BD0004B051092E9008091E800877F8093E80020
:102BE0000E94A7048091E80083FF0AC08091E8005A
:102BF000877F8093E8008091EB0080628093EB00F8
:102C0000AA960FB6F894DEBF0FBECDBFDF91CF916D
:102C10001F910895EEE3F4E0128E138E8FEA90E098
:102C20009183808325E0248F88E893E193838283D6
:102C30008AE090E09583848344E150E057834683A3
:102C400068E070E071876087938782874EE150E08B
:102C5000558744879787868740E550E0518B408BA6
:102C6000738B628B68E270E0758B648B62E370E05B
:102C7000778B668B68EC70E0718F608F158E978F05
:102C8000868F51A340A322A30E949C0E0E94211371
:102C9000109223051092220590E080E00E94310FEF
:102CA0000C946E0D7F928F929F92AF92BF92CF92B3
:102CB000DF92EF92FF920F931F93CF93DF93CDB7E5
:102CC000DEB76E970FB6F894DEBF0FBECDBFA090F3
:102CD0005803B090590381E090E09093590380939A
:102CE000580386EBC82E84E0D82E00E0760110E071
:102CF00015C0F40125913491472D612F802F0E943A
:102D0000E40E82E0880E911C7394EFE07E12F1CF06
:102D1000FEE1EF0EF11C1F5F153019F04701712C19
:102D2000E8CF0F5F86E9C80ED11C0430F9F60E9487
:102D30000A161A8219821C821B821E821D82188624
:102D40001F8288EC90E09A87898704EA12E04AE0C3
:102D500050E0B801CE0101960E94FF36065F1F4F7A
:102D6000043FE2E01E0799F77E01FBE0EF0EF11C45
:102D70008AE0F70111928A95E9F74AE050E0B8013C
:102D8000C7010E94FF36065F1F4F0434F3E01F07A0
:102D9000A1F77E0185E1E80EF11C8AE0F7011192AE
:102DA0008A95E9F78FEF9FEF9A8F898F87E08E8F53
:102DB0004AE050E0B801C7010E94FF36065F1F4F8E
:102DC0000439F3E01F07A1F7B0925903A09258030A
:102DD0006E960FB6F894DEBF0FBECDBFDF91CF91D8
:102DE0001F910F91FF90EF90DF90CF90BF90AF9029
:102DF0009F908F907F90089580E00E94190F60E06F
:102E000087E290E00E94DB3660E086E290E00E947C
:102E1000DB360E9452160E94D40E81E00C94190FEA
:102E2000CF92DF92EF92FF928FEF9FEF44305105E8
:102E300008F46AC0FB01C080D180E280F3800E9468
:102E4000211380912205C0FA80F9B701A601769579
:102E500067955795479540FB81F9B701A60122E098
:102E600076956795579547952A95D1F740FB82F956
:102E7000B701A60133E076956795579547953A9542
:102E8000D1F740FB83F9B701A601E4E07695679599
:102E900057954795EA95D1F740FB84F9B701A6010C
:102EA000F5E07695679557954795FA95D1F740FBEC
:102EB00085F9B701A601A6E07695679557954795E0
:102EC000AA95D1F740FB86F9B701A601B7E0769540
:102ED000679557954795BA95D1F740FB87F9809349
:102EE000220580912305D0FA80F9D1FACC24C0F8CC
:102EF000C0FA81F9809323058091220590912305E2
:102F00000E94310F90E080E0FF90EF90DF90CF9033
:102F10000895882321F00E94400B0C949E1108957F
:102F2000882339F090915705982B909357050C946E
:102F30009E110895882321F00E94470B0C949E1146
:102F40000895882321F00E944E0B0C949E11089541
:102F5000882309F452C0823871F40E940E0681FF62
:102F60004CC089E30E94A60B0E949E1189E30E9437
:102F70007B0B0C949E11833859F40E940E0680FF3F
:102F80003CC083E50E94A60B0E949E1183E5EFCF13
:102F9000843859F40E940E0682FF2FC087E40E94F5
:102FA000A60B0E949E1187E4E2CF9CEF980F913A06
:102FB000F0F290E2980F983050F4877091E001C0E1
:102FC000990F8A95EAF7892F0E94470BD2CF9BE58C
:102FD000980F933020F490E080E00C94F80598E589
:102FE000980F973120F490E080E00C94E205803F48
:102FF00020F00E94BA070C9493070895FF920F9354
:103000001F93CF93DF93F82E00913C0410913D0461
:103010000115110509F449C010923B0410923A04BD
:103020001092370410923804D8011696CD91DC9195
:103030009E013A9521153F4108F4D07ED1E0C1119F
:1030400001C0D0E0D8011996ED91FC911A97309704
:1030500031F01B966D917C9180E00995D823DD239A
:1030600039F08CEF8C0F813A38F58C2F0E947B0B56
:10307000FF2099F0E0913C04F0913D04808584FDAF
:103080000CC080913904882341F0808191819C019A
:1030900021503109253A3D45A8F00E949E11109219
:1030A0003D0410923C0410923904C801DF91CF9185
:1030B0001F910F91FF9008950E949E118C2F0E94E6
:1030C000A817D6CF0E941A06E8CFCF93DF93EC0162
:1030D0000E94A817CE010E947C0C9E01205E31093F
:1030E0002830310510F0CD2B21F4DF91CF910C94D5
:1030F0009A17DF91CF910C948917CF93C82F88230B
:1031000009F4AAC08238C1F40E940E0681FDA4C051
:1031100089E30E94A60B0E949E112FEF81EE94E09E
:10312000215080409040E1F700C0000089E30E94F8
:103130007B0BCF910C949E118338A1F40E940E0654
:1031400080FD8AC083E50E94A60B0E949E112FEF8E
:1031500081EE94E0215080409040E1F700C00000F3
:1031600083E5E5CF8438A1F40E940E0682FD74C089
:1031700087E40E94A60B0E949E112FEF81EE94E03F
:10318000215080409040E1F700C0000087E4CFCF9D
:103190008CEF8C0F813A88F580911B01882301F117
:1031A0008091220587FF1CC0EC2FE695E695E695F9
:1031B000F0E0E658FE4F828190E04C2F477021E00E
:1031C00030E002C0220F331F4A95E2F78223932397
:1031D000892B79F08C2F0E947B0B0E949E1109C0D5
:1031E000ECE7F1E08191C817A9F321E0E238F2079A
:1031F000C9F78C2F0E94A60B9CCF80E28C0F8830E1
:1032000048F4C77081E001C0880FCA95EAF70E94B0
:103210004E0B8FCFEBE5EC0FE33040F4F0E0EC5DCC
:10322000FE4F808190E0CF910C94F805E8E5EC0F1B
:10323000E73150F4F0E0EE0FFF1FE95DFE4F8081B3
:103240009181CF910C94E205C03F30F08C2F0E9409
:10325000D508CF910C949307CF9108951F93CF93E6
:10326000DF93182FC0915E04D0915F04893321F061
:10327000C0915C04D0915D04812F0E947D1820973D
:1032800031F4812FDF91CF911F910C94A8178FE912
:103290009FE00197F1F700C000002197F0CF0F9356
:1032A0001F93CF93DF93C42FD22FFC0182818823F9
:1032B000A1F0409364040E94D60590936304809328
:1032C0006204C77081E001C0880FCA95EAF7DF91F8
:1032D000CF911F910F910C94A117109164041413B6
:1032E00039C080916204909163040E94BB052091D3
:1032F0005604309157048217930760F5C0E2CD0F52
:103300001D17B9F080E2810F883040F4177081E01A
:1033100001C0880F1A95EAF70E949A17C83048F43E
:1033200081E09D2F977001C0880F9A95EAF70E945F
:10333000A117802F0E942E19C83098F4D77081E011
:1033400001C0880FDA95EAF7DF91CF911F910F91B5
:103350000C949A17C77081E001C0880FCA95EAF7EC
:10336000F3CFDF91CF911F910F910895AF92BF924C
:10337000CF92DF92EF92FF920F931F93CF93DF9341
:10338000EC018AE0A82E2881222309F48CC0213088
:10339000C9F599818A81913021F422960E942E19D3
:1033A00005C0923029F422960E947D182196EBCF19
:1033B000933021F422960E94A817F8CF943011F090
:1033C0002196F4CF229630E020E0AE014F5F5F4FB0
:1033D0008053990B8A30910550F02150310930F318
:1033E0008FE99FE00197F1F700C00000F6CFA29EA1
:1033F000B001A39E700D11249C01260F371F8981F7
:10340000EA01E3CFE22FF0E0E650FE4FB490822FC6
:1034100086958695869590E0FC01E651FE4FE490F6
:103420002770F12C022E02C0F594E7940A94E2F77B
:1034300031E0E322FF24FC01E652FE4FC490D12C80
:10344000022E02C0D594C7940A94E2F731E0C32259
:10345000DD24FC01E653FE4F049110E002C01595F7
:1034600007952A95E2F701701127E114F10419F08C
:1034700081EE0E947D18C114D10419F086EE0E94DD
:103480007D188B2D0E942E19CD2819F086EE0E94F2
:10349000A817EF2819F081EE0E94A817012B09F454
:1034A00085CF8CE27BCFDF91CF911F910F91FF9061
:1034B000EF90DF90CF90BF90AF900895CF93DF93C0
:1034C000EC010E947C0C9E01205E31092830310500
:1034D00010F0209739F40E94A1178C2FDF91CF9123
:1034E0000C947D180E949017F8CF662329F0209144
:1034F00057052260209357059C013056211540E264
:10350000340720F0305E2115304108F499270C94DF
:103510005E1ADF92EF92FF920F931F93CF93DF9388
:103520007C018B01D42E8091190182FF8CC0C09147
:103530008103D0918203CE15DF0521F0E114F1045F
:1035400009F081C0809119018B7F8093190181FD61
:1035500073C080917F0390918003A801481B590B91
:1035600081E020911701309118014217530708F4A8
:1035700080E08170F82E80911901F0FA81F9809332
:103580001901FE0183E0F695E7958A95E1F7EE7162
:10359000FF27E15AFC4F20813181AE014F70552742
:1035A00081E090E002C0880F991F4A95E2F7FF2062
:1035B00009F444C0822B932B9183808380915E0316
:1035C00081FF08C08091190180618093190182E018
:1035D0000E94470B80915E0385FF08C0809119010E
:1035E00080628093190180E20E94470B6F2DCE010B
:1035F0000E94751ADD2031F08091590485FF02C0C8
:1036000086FF3BC080915C0490915D040E94640D34
:1036100080918103909182039C013056211540E2F4
:10362000340720F0305E2115304108F499270E94BC
:1036300065180E9477121DC081E09BCF8095909500
:1036400082239323B9CFC7019927970130562115BB
:1036500040E2340728F0305E2115304108F0C70100
:103660000E94651880918103909182038E159F05B9
:1036700001F31093800300937F03DF91CF911F919B
:103680000F91FF90EF90DF90089569EE7EEF90E04C
:1036900080E00E94F93660E082E090E00E94DB3634
:1036A00060E083E090E00E94DB3610922E0260E042
:1036B00084E090E00E94DB3660E082E290E00E94CD
:1036C000DB3660E085E090E00E94DB3660E086E07B
:1036D00090E00E94DB366FEF87E090E00E94DB36DF
:1036E00040E050E0BA0188E090E00E94ED3660E0F2
:1036F0008DE090E00E94DB3640E050E0BA0188E1C6
:1037000090E00E94ED3660E087E190E00E94DB36B9
:1037100040E050E0BA018CE190E00E94ED3670E0AC
:1037200060E080E290E00E94F93640E050E0BA01AB
:1037300088E190E00E94ED3680E00E94190F0E941F
:10374000FC1640E050E0BA018FE090E00E94ED36B8
:1037500040E050E0BA0183E190E00C94ED362F9206
:103760003F924F925F926F927F928F929F92AF9211
:10377000BF92CF92DF92EF92FF920F931F93CF935E
:10378000DF9300D000D000D00F92CDB7DEB77C0120
:10379000DC0113964D915C91149711966C911197E1
:1037A0008C910E948B068111CBC061E0C7010E9401
:1037B000510E8C01F7018281811161C0D7011296EF
:1037C0008C9181119BC00031FFE51F0709F473C183
:1037D00001312FE5120709F472C16801E7E5DE1A2D
:1037E000FFEFCF16D10409F060F563E772E08C2D8E
:1037F0000E943E0F892B29F586E18C9DF0018D9D5D
:10380000F00D1124E959FB4F8681813009F059C12F
:103810008091730290917402892B99F080917502C6
:1038200090917602892B69F08091770290917802CD
:103830002091790230917A02822B932B892B09F403
:103840004AC1F7015280552009F457C10F35FDE5F3
:103850001F0709F44EC100362DE5120751F00E3551
:103860003DE5130709F049C180910001882309F45F
:1038700040C11092000180E00E94FE1751C080916B
:103880000D0190910E01019609F498CFE7E6CE2E36
:10389000E4E0DE2EB12CA12C9924939480910D01AB
:1038A00090910E018A159B050CF488CFF601868154
:1038B0008823E9F0818592850817190739F48091EA
:1038C0006504909166040817190789F0D6011F96C0
:1038D0009C921F971C961C930E931B97C6010E94E7
:1038E0005612C60106960E94111210925705BFEF9C
:1038F000AB1ABB0AE6E1CE0ED11CD0CFC801825173
:103900009F45409710F00C94C7248FEF93E00E94DE
:10391000CD367EEED72ED00E04E913E08823A9F130
:1039200080910A02877061F0D70112968C918823EA
:1039300039F08091230582FD03C082E00E94CB1202
:1039400027960FB6F894DEBF0FBECDBFDF91CF91A3
:103950001F910F91FF90EF90DF90CF90BF90AF90AD
:103960009F908F907F906F905F904F903F902F909F
:1039700008950115F4E01F0799F2C8010E94CD36A1
:10398000811101C0DA940F5F1F4FD110F2CF19825D
:103990001A821B821C8299249A9468012FEFC21A02
:1039A000D20AC8010E94CD3689831A82882309F47D
:1039B000B7CF813009F073C0580132E0A30EB11CBB
:1039C000C6010E94CD36C82E8A83882309F4A8CF69
:1039D000C5010E94CD36D82E8FEF8C0D833068F450
:1039E000580143E0A40EB11CDB82DD2021F0CE01A2
:1039F00001960E94B6198501D0CF8BEF8C0D8330D4
:103A000030F5C8010396DB825C01DD20A1F358018B
:103A100054E0A50EB11C0E94CD368C83882359F347
:103A20008B819C818130AFEF9A0710F0982F882707
:103A3000B6E0CB1631F0E7E0CE1631F00E94812CD3
:103A4000DACF0E94512CD7CF0E94CB2BD4CFF4E0F9
:103A5000CF12D1CF580124E0A20EB11CC8010396A9
:103A60000E94CD36DD2009F45BCF882309F458CFBE
:103A70008150990B989E9001999E300D11244D2DE7
:103A80004150550BCA01820F931F019708F4B3CF21
:103A9000AFE9BFE01197F1F700C00000F6CFCE010B
:103AA00001960E94B6195601A6CF81E00E94FC1231
:103AB0000E94B41235CF81E00E94BF12F9CF82E09C
:103AC000FBCF823009F0BDCE8091770290917802D1
:103AD000892B09F4B6CE26E12C9DC0012D9D900DB9
:103AE000112489599B4FDC0150961C920E9456125A
:103AF000A8CE81E08093000113CF8091000188233C
:103B000009F46DC6480140EE841A910840902D02D8
:103B100080910702482A80915E03482A58E0851662
:103B2000910408F086C098012770332781E090E067
:103B300001C0880F2A95EAF7552009F477C0482A72
:103B4000D7018D919C910E94040C21E030E0390155
:103B500002C0660C771C8A95E2F7E0913C04F09174
:103B60003D04FF83EE8320909A0130909B011D82DB
:103B70002D81E22FF0E0EE0FFF1FE253FD4FC080DA
:103B8000D180C114D10409F4EDC6411005C0D6019D
:103B900012968C91811187C0F601838190E0862175
:103BA0009721892B09F47FC08085982F977009F49D
:103BB00087E0F8E08F16910408F055C0552009F40D
:103BC0004EC086958170882309F46DC0D601AD90F2
:103BD000BC900A151B0519F4552009F464C0EE8148
:103BE000FF81CE16DF0609F45EC0D6011D96ED9169
:103BF000FC91309721F08081882309F454C0642D12
:103C0000C6010E946B06882309F44DC00A151B05E6
:103C100009F0FAC60115110509F4FBC65110FBC6DF
:103C2000A214B30409F03FC0512CF5C68095482278
:103C300087CF552009F47FC610939B0100939A010A
:103C40000E94CA0560933304709334048093350452
:103C50009093360410923B0410923A0471CF82FB89
:103C6000882780F9B0CF5520F1F08170ACCF0E9449
:103C7000A817EFC60497813A910548F48A2D0E944F
:103C8000A60B552009F4ABC50E949E1149CE0E9497
:103C90009E118FE39CE90197F1F700C000008A2D87
:103CA0000E947D18EECF9D819F5F9D8361CFFC01B7
:103CB000208131810217130709F08AC551108AC586
:103CC0001092390480E060C6882309F4D7C5FA0150
:103CD0008189882309F4D2C5C50183599B4F0E946D
:103CE0001112CCC580911901816080931901F4C52E
:103CF000809119018E7F809319010E947712ECC583
:103D0000809119018F7E013E110531F0053E1105AC
:103D1000C9F4809119018F7D809319018091190157
:103D200080FFE9C5D70112968C910832110528F55C
:103D30000E31110508F074C00430110580F58111B1
:103D4000D6C5D9C5C8019056811540E2940720F028
:103D5000905E8115904110F78091190182FFCBC5CB
:103D600080915B0481FDC7C527E432E040E0B601E5
:103D700090E080E00E94891ABEC50933110558F40D
:103D80000D32110518F40B321105C9F69091590442
:103D900092FDD5CF08C004361105C1F3D0CF909164
:103DA000590494FDCCCF882309F4A1C090915E03FF
:103DB00080912D02282F292B322F3D7FB1F11092B7
:103DC0008203109281033091590431FD2EC0F80115
:103DD00043E0F695E7954A95E1F7EE71FF27E15A42
:103DE000FC4F98012F70332781E090E002C0880FCC
:103DF000991F2A95E2F78095909520813181822341
:103E000093239183808360E0C8010E94751A80919A
:103E10002D028D7F0E942C0B82E00E94CB1280CD60
:103E20009091590493FD8BCFBECF38E0F701A7E402
:103E3000B2E001900D923A95E1F71092490210928A
:103E40004B0210924A02A0908103B09082030A159F
:103E50001B05B1F53091590435FF32C0409119016D
:103E600041FB992490F841FF02C036FF29C04091E0
:103E70007F0350918003B601641B750B409156047B
:103E80005091570464177507D8F491FF08C08091CA
:103E9000190180618093190182E00E94470B809193
:103EA0005E0385FF08C0809119018062809319012B
:103EB00080E20E94470B692DC5010E94751A30CD22
:103EC0009091190121FB91F9909319018D7F0E9426
:103ED0002C0B1093820300938103D0928003C09235
:103EE0007F038091190184608093190195CF970118
:103EF00040E0B601C8010E94891A12CD053F4CE589
:103F0000140709F462C008F45AC0063F8CE518078C
:103F100009F461C0D70112963C91332309F444C5DA
:103F2000109264040330BDE51B0708F060C00A3F2F
:103F3000ECE51E0730F4C80182509C45449708F018
:103F400060C00E94780E9093230580932205013172
:103F50003CE5130709F465C108F0E2C009305CE5EF
:103F6000150709F44CC108F0AFC005309CE51907EE
:103F700009F43DC108F095C00330BCE51B0709F406
:103F80002CC108F030C180912205816002301C45AF
:103F900009F426C180912205909123050E94310FDA
:103FA0000E942113BDCC07E225EE45EE68ED7CE5CD
:103FB000BDC406E221EE40EE63EF7CE5B7C407E244
:103FC00025EE44EE64EF7CE5B1C406E221EE42EE5C
:103FD00065EF7CE5ABC407E225EE46EE66EF7CE5D7
:103FE000A5C408E221E045EE69ED7CE59FC40136F9
:103FF000FDE51F0709F4A5CF053A2DE5120709F4E1
:10400000A0CF06318CE5180709F4D2C40A358DE536
:10401000180709F45CC108F038C10115ACE51A07AE
:1040200009F445C10E3D1C4509F44EC1F7018681D6
:104030009781009709F44FC10E949909182F092F01
:10404000F701D280C580C2943FE0C32280910A026A
:104050008770C1F0AD2CDD20B1F0892F807F8034D6
:1040600021F080E2810F883068F08091230582FD85
:1040700009C082E00E94CB1280910A028770AA24B4
:10408000A3948111A12C902E92942FE09222FBE018
:10409000F91508F4ADC1E92DF0E0ED5DF84C0C9494
:1040A0008A3680912205806207302CE5120709F4D8
:1040B00097C080912205806108301C4508F490C0AB
:1040C0008091220580648CC0809122058B7F0D3009
:1040D0004CE5140709F484C080F40B308CE5180714
:1040E00009F493C0809122058C600C301C4508F4C3
:1040F00077C0809122058D7F73C0809122058F7ECD
:104100000F30ACE51A0709F46BC080912205877F58
:1041100000311C4508F464C0809122058F7D60C089
:104120000D3FECE51E0709F478C050F505312CE58C
:10413000120709F480C098F480912205837F03312F
:104140004CE5140709F44CC008F46FC00E94211319
:1041500090912205892F97FB87F9805841C00B3F2A
:104160008CE5180709F447C008F053C08091230577
:1041700081600A3F1C4509F00DCF809323050ACFCB
:104180000130BDE51B0709F462C0B8F48091230536
:104190008C7F0F3FFCE51F0781F38091230583602F
:1041A00001151D4550F380912305982F909591702E
:1041B0008E7F892B90FB81F9E0CF01363DE5130717
:1041C00009F44BC0053A4DE5140709F44DC002301F
:1041D0001D4509F0DFCE60E03BC080912205826082
:1041E00080932205D7CE809122058460F9CF8091FB
:1041F00022058860F5CF809123058260BECF0E94A2
:104200002113809122058068EBCF809122058E7F5B
:10421000E7CF809123058E7FB0CF809123058D7FDE
:10422000ACCF809122058F7BDBCF0E942113809140
:1042300022058F77D5CF8091220582FB992790F9AF
:1042400021E0922790FB82F990FB83F9C9CF61E0CE
:104250008EE090E00E94DB369DCE90912205892F62
:104260008F7E94FF8061BCCF90912205892F8E7F35
:1042700090FF8160B5CF80919C01811104C089E2DB
:104280000E947B0B01CD85E3FBCF0B35EDE51E07CF
:1042900001F10C351D4509F0C9CE8091230582FB43
:1042A000882780F991E089270E94E712BFCE0E94FB
:1042B00021132FEF34E34CE0215030404040E1F730
:1042C00000C000000E94400D0E94451B29CB81E0E8
:1042D000EBCF80E0E9CF828100811181882369F0F2
:1042E000C8010E94DF0DD82E682FC8010E94310C32
:1042F000B8018D2D0E94C30D9FCEC8010E94040CF1
:10430000D82EF6CF202F2F70B22E802F807F19F05D
:10431000B29490EFB922DD20A9F0BB2059F080E2E1
:10432000810F883010F0111107C08B2D0E944E0BA9
:104330000E949E11812F5AC080915705B82AB092D1
:104340005705F6CF812F0E94A817BB2009F450C053
:1043500080E2810F883010F0111104C08B2D0E9473
:10436000470B03C08B2D0E94400B0E949E1140C042
:10437000302F3F70B32E802F807F803219F0B2949F
:1043800080EFB822112321F1113009F4A4C0DD20FF
:1043900009F4ADC0CC2009F47DC020E0D7014C91D8
:1043A00011965C91119712966C91129713967C91CD
:1043B000139714968C910E94280E80915B0481FDC6
:1043C000B9CFF701858180FFB5CF8F70858362C03B
:1043D0008091230582FF40C0DD20C1F1BB2029F080
:1043E0008B2D0E944E0B0E949E1180E00E947D1832
:1043F000A92DA850BB0B149710F40E940E06812F14
:10440000902F0E94610C8111C4C110929E011092E4
:104410009D01AA20B1F080910A0280FD12C0D7014F
:1044200012961C928595859585950E94FC12C70170
:104430000E94AF1B80910A028595859585950E9403
:10444000BF1260E0C7010E94510E7ACA80E00E944C
:10445000A817BB2069F282CFDD2001F1C11004C092
:1044600080912D028B2917C041E0C41206C08091B3
:104470002D028B290E942C0BBBCF80915A048230D5
:1044800078F3C812EDCF0E94210B80910702B81279
:10449000B09207028B2D0E94A117AACFC11006C0AF
:1044A0000E94210B8B2D0E949A17A2CF80915A0453
:1044B00051E0C5120BC0823008F49ACF80915E03A0
:1044C0008B2109F495CF0E94750BEACF823040F31F
:1044D000C812E6CF8DCF80916004DD2021F08C15CD
:1044E00008F486CFD7CFC81608F082CFDBCFCC2018
:1044F000C9F280915E0490915F04193321F080919C
:104500005C0490915D040E94640D812F0E94A817A5
:104510006FCF802F86958695837069F0813009F082
:1045200067CF812F902F9370D11002C090E080E070
:104530000E94E2055DCF812F902F9370D11002C0B1
:1045400090E080E00E94F80553CF812FDD2029F014
:104550000E94D5080E9493074BCF0E94BA07FACF5A
:10456000802F837091F5D11043CF412F429546950E
:104570004770440F440F812F8F70042E01C0880FA5
:104580000A94EAF7212F207114FF07C02FE030E0D2
:1045900001C0220F4A95EAF72095302F36953695BF
:1045A0003370323069F050F440912E02313029F0EE
:1045B000822B84230E941D131BCF842B822BFACFC6
:1045C000282B80912E028227F5CF8695DD2011F0D1
:1045D000802F8170882309F40BCF412F4295469597
:1045E0004770440F440F812F8F70042E01C0880F35
:1045F0000A94EAF7212F207114FF07C02FE030E062
:1046000001C0220F4A95EAF72095302F369536954E
:104610003370323069F050F440915605313029F052
:10462000822B84230E94B012E3CE842B822BFACFFC
:10463000282B809156058227F5CFF02FFF70BF2ED3
:10464000DD2029F08F2F0E94FC12812F24CF812F93
:104650000E949A178B2D0E94BF12CACE123F89F179
:1046600060F4103FB9F0113F81F0DD2009F48CC0F7
:10467000C11060CE802F8F7128C0133F49F1143FC5
:10468000A1F78091230582FF2FC0802F8F71DD203D
:1046900011F31BC080916004DD2079F0C81608F08A
:1046A000A7CE202F2F7181E090E001C0880F2A95BE
:1046B000EAF7909156058927B5CF8C1508F498CE66
:1046C000F0CF802F8F71D110C6CF0E94FC1290CEF8
:1046D00080E0DD2009F4A6CF81E0902F9F7101C01A
:1046E000880F9A95EAF79ECF80915A048230A0F104
:1046F00080910702DD20F1F00E94470B80910A02B1
:104700008770843041F40E94540B802F8F710E9477
:10471000BF12A12C6DCE80915A04C816D0F7202F5D
:104720002F71B22E822F0E94FC1263E08B2D0E940B
:104730000713EFCF0E944E0B80915A04C81640F029
:104740000E94540B0E94750B64E0802F8F71EFCF95
:1047500081E00E94CB12DDCFDD2059F0302F3F7178
:10476000B32E832F0E94FC1263E08B2D0E9407134F
:104770003FCE81E00E94CB1241E04C1508F038CECC
:1047800082E00E94CB1234CEC110B3CE802F8F7145
:1047900062CFDD2019F0C11038CE3BCEC11035CE2E
:1047A00020E0F701408151816281738184810E9400
:1047B000280E80915B0483FF28CE80919D0190910B
:1047C0009E01029709F021CE812F0E942E191DCE45
:1047D000552029F0DC0118968C9185FF73CAC80119
:1047E00097558F3F910511F008F048C020910D01B9
:1047F00030910E012817390724F490930E0180930D
:104800000D01F701228136E1389F5001399FB00C2C
:104810001124A50149595B4F6A01DA0150962C9386
:104820005097928116968C911697992309F44CCA49
:104830001A961C930E9319978F5F16968C930E946D
:10484000D605F6019687858780912D028783809112
:10485000570590915E03892B80870190F081E02DB0
:10486000309741F0D60154966D917C91C5018359E2
:104870009B4F099510936604009365048091590439
:1048800080FF39C00E94D6056C01D70112968C9129
:10489000882309F435CA8091190182FF08C027E4F2
:1048A00032E040E0B60190E080E00E94891A0B31CE
:1048B000BCE51B0709F416CA0C31ECE51E0709F428
:1048C00017CA90911901892F8E7F90FF81600A315C
:1048D000FCE51F0709F40FCAC8019056811520E2B4
:1048E000920728F0905E8115904108F017CA109247
:1048F000820310928103033FBCE51B0709F459CBE7
:1049000008F0FCCA083DFCE51F0709F44CCB093D43
:104910002CE5120709F465CB073D3CE5130709F0C8
:10492000F9CA06E221EE41EE67ED7CE5C7010E947F
:104930004F190C94901C80919A0190919B0108173B
:10494000190781F410929B0110929A01109233047E
:1049500010923404109235041092360410923B04E5
:1049600010923A0480913C0490913D04009709F420
:1049700036CFA8E08A16910408F099C9642D0E94E8
:104980006B0681112CCF81E00E94FE1728CF0031E9
:104990003FE5130709F489C801314FE5140711F009
:1049A0000C94211C82E082C806311C4509F03ECBE4
:1049B00080915E03982F9A7A2091580420FF04C0BA
:1049C000482F447409F090E021FF04C0482F417142
:1049D00009F090E022FF04C0482F487809F090E0E9
:1049E00023FF03C0827209F090E0332309F443CC23
:1049F00081E0911101C080E080939C0189E29111D6
:104A000085E30E94A60B40C9A114B10409F008C9AE
:104A1000512CB12CA12C80E00E94FE17D0923D04B5
:104A2000C0923C0481E080933904F6018581809333
:104A3000370451100EC0AB2861F0F60180819181DE
:104A40009C0124503109213A310508F010C90E9417
:104A50007B0BD6011696AD90BC90C5019A95811539
:104A60009F4110F4E0EEBE2277247394C5010197B4
:104A7000853A9D4508F0712CD6011996ED91FC916F
:104A80001A97309731F01B966D917C9181E00995D2
:104A90007822772079F0F601868197810E947C0C3C
:104AA00080933804C501F8E08F16910408F0E2C83D
:104AB0000E941A060E949E11E4C8CF92DF92EF92E4
:104AC000FF920F931F93CF93DF938091C201807F5A
:104AD00031F48091BF01C091060281110BC0DF91BA
:104AE000CF911F910F91FF90EF90DF90CF9008959D
:104AF0002196C7708091C5018C1789F3F090BD0194
:104B0000E090BE01C090C001D090C101A6016E2D01
:104B10008F2D0E948B06D0E08111EACF8E0183E0B9
:104B2000000F111F8A95E1F7F801EA53FE4F8181CA
:104B30008E11DECF80818F11DBCF82818111D8CFA2
:104B4000E380F480EC18FD0860E08DEB91E00E94BA
:104B5000510E8091560490915704E816F90640F6DC
:104B60008091C2018F7080618093C201F801E5538A
:104B7000FE4F80818F70806180838DEB91E00E9479
:104B8000AF1BDF91CF911F910F91FF90EF90DF90BE
:104B9000CF900C94FA0B3F924F925F926F927F925C
:104BA0008F929F92AF92BF92CF92DF92EF92FF923D
:104BB0000F931F93CF93DF93CDB7DEB765970FB6F3
:104BC000F894DEBF0FBECDBF8C0185E0F801DE0199
:104BD000519601900D928A95E1F7D8014C9011966B
:104BE0005C9011971296EC9012971396CD90DC90F2
:104BF00060E08DEB91E00E94510E8DEBA82E81E0DC
:104C0000B82E8090C0019090C101A4016091BE01B6
:104C10008091BD010E948B068111CAC1F090BF0135
:104C2000F601E819F9094F0160E0FF2009F46DC1B0
:104C3000C5010E94510E6090560470905704309048
:104C4000C2018614970408F013C14091C00150912D
:104C5000C101B090BD01A090BE01832D807F6A2D5F
:104C600009F0ADC08B2D0E948B06FE2C81113BC03C
:104C7000D80111968C9111978A1135C08C918B11A6
:104C800032C02091C3013091C40116968D919C9140
:104C90002817390741F5E11026C0832D8F708061F8
:104CA0008093C2018DEB91E00E94AF1B8091C20105
:104CB000F80185838F2D65960FB6F894DEBF0FBE81
:104CC000CDBFDF91CF911F910F91FF90EF90DF90BB
:104CD000CF90BF90AF909F908F907F906F905F909C
:104CE0004F903F900895F4EF6F16F1E07F0620F4A7
:104CF00080915B0480FF21C0A601652D842D0E9458
:104D00008B06811118C081E08E2580FF16C04E2DC4
:104D1000652D842D0E94DA0B882379F08DEB91E0CC
:104D20000E94AF1B88E0EDEBF1E0DF011D928A9558
:104D3000E9F7F12CBFCF80E0E8CFA601652D842DE7
:104D40000E948B06811124C081E08E25B82FB1709E
:104D5000CB2E80FF2BC04E2D652D842D0E94DA0BAB
:104D6000D82E811123C0498A5A8A89899A890E943A
:104D70000E0E292F22952F70223060F0243088F4F7
:104D80009F7061F0F8019581907F41F4FD2C92CFE6
:104D900080E0DCCF9F7011F08823C1F3805E883003
:104DA000A8F3C8010E94AF1BDC2CF0CFEE2009F461
:104DB00081CF8091C20181608093C201BACF8B2DD7
:104DC0000E948B06811124C0D80111968C911197F5
:104DD0008A111EC08C918B111BC02091C301309190
:104DE000C40116968D919C9117972817390781F465
:104DF000E1100EC015963C92C8010E94AF1B88E0DE
:104E0000F801ADEBB1E001900D928A95E1F752CF38
:104E1000C8010E941A0E882339F1EE2029F18091F1
:104E2000C2018032A0F02091BD013091BE013A87CD
:104E300029871B86DD86CC868E878091C301909161
:104E4000C401988B8F87CE0109960E94AF1B88E022
:104E5000F801ADEBB1E001900D928A95E1F70E9467
:104E60005D25FF24F39426CFC8010E94AF1BF9CF24
:104E7000832D807F09F452CF9090BD018090BE01B8
:104E80004091C0015091C101682D892D0E948B066F
:104E900081111CC0F8018181881118C0808189119D
:104EA00015C02091C3013091C401868197812817D4
:104EB000390761F4E1100AC03582C8010E94AF1BB6
:104EC00088E0D5011D928A95E9F7F4CEC8010E94C9
:104ED0001A0E882349F2EE2039F28091C201803205
:104EE00008F4B5CF2091BD013091BE013A832983EA
:104EF0001B82DD82CC828E838091C3019091C4019C
:104F000098878F83CE010196A0CF8DEB91E00E9410
:104F1000510E80915604909157048816990680F698
:104F2000FE2CEE2009F4A0CFE090BD01D090BE0190
:104F30004091C0015091C1016D2D8E2D0E948B06B4
:104F4000811128C0F80181818D1124C080818E11CA
:104F500021C02091C3013091C40186819781281717
:104F60003907C1F480915B0482FD49CF9091C20161
:104F700090FD45CF907F09F442CF8091C201858397
:104F8000903F09F439CF982F907F905F8F70892BD5
:104F9000858332CFC8010E941A0E811158CF8091AB
:104FA000C20181608093C201C8010E94AF1B82CE02
:104FB000EE2009F459CFC8010E941A0EF82E88235A
:104FC00009F452CF88E0F801ADEBB1E001900D9209
:104FD0008A95E1F78091BD019091BE010E940E0E6D
:104FE0000E945D2567CECF93DF93CDB7DEB7609784
:104FF0000FB6F894DEBF0FBECDBF29873A874B8727
:105000005C876D877E878F87988BCE0109960E947B
:10501000CB2581112FC088E0FE013996DE01119663
:1050200001900D928A95E1F74C855D856A858985A9
:105030000E948B0681111EC0A091C501B0E0CD0178
:10504000019687709927209106022817190609F101
:1050500093E0AA0FBB1F9A95E1F7AA53BE4F98E0C1
:10506000FE01319601900D929A95E1F78093C5016A
:105070000E94FA0B809106029091C501891317C016
:1050800060960FB6F894DEBF0FBECDBFDF91CF9113
:1050900008950E9421131092C5011092060288E023
:1050A000EDEBF1E0DF011D928A95E9F7E3CFB8E07F
:1050B0008B9FC00111248A539E4F0E94CB258823C9
:1050C000F9F28091060290E001968770992780930B
:1050D0000602D0CFEF92FF920F931F93CF93DF93EF
:1050E00080918603882361F0C09185038CE0F82EBF
:1050F00080918603C81758F010928603109285039A
:10510000DF91CF911F910F91FF90EF900895EE24C2
:10511000E394EC0EE09285030C2F10E0CF9DE001AC
:105120001124C957DC4F4B815C81698188810E94C1
:105130008B0681111DC08E819F81892B21F488856A
:105140009985019651F4288139814A815B816C816E
:105150007D818E819F810E94F327F09EF001F19E58
:10516000F00D1124E957FC4F148213821092570559
:10517000CE2DBECF10922A041092290410921A014B
:1051800080912804809327040E94C4060C946A2806
:105190003F924F925F926F927F928F929F92AF92C7
:1051A000BF92CF92DF92EF92FF920F931F93CF9314
:1051B000DF93C091270497E0892E01E010E02CE0F6
:1051C000322E3EEF932E44244394809128048C1376
:1051D00015C00E946A28DF91CF911F910F91FF9017
:1051E000EF90DF90CF90BF90AF909F908F907F9087
:1051F0006F905F904F903F900C94C406D0E0FE01FA
:10520000EE0FFF1FE15EFB4F80819181889ED001F0
:10521000899EB00D1124A951BC4F14962C9114975E
:10522000211157C050908603E7E8F3E030E020E01A
:10523000712C5D01251508F04AC0E284F384D50184
:10524000CD90DC906FEF7FEF612C462D50E0DA01BE
:10525000AA0FBB1FAC0DBD1D0D90BC91A02D1097CA
:1052600031F0EA16FB0609F4BA016394EECF6F3F02
:105270007607A1F1D80102C0AA0FBB1F6A95E2F719
:105280007A2AB80102C0660F771F6A94E2F7AB0171
:105290004150510974161506F9F4329EF001339EFF
:1052A000F00D1124E957FC4F889ED001899EB00D66
:1052B0001124A951BC4F12962D913C91139737831D
:1052C0002683908291829187808715964C920E94C6
:1052D00096062196C37079CF148213822F5F3F4FB9
:1052E0003C96A8CF2F923F924F925F926F927F92FF
:1052F0008F929F92AF92BF92CF92DF92EF92FF92E6
:105300000F931F93CF93DF93CDB7DEB769970FB697
:10531000F894DEBF0FBECDBF942F498B252F5A8B3B
:105320006B8B7C8B8D8B4C895D89622F892F0E94C2
:105330008B06811109C080919D0190919E0101967B
:1053400090939E0180939D018B8981111092570546
:105350001D861E861F86188A85E0FE017196DE0175
:10536000199601900D928A95E1F78091230582FDAF
:105370001EC08091400490914104892BC1F00E948D
:10538000D6052091080230910902821B930B2091CF
:105390004004309141048217930720F080910A0263
:1053A00082FFF5C10E945B0B81110E94210B4C858D
:1053B0005D856A8589850E948B06811111C061E037
:1053C000CE0109960E94510E6C018B8527EFC21603
:1053D0002CE5D20681F4882321F181E080931A0123
:1053E00029853A854B855C856D857E858F85988975
:1053F0000E94F327C5C038EFC3163CE5D30629F455
:10540000882379F00E94BA28EBCF49EFC4164CE507
:10541000D40639F4882329F080911A018111F2CF42
:10542000DCCF07EE13E0512CB12CA12C22242394C5
:10543000312C2EEF422EF8014081518188248A942C
:10544000982C20E0822F90E0FC01EE0FFF1FE40F6C
:10545000F51F608171816115710531F0C616D7069F
:1054600009F44C012F5FEECFF12CFFEF8F169F0652
:1054700009F448C0F8014481F0901A018F2D4111C0
:1054800080E0F82FF170FF2EF801E58086819B8582
:10549000992309F40CC1FF2009F409C16090540458
:1054A00070905504E11012C0A10101C0440F8A940C
:1054B000EAF7842B86838091830390918403861579
:1054C000970520F47092840360928303C10102C0A7
:1054D000880F991F2A95E2F70197F801268128176E
:1054E000190681F48091290490912A04009709F407
:1054F00060C00E94BB056816790608F05AC021E01A
:10550000F80124835F28FFEFAF1ABF0A095F1F4F1E
:1055100028E0A216B10409F08ECF8B85882309F408
:1055200021C1552009F41EC10E94D60590932A047A
:105530008093290480918603883010F591E0980FBC
:105540009093860398E0FE013996DE011196019052
:105550000D929A95E1F73CE0839FC0011124895791
:105560009C4F28E0FE013196DC0101900D922A95B6
:10557000E1F72FEF3FEFFC0131872087D386C2860A
:1055800069960FB6F894DEBF0FBECDBFDF91CF9105
:105590001F910F91FF90EF90DF90CF90BF90AF9051
:1055A0009F908F907F906F905F904F903F902F9043
:1055B00008958091270450912804982FF0E0E0E0AE
:1055C000851314C090932704E017F10709F49ACFCC
:1055D00090E0FC01EE0FFF1FE15EFB4FB182A08265
:1055E000019683709927809328048CCF682E712CA4
:1055F000F301EE0FFF1FE15EFB4F2081318147E099
:10560000429FD001439FB00D1124A951BC4F6D9111
:105610007C911197798F688F40E020E030E0E32F94
:10562000F0E0EE0FFF1F688D798DE60FF71F808089
:10563000918081149104E1F0F8010190F081E02D56
:10564000FF8BEE8B20E005C08616970609F44F2DE0
:105650002F5FE22FF0E0EE0FFF1F6E897F89E60FCC
:10566000F71F608171816115710571F73F5FD7CFB9
:105670004423D1F0F801231708F0FD0121E0248331
:105680000E171F0721F490932704F42E3BCF981395
:1056900005C0AE17BF0711F49F5F937093012F5F92
:1056A0003F4F822F83708CCFF0E0E0E0F7CF90E0A7
:1056B000E1101FC0B10102C0660F771F2A95E2F703
:1056C0009B01215031098217930731F4442309F4D7
:1056D00047C0C5010E949606C10101C0880F8A9487
:1056E000EAF7982F9095F801868189238683FE2C0E
:1056F00009CF9C01082C02C0359527950A94E2F742
:10570000A90141705527BC01615071098623972377
:10571000892B11F5452B01F1F80182819381892BA9
:10572000C1F01B821C821D821E8249824A820E9415
:10573000D6058160582F9D838C83F80182819381E7
:105740008F83988729813A814B816D817E810E9468
:10575000F327F8011582C0CFF22FF170EF2EBCCFE6
:10576000EF2CBACF9091270480912804981731F03C
:105770000E94C828552009F433CE02CF0E946A281F
:1057800010922A04109229040E94C406F3CF82E0EA
:105790000E94CB1207CECF93DF9300D000D00F92A0
:1057A000CDB7DEB790935B0380935A03811520E257
:1057B000920748F40F900F900F900F900F90DF9189
:1057C000CF910C9465188EEF89838A831B820E9487
:1057D000D6058160782F9D838C8349815A816B81A6
:1057E0008D810F900F900F900F900F90DF91CF91C0
:1057F0000C9472290F931F93CF93DF938C01EB01CD
:1058000063E772E08C2F0E943E0F892BA1F48091F8
:105810005C0490915D040E94640DDD27C559DD4F45
:105820008881F80110821882833009F148F48130B0
:1058300059F0823081F0DF91CF911F910F9108953F
:105840008430D1F08530B9F7809173029091740261
:10585000009789F306C080917502909176020097B7
:1058600099F3DF91CF911F910F910C94CB2B8091E5
:10587000770290917802F3CF8091790290917A0229
:10588000009779F72091730230917402809175022C
:105890009091760221153105D9F2009711F7C901CF
:1058A000E0CFCF93DF9300D000D00F92CDB7DEB71B
:1058B00090935B0380935A03811520E2920748F48A
:1058C0000F900F900F900F900F90DF91CF910C944D
:1058D0005E1A8EEF89838A8381E08B830E94D605CE
:1058E0008160782F9D838C8349815A816B818D8162
:1058F0000F900F900F900F900F90DF91CF910C941D
:105900007229CF93DF93EC010E94512C80915C04AB
:1059100090915D040E94640DCE01DF91CF910C94B3
:10592000CB2B0F931F93CF93DF938C01862F63E7CD
:1059300072E00E943E0F892BC9F4C0917302D0918E
:105940007402209799F0F8018081833069F4CE01C8
:105950000E94812CCE010E94812CCE01DF91CF913B
:105960001F910F910C94812C8430B8F7DF91CF9167
:105970001F910F9108950F931F93CF93DF938C0185
:10598000EB0163E772E08C2F0E943E0F892B09F038
:1059900064C0FE01FF27D8018C91E559FD4F81308D
:1059A000D9F419969C911997992311F080830CC012
:1059B0001A969C919923D1F382E08083809175029D
:1059C000909176020097D9F48091730290917402BD
:1059D000009709F442C013C08230E9F519968C9102
:1059E000199781112DC01A968C9181110EC083E0F8
:1059F00080838091770290917802009719F1DF916E
:105A0000CF911F910F910C94512C84E08083809151
:105A1000790290917A02009791F7809173029091A8
:105A200074020097F9F00E94812C80917502909188
:105A30007602009721F78091730290917402DFCF74
:105A400085E080838091730290917402009729F021
:105A50000E94812CF0CF86E08083DF91CF911F914F
:105A60000F9108958091750290917602B1CF1F92A7
:105A70000F920FB60F9211242F933F934F935F9382
:105A80006F937F938F939F93AF93BF93CF93DF9346
:105A9000EF93FF93D091E900DF708091EC00C82F65
:105AA000C17080FDC0E81092E9008091F000877F0E
:105AB0008093F00078940E9436131092E900809150
:105AC000F00088608093F000CD2BCF70C093E90088
:105AD000FF91EF91DF91CF91BF91AF919F918F9106
