:100000000C94B9030C9400040C9400040C940004A8
:100010000C9400040C9400040C9400040C94000450
:100020000C9400040C9400040C94BD200C947920D2
:100030000C94BA210C9400040C9400040C94000459
:100040000C9400040C9400040C9400040C94000420
:100050000C9400040C9496210C9400040C9400045D
:100060000C9400040C9400040C9400040C94000400
:100070000C9400040C9400040C9400040C940004F0
:100080000C9400040C9400040C9400040C940004E0
:100090000C9400040C9400040C9400040C940004D0
:1000A0000C9400040C9400040C9400040501090253
:1000B000A10185020901A1000509190129081500FE
:1000C0002501950875018102050109300931158165
:1000D000257F95027508810609381581257F9501D0
:1000E00075088106050C0A38021581257F95017572
:1000F000088106C0C005010980A101850319012AF4
:10010000B700150126B700950175108100C0050CD8
:100110000901A101850419012AA002150126A002E6
:10012000950175108100C005010906A1018506052C
:100130000719E029E71500250195087501810205D9
:1001400007190029EF1500250195F07501810205B9
:10015000081901290595057501910295017503910D
:1001600001C00660FF0961A1010962150026FF00B8
:100170009520750881020963150026FF00952075FA
:10018000089102C005010906A101050719E029E748
:1001900015002501950875018102950175088101F9
:1001A0000507190029FF150026FF0095067508812F
:1001B000000508190129059505750191029501753C
:1001C000039101C0000000000000000000000000DA
:1001D000000000000000000000000000000000001F
:1001E00000000000000000007E0F00D4FFFFFFC7EA
:1001F0000000007800000000000000002A2B28000A
:1002000000000000000000000000000000000029C5
:10021000000000002C1E3420212224342627252E05
:10022000362D3738271E1F2021222324252633333D
:10023000362E37381F0405060708090A0B0C0D0E69
:100240000F101112131415161718191A1B1C1D2F35
:100250003130232D350405060708090A0B0C0D0E55
:100260000F101112131415161718191A1B1C1D2F15
:100270003130354C00047F3F1F64321464321478EF
:100280003C1E1E140A0500010101010101010101CA
:100290000202020202020202020303030303030337
:1002A0000304040404040404050505050506060604
:1002B0000606070707070708080808090909090AC1
:1002C0000A0A0B0B0B0C0C0C0D0D0D0E0E0E0F0F66
:1002D0000F101011111112121313141415151616F4
:1002E0001717181819191A1A1B1B1C1D1D1E1E1F63
:1002F0002020212222232424252626272829292AB2
:100300002B2C2D2D2E2F30313232333435363738D9
:10031000393A3B3C3D3E3F404142434445464748D5
:10032000494A4C4D4E4F50515354555658595A5BAB
:100330005D5E5F616264656668696B6C6D6F70724B
:10034000737577787A7B7D7E8082838587888A8CB7
:100350008E8F91939596989A9C9EA0A2A3A5A7A9EB
:10036000ABADAFB1B3B5B7BABCBEC0C2C4C6C9CBE2
:10037000CDCFD1D4D6D8DBDDDFE2E4E7E9EBEEF098
:10038000F3F5F8FAFDFFFFAA7F55400001020304D0
:1003900005060708090A0B2223252628292A2C2DC1
:1003A0002F3032333536383A3B3D3E4042434547A5
:1003B000494A4C4E5051535557595A5C5E606264DD
:1003C0006668696B6D6F71737577797B7D7F8183EB
:1003D0008587898A8C8E90929496989A9C9E9FA1EC
:1003E000A3A5A7A8AAACAEAFB1B3B4B6B8B9BBBC0D
:1003F000BEBFC1C2C3C5C6C7C9CACBCCCDCED0D182
:10040000D2D2D3D4D5D6D7D7D8D9D9DADADBDBDB79
:10041000DCDCDCDCDCDDDDDDDDDCDCDCDCDCDBDB1A
:10042000DBDADAD9D9D8D7D7D6D5D4D3D2D2D1D06E
:10043000CECDCCCBCAC9C7C6C5C3C2C1BFBEBCBB6B
:10044000B9B8B6B4B3B1AFAEACAAA8A7A5A3A19FE3
:100450009E9C9A98969492908E8C8A8987858381A7
:100460007F7D7B79777573716F6D6B696866646288
:10047000605E5C5A5957555351504E4C4A49474556
:100480004342403E3D3B3A3836353332302F2D2CF7
:100490002A29282625232229001F002100230025A0
:1004A0000027002E001E0020002200240026002D20
:1004B0000031002B001A0015001C000C0013003046
:1004C00000140008001700180012002F002A00393D
:1004D00000160009000B000E003300520004000754
:1004E000000A000D000F0034002800E1001D000686
:1004F00000050010003700E50050001B0019001136
:1005000000360038004F00E0000000E2000000006C
:1005100000E700E400E30000002C000000E60051CA
:1005200000350035003B003D003F004100430045E1
:10053000003A003C003E004000420044000100013F
:1005400000C35CC65CC85CCA5C01000100C25CC53B
:100550005CC75CC95C01000100005C010001000196
:100560000001000100010001000100010001000183
:100570000001000100010001000100BD5CBE5C0142
:10058000000100010001000100BF5CC05C0100012E
:100590000001000100000001000000000001000156
:1005A000000100000001000000010001004C0001FA
:1005B0000001000100010001000100010001000133
:1005C0000001000100010001000100010001000123
:1005D0000001000100010001000100010001000113
:1005E0000001000100010001000100010001000103
:1005F00000010001000100010001000100010001F3
:1006000000010001000100010001000100010001E2
:1006100000010001000100010001000100010001D2
:1006200000000001000000000001000100010000C6
:1006300000010000000100010001000100010001B3
:1006400000010001000100010001000100010001A2
:100650000001000100010001000100010001000192
:100660000001000100010001000100010001000182
:100670000001000100010001000100010001000172
:100680000001000100010001000100010001000162
:100690000001000100010001000100010001000152
:1006A0000001000100010001000100010000000143
:1006B0000000000000010001000100000001000036
:1006C0000001000100010009025B00030100A0FA23
:1006D00009040000010301010009211101000122A8
:1006E00040000705810308000A0904010002030015
:1006F00000000921110100012222000705820320C8
:1007000000010705030320000109040200010300A2
:10071000000009211101000122B600070584032011
:10072000000A1201000200000008584302060001FE
:10073000010200012203630068006C0078002000C1
:100740007300740072002E006D006500720072006C
:100750006F003600300000001403630068006C0076
:1007600078002000620073006D0074000000040334
:10077000090411241FBECFEFDAE0DEBFCDBF04B6FF
:1007800003FE27C08091B8029091B902A091BA02ED
:10079000B091BB028730904BA740B04BD1F4109280
:1007A000B8021092B9021092BA021092BB0214BEA3
:1007B00084B7877F84BF0FB6F894A89580916000B6
:1007C000886180936000109260000FBEE0E0F8E363
:1007D000099511E0A0E0B1E0E6E0F1E502C0059086
:1007E0000D92A239B107D9F722E0A2E9B1E001C028
:1007F0001D92A83BB207E1F70E94E1210C944A2820
:100800000C940000E8EDF0E080818E7F80831092F0
:10081000E2001092DA001092E100A0EEB0E08C91BC
:1008200081608C9380818F77808319BCA7EDB0E0C5
:100830008C918E7F8C9380818F7E80831092850235
:1008400008952091E4003091E50095E6A9012091FA
:10085000EC00822F817020FF06C08091E80080FFAD
:1008600006C080E008952091E80022FD1AC0809122
:10087000AA02882389F0853089F08091EB0085FDFC
:100880000FC02091E4003091E50042175307F9F2C0
:100890009150E1F684E0089582E0089583E00895A0
:1008A00081E00895EF92FF920F931F93CF937C0105
:1008B0008B010E942104C82F811117C08091E8008C
:1008C00085FD0BC08091E8008E778093E8000E9440
:1008D0002104882399F3C82F08C0F70181917F0173
:1008E0008093F1000150110949F78C2FCF911F918E
:1008F0000F91FF90EF9008958091AC0287FF13C095
:100900008091E80082FF06C08091E8008B77809399
:10091000E80004C08091AA028111F2CF089580916D
:10092000AA028823D9F38091E80080FFF8CF809154
:10093000E8008E77ECCF982F9093E900242F762F44
:1009400050E0891731F07091EC002091ED0050914A
:10095000F00021FD07C09F5F973071F78093E90099
:1009600081E008953091EB003E7F3093EB003091B1
:10097000ED003D7F3093ED003091EB00316030931E
:10098000EB007093EC002093ED005093F000209169
:10099000EE0027FDE0CF80E00895CF92DF92EF9246
:1009A000FF920F931F93CF93DF93C8EDD0E0888120
:1009B0008F7E8883E7EDF0E080818160808384E032
:1009C00082BF81E08093850288818E7F888302EEDA
:1009D00010E0F80110821092DA0081EEC82ED12CBE
:1009E000F601108288818F77888388818068888368
:1009F00088818F7D888319BC1092AA021092AB0265
:100A00001092A9021092A80290EEE92EF12CF701A3
:100A100080818B7F808388818160888342E060E071
:100A200080E00E949B04F60180818E7F8083F80124
:100A3000808181608083808188608083F7018081EC
:100A40008E7F8083888180618883DF91CF911F9121
:100A50000F91FF90EF90DF90CF900895FC0180916F
:100A6000B2029091B30286179707A0F06115710545
:100A700029F49091E8009E779093E80090E061154A
:100A8000710551F4911108C08091E80082FF34C0D3
:100A900080E00895BC01F2CF8091AA028823C1F1C1
:100AA0008530C1F18091E80083FD30C08091E8007D
:100AB00082FDEACF8091E80080FFE1CF8091F300D2
:100AC0002091F200382F6115710519F02830310599
:100AD00058F091E02830310509F090E02091E800CD
:100AE0002E772093E800CBCF81918093F100615065
:100AF00071092F5F3F4FE7CF8091AA02882341F011
:100B0000853041F08091E80083FFBECF81E00895F9
:100B100082E0089583E00895089580918702089502
:100B20009C014FB7F89480917C0290917D02A09136
:100B30007E02B0917F024FBF821B930B08952FB7A7
:100B4000F89480917C0290917D02A0917E02B091F8
:100B50007F022FBF08952091790230917A022817E1
:100B6000390771F090937A0280937902E0917702CD
:100B7000F0917802309721F00084F185E02D0994FE
:100B8000089520917502309176022817390771F087
:100B90009093760280937502E0917702F09178024B
:100BA000309721F00680F781E02D09940895E091B7
:100BB0007702F0917802309721F00190F081E02DDA
:100BC000099480E00895FA01811101C0FB010994A4
:100BD000089580917002982F9E7F29F48170826021
:100BE0008093700208958A34E8F381708864F8CFA6
:100BF000AF92BF92DF92EF92FF920F931F93CF932A
:100C0000DF93082F162FE901E42FF0E0EA57FD4F9C
:100C1000611110C0E4915E2F4E2F4983E8835A83FF
:100C2000DF91CF911F910F91FF90EF90DF90BF90D8
:100C3000AF900895E62EF12C4491D42EE42FF0E0ED
:100C400026E0829FC00111242FEF30E0B9010E94FD
:100C50005427802F90E0880F991F55E5569FD001AB
:100C6000579FB00D11248A1B9B0B982F990F890F4A
:100C70005901AE18BF08AE9ED001AF9EB00DBE9E0A
:100C8000B00D11245B2F189F80011124012F112713
:100C90005901A01AB10AAE9E8001AF9E100DBE9EF2
:100CA000100D11245901A81AB108AE9CC001AF9CC7
:100CB000900DBE9C900D1124892F9927281B390B6C
:100CC0002E9FC0012F9F900D3E9F900D1124E92F64
:100CD00062307105A1F050F46115710509F49DCFE2
:100CE0006130710581F0EB2F512F97CF6430710582
:100CF00069F080F06630710509F48FCFF4CFE42FEE
:100D00004B2F592F8ACFE42F412F87CFEB2F542F12
:100D1000492F83CF4B2F5D2DE12F7FCF0E949F0561
:100D20009C0190913D0280913E02982B21F03093DE
:100D30003A022093390290913F0280914002982B11
:100D400021F03093380220933702E0917702F0913E
:100D50007802309749F082E080933B020480F5816D
:100D6000E02D8BE392E00994089540913D02803F8D
:100D700059F480913E0287FF0DC010923E0241114E
:100D80000BC01092350208C0813F81F480913E0271
:100D900018169CF3442381F080913F029091400209
:100DA000892B09F05AC0109234020895823F49F409
:100DB00047FFF0CF10923D0280913E028111ECCFAF
:100DC000E0CF833F19F41416ACF3E4CF90913F02C7
:100DD000893F29F41916F4F610923F02DBCF8A3FBF
:100DE00019F497FFD7CFF8CF909140028B3F29F4A9
:100DF00097FFD0CF10924002CDCF8C3F19F4191637
:100E0000CCF3C8CF9CE0980F953090F4845F990B99
:100E100021E030E0B90102C0660F771F8A95E2F742
:100E2000CB01809590913C02892380933C02B2CF04
:100E30008D3F31F4809136028E7F80933602AACFA7
:100E40008E3F21F4809136028D7FF7CF8F3F09F0DE
:100E5000A1CF809136028B7FF0CF0895809136022A
:100E600080FD16C081FD16C082FD16C0809134023F
:100E70008823A1F0883280F428E0829FC0011124E9
:100E800068E270E00E946827862F672B39F008958A
:100E900082E0089584E0089588E0089581E008954F
:100EA0008091360280FD14C081FD14C082FD16C001
:100EB00080913502882381F0843180F422E3829F7F
:100EC000C001112464E170E00E946827862F089514
:100ED0008CE0089589E1089585E0089582E30895FE
:100EE000803F31F40E945007819580933E0208951F
:100EF000813F19F40E945007F8CF823F31F40E94DD
:100F00005007819580933D020895833F19F40E9414
:100F10005007F8CF893F29F40E942E0780933F02A3
:100F200008958A3F21F40E942E078195F7CF8B3FC9
:100F300031F40E942E0781958093400208958C3FE2
:100F400019F40E942E07F8CF9CE0980F953070F4AA
:100F5000845F990B21E030E001C0220F8A95EAF707
:100F600080913C02822B80933C0208958D3F31F4A6
:100F70008091360281608093360208958E3F21F47D
:100F8000809136028260F7CF8F3FB9F780913602A9
:100F90008460F1CF80E00895F894E82FE295EF7037
:100FA000F0E031A1282F2F7081E090E001C0880F80
:100FB0002A95EAF7982F9095932391A392A1892BD4
:100FC00082A3789408959091800292FF06C0282F02
:100FD00028712830F9F4877F846093FF06C0282F9A
:100FE00028712831F1F4877E84612091810220FFED
:100FF00006C0382F38713830D9F4877F816021FFDF
:1010000006C0282F28712831D1F4877E816194FD94
:10101000877E0895282F24712430F9F68B7F88600D
:10102000DCCF282F2471243101F78B7E8861DDCF3E
:10103000382F3171313019F78E7F8860E0CF282F3B
:101040002171213121F78E7E8861E1CFCF93DF932B
:10105000EC0182389105A9F1D8F58133910509F4A5
:1010600096C048F58932910509F48AC08A9709F437
:1010700095C0C11521E5D20708F0BCC0C11530E507
:10108000D30708F014C1C83ED10508F09CC0C13E8A
:10109000D10560F5C83AD10508F087C0C53AD10539
:1010A00008F0FDC0C130D10509F12097F9F0C43036
:1010B000D105E0F440C08533910509F45AC0C997C1
:1010C000C1F680918002837089F0C0EED0E00EC03E
:1010D000833E910599F170F4803E910501F1823EC5
:1010E000910539F68091800282FD21C0CE01DF9109
:1010F000CF910895863E910561F1873E910571F18A
:10110000843E910509F0B5CF8091810281FFEECF39
:1011100080918002C7EED0E084FD0DC0E7CF8091C2
:10112000800280FD12C19091810290FFDFCFC3EE5B
:10113000D0E084FFDBCFD0E0C0E0D8CF8091800248
:1011400082FD06C19091810290FDBFCF84FFCECF7A
:10115000F2CF8091800283FDDDCFC8CF80918002E5
:1011600083FDF9C09091810291FFF0CFC4EED0E0F1
:10117000BDCF8091800285FFB9CFC9E2D0E0B6CF64
:101180008091800285FFB2CFC5E3D0E0AFCF8091E0
:10119000800286FFABCFCAE2D0E0A8CF8091800268
:1011A00086FFA4CFC1E3D0E0A1CFCF3BD10518F695
:1011B000C85AD0E0CC0FDD1FC25EDE4F0990D88147
:1011C000C02DD46493CFC11540E2D40758F4C115A3
:1011D00081E0D80708F08ACFC03FD10508F4ABCF33
:1011E000D06584CFC11590E4D90708F4A4CFDF708F
:1011F000D06A7CCFC11525E5D20700F5C11534E5CD
:10120000D30708F08AC0C11543E5D40708F071C0C0
:10121000C11582E5D80708F467C0CE01837099270D
:1012200021E030E002C0220F331F8A95E2F7C69515
:10123000C69580E2C89FE001112452C0C11599E50E
:10124000D907A8F4C11528E5D20708F06BC0C1156D
:1012500036E5D30708F06FCF8C2F0E94E307C82F25
:10126000D0E0DC2FCC27CC27DF71D0623FCFC11577
:101270004AE5D40708F45BC0CE0190568115904230
:1012800008F059CF8D2F8F710E94E30790E0982FBF
:10129000882788279F719C012C2BE901E6CFC55A2E
:1012A000D0E0C55EDE4FC881D0E0D0641FCFCE0154
:1012B000E4E096958795EA95E1F783702C2F2695C3
:1012C0002695237040E2249F90011124382B8C2F07
:1012D0008370C1E0D0E002C0CC0FDD1F8A95E2F739
:1012E000C22BD32BDC6802CFDC2FCC27C16FD06A96
:1012F000FDCECE018370992721E030E002C0220F9D
:10130000331F8A95E2F7C695C69590E2C99FE00122
:101310001124C22BD32BDA68E9CEDC2FCC27C46F83
:10132000D06AE4CEDC2FCC27C06FD06ADFCE8C2F02
:101330008F700E94E30734E0D695C7953A95E1F7A0
:10134000CF709C2FEC01D069D1CEC9E3D0E0CECED6
:10135000C2EED0E0CBCEC6EED0E0C8CE80910C027B
:10136000811110920C020895809590910B029823A0
:1013700090930B02089580910B0290910A02892BA1
:1013800090910902892B8093940190910C029923EA
:10139000A1F0892B8093940180911A01882341F157
:1013A0008091800287FF24C08EE1E6E9F1E090E0C1
:1013B000815000F591110E94AE09E0917702F09101
:1013C00078023097E1F080911A01882359F08091DA
:1013D000800287FF07C0809194018093950186E089
:1013E000809394010280F381E02D84E991E00994D7
:1013F00086E0DBCF21912223D9F29F5FD9CF0895D8
:1014000090911A019923D1F09091800297FF16C014
:10141000E82FE695E695E695EE31E0F4F0E0EC563F
:10142000FE4F282F277081E090E001C0880F2A9599
:10143000EAF780959281892382830895E6E9F1E0B5
:101440009191891303C0DF0111971C9291E0EC394F
:10145000F907B1F7089590911A019923C1F090917D
:10146000800297FF14C0E82FE695E695E695EE31E9
:10147000F8F4F0E0EC56FE4F877021E030E001C058
:10148000220F8A95EAF78281822B82830895A6E94A
:10149000B1E0EFEF90E02D91821751F0EF3F19F49A
:1014A000211101C0E92F9F5F9630A9F7EF3F09F4A2
:1014B00008950E2E000CFF0BEC56FE4FE6CF8091E8
:1014C00007029091D601981301C008958F5F87702D
:1014D000FACF27E0929F800D1124982F9770869560
:1014E0008695869523E0829FF0011124EB54FE4FF0
:1014F00050E040E080E0219130E0092E02C03695B6
:1015000027950A94E2F721703327042E01C0220F99
:101510000A94EAF7822B4F5F5F4F4330510559F72A
:10152000089527E0929F800D1124982F977041E035
:1015300001C0440F9A95EAF786958695869593E0C3
:10154000899FF0011124EB54FE4F90E080E070E0A1
:101550005191DF0111979B01082E02C03695279506
:101560000A94E2F7217021952527242325272C931F
:1015700001968330910561F7089590E080E00E9424
:10158000C10590E080E00E94AB0510920A02109223
:1015900009020E94BB0986E0EBE3F2E0DF011D9245
:1015A0008A95E9F7109235021092340210923602B1
:1015B0000C948E068093B7020C94BD0A8091B702FA
:1015C000982F9670963019F488600C94DA0A877F09
:1015D000FCCF21E030E001C0220F8A95EAF7209588
:1015E0008091B70282230C94DA0A909108028095C8
:1015F000892380930802282F277091F4282F082E22
:10160000000C330B9217130659F09091810292FD52
:1016100007C08595859585950E94E90A1092080274
:10162000089521E030E001C0220F8A95EAF7809109
:10163000B702822B0C94DA0A80930D020C94BD0A37
:10164000882321F00E94B4090C94BB0908958823D3
:1016500039F090910B02982B90930B020C94BB09DC
:101660000895882309F452C0823871F40E94D70586
:1016700081FF4CC089E30E942B0A0E94BB0989E3C9
:101680000E94000A0C94BB09833859F40E94D705C4
:1016900080FF3CC083E50E942B0A0E94BB0983E5C2
:1016A000EFCF843859F40E94D70582FF2FC087E41A
:1016B0000E942B0A0E94BB0987E4E2CF9CEF980F9F
:1016C000913AF0F290E2980F983050F4877091E0E0
:1016D00001C0990F8A95EAF7892F0E94B409D2CFE9
:1016E0009BE5980F933020F490E080E00C94C105C6
:1016F00098E5980F973120F490E080E00C94AB05CA
:10170000803F20F00E94B5060C948E0608958093C9
:10171000820270938402609383028091AA028430D3
:10172000F9F48093E9008FEF9091E800815095FDE6
:1017300006C095ED9A95F1F700008111F5CF8091E3
:10174000E80085FF0DC050E040E063E070E082E813
:1017500092E00E9452048091E8008E778093E80026
:101760000895BC0184E00C94870BBC0183E00C94C9
:10177000870B9C0184E08093E9009FEF8091E80053
:10178000915085FD06C085ED8A95F1F70000911115
:10179000F5CF8091E80085FF0CC050E040E066E0A6
:1017A00070E0C9010E9452048091E8008E77809316
:1017B000E8000895CF93DF93EC0180911A0188230C
:1017C000B1F18091800287FF32C060E284E08093B3
:1017D000E9008FEF9091E800815095FD06C095EDEE
:1017E0009A95F1F700008111F5CF8091E80085FF0F
:1017F0001BC080911A0170E050E040E0811104C0EC
:1018000050E040E068E070E0CE010E945204809118
:10181000E8008E778093E80080E2FE01A8E8B2E05D
:1018200001900D928A95E1F7DF91CF91089568E0DC
:1018300081E0CDCF81E08093E00080E28093D8000A
:101840001092C9008FE19EE40197F1F700C00000FB
:1018500087E090EBDC018093B8029093B902A093EB
:10186000BA02B093BB0288E19CE00FB6F894A89549
:10187000809360000FBE90936000FFCFAF92BF9245
:10188000CF92DF92EF921F93CF93DF93CDB7DEB766
:10189000A4970FB6F894DEBF0FBECDBF8091700243
:1018A00080FD0AC0ECE4F2E01182108212823396CD
:1018B00082E0E037F807C1F77BE8A72E73E0B72E88
:1018C000DE011196AE014B5D5F4F1A2F7B2FF501A4
:1018D0008491282F30E0C901880F991F820F931F30
:1018E000845B9D4FFC01C080D180E280CD92DD926F
:1018F000ED92FFEFAF1ABF0AA417B50741F7539A4D
:101900003BB1377F2BB128606FB7F894812F972FA9
:10191000FC017191CF01E8E02BB9000000C077FF16
:101920003BB9770F000000C000C000C03BB900C049
:10193000EA9591F78417950759F76FBF8FE594E003
:101940000197F1F700C00000A4960FB6F894DEBF2F
:101950000FBECDBFDF91CF911F91EF90DF90CF9061
:10196000BF90AF900895EF92FF920F931F93CF9384
:10197000DF938C01CCE4D2E0F12CE12CF8019481CE
:101980006091720280917102F6E0EF16F104FCF4AE
:101990009923F9F09E01409173020E94F8052FEF00
:1019A000E21AF20A23968CE0E816F10439F70E9455
:1019B0003E0CF801848190E0019681709927848320
:1019C000DF91CF911F910F91FF90EF900895992390
:1019D00009F39E0140E0E1CF8F929F92AF92BF92B8
:1019E000CF92DF92EF92FF920F931F93CF93DF93EB
:1019F000EC014C81042F10E09801D8010E94B3271C
:101A00009B01AC010E94C9274B015C01E0E2F0E0C0
:101A1000E01BF10BA5E5B0E0AC019B010E94C927DA
:101A20006B017C019F01DF010E94AB279B01AC0190
:101A30000E94D4279B01AC01280D391D4A1D5B1D56
:101A4000C701B6010E947C27F22E822F90E039E276
:101A50003F15D8F143E0249F900111243595279537
:101A6000122F10959CE4C92E92E0D92E00E085E556
:101A7000E82EEF188E2D01FD8F2D9601412F6091DC
:101A800072020E94F8050F5F53E0C50ED11C0C30A6
:101A900089F70E943E0C9C8181E0992319F09032D5
:101AA00019F48FEF8093190180911901890F8C83AC
:101AB000DF91CF911F910F91FF90EF90DF90CF902A
:101AC000BF90AF909F908F90089525E530E0A901D9
:101AD000481B590BCA019A01220F331F280F391FC7
:101AE00037FFBCCF2F5F3F4FB9CF0F931F93CF93DB
:101AF000DF93CCE4D2E0FE01118210821282339691
:101B000082E0E037F807C1F710E000E080914A0278
:101B1000082E000C990B081719078CF180911801F9
:101B2000082E000C990B801791074CF19E014091F3
:101B3000730260917202809171020E94F8050F5F3A
:101B40001F4F23960C30110509F70E943E0C80911F
:101B5000170190914A02980F90934A022091180120
:101B6000280F20931801121614F49B301CF0819555
:101B700080931701DF91CF911F910F9108951982E2
:101B800018821A82DCCFBF92CF92DF92EF92FF923F
:101B90000F931F93CF93DF93FC018281DD24DA94AE
:101BA00080FD02C0DD24D3940CE412E0D0E0C0E05C
:101BB0002CE0B22EF80111821082128294E0E92EFC
:101BC000F12CC12C809149028C0D8D300CF43DC05C
:101BD0006B2D0E944627892F082E000C990B8C171D
:101BE0009D0791F4809173028E9DA0018F9D500DF1
:101BF0001124559547955595479598016091720226
:101C0000809171020E94F805CD0CF1E0EF1AF10805
:101C1000C9F621960D5F1F4FCC30D10559F60E94B1
:101C20003E0C8091490291E0D91215C0811111C07A
:101C30008BE080934902DF91CF911F910F91FF902C
:101C4000EF90DF90CF90BF90089587FFC5CF845F5E
:101C5000C3CF8150EECF90E00196BE010E9468276D
:101C6000E8CFEF92FF921F93CF93DF93EC018CE4C8
:101C7000E82E82E0F82E10E08C81970140917302EB
:101C800060917202810F0E94F8051B5E83E0E80EEE
:101C9000F11C1C3F89F70E943E0C9A818C8190FFB9
:101CA00008C08F5F8C83DF91CF911F91FF90EF90E1
:101CB00008958150F7CF9091700290FF0CC0ECE432
:101CC000F2E0818360834283339692E0E037F90744
:101CD000C1F70C943E0C08950F931F93CF93DF939D
:101CE00000D00F92CDB7DEB78C0180914B028111ED
:101CF0000AC09E012F5F3F4F4FEF6FEF0E94F80524
:101D00008A8180934B02F8016481613069F080918F
:101D10004B0240E0662361F040E0623011F44091F4
:101D20004B0280E060E004C060914B0240E080E044
:101D30000E945B0EF801848190E0019663E070E000
:101D40000E94682784830F900F900F90DF91CF91AE
:101D50001F910F910895CF93DF9300D00F92CDB7CD
:101D6000DEB79091700290FF0AC09E012F5F3F4F37
:101D70000E94F8054B8169818A810E945B0E0F9059
:101D80000F900F90DF91CF910895CF93DF93EC01E7
:101D9000E0E7F2E0438162818C810E94AB0E8C818E
:101DA0008F5F8C83DF91CF910895CF93DF93EC0108
:101DB000EC81F0E0E956FC4F4491E0E7F2E062810B
:101DC00081810E94AB0E8C818F5F8C83DF91CF91DC
:101DD0000895CF93C82F882309F4AEC08238C1F488
:101DE0000E94D70581FDA8C089E30E942B0A0E94AA
:101DF000BB092FEF81EE94E0215080409040E1F745
:101E000000C0000089E30E94000ACF910C94BB0936
:101E10008338A1F40E94D70580FD8EC083E50E941F
:101E20002B0A0E94BB092FEF81EE94E021508040E5
:101E30009040E1F700C0000083E5E5CF8438A1F4CD
:101E40000E94D70582FD78C087E40E942B0A0E9479
:101E5000BB092FEF81EE94E0215080409040E1F7E4
:101E600000C0000087E4CFCF8CEF8C0F813A88F55B
:101E700080911A01882301F18091800287FF1CC0A4
:101E8000EC2FE695E695E695F0E0EC56FE4F828164
:101E900090E04C2F477021E030E002C0220F331F4A
:101EA0004A95E2F782239323892B79F08C2F0E94A5
:101EB000000A0E94BB0909C0E6E9F1E08191C81758
:101EC000A9F321E0EC39F207C9F78C2F0E942B0A05
:101ED0009CCF80E28C0F883068F4C77021E030E03E
:101EE00001C0220FCA95EAF780910B02822B8093E2
:101EF0000B028BCFEBE5EC0FE33040F4F0E0E55E56
:101F0000FE4F808190E0CF910C94C105E8E5EC0F85
:101F1000E73150F4F0E0EE0FFF1FE25EFE4F8081EC
:101F20009181CF910C94AB05C03F30F08C2F0E9473
:101F30007007CF910C948E06CF9108951F93CF9385
:101F4000DF93182FD0E0C0E0893311F4C0E5D0E072
:101F5000812F0E94E90E209731F4812FDF91CF91DC
:101F60001F910C94310B8FE99FE00197F1F700C0AE
:101F700000002197F0CF0F931F93CF93DF93C62FCD
:101F8000D42F022FFC0182818823A1F06093B60236
:101F90000E949F059093B5028093B402C77081E0C0
:101FA00001C0880FCA95EAF7DF91CF911F910F9179
:101FB0000C94270B8091B602681335C08091B4024F
:101FC0009091B5020E949005883C910560F510E261
:101FD0001D0FCD17B9F080E28C0F883040F4C77028
:101FE00081E001C0880FCA95EAF70E94200B1830E3
:101FF00048F481E09D2F977001C0880F9A95EAF709
:102000000E94270B802F0E949E0F183098F4D770E3
:1020100081E001C0880FDA95EAF7DF91CF911F9137
:102020000F910C94200BC77081E001C0880FCA95F6
:10203000EAF7F3CFDF91CF911F910F910895CF93DE
:10204000DF93C8E5D2E060E0CE010E94FC27219634
:10205000C11584E0D807B9F7DF91CF9108956F9249
:102060007F928F929F92AF92BF92CF92DF92EF9228
:10207000FF920F931F93CF93DF9387E9C82E84E0DD
:10208000D82E92ECE92EF12CE701CC58D10936017B
:102090001BC0F50185909490692DC8010E94FC2712
:1020A000682DC80101960E94FC2782E0A80EB11C91
:1020B0000E5F1F4FC017D10761F78EE0680E711CCD
:1020C0002E96CE15DF0529F08E010E501109530111
:1020D000E0CF7E018CE8E80EF11C8CE8C80ED11C24
:1020E00082EFE81682E0F80679F6DF91CF911F9132
:1020F0000F91FF90EF90DF90CF90BF90AF909F90A7
:102100008F907F906F900895CF93C82F6FEF8111BC
:1021100062E283E290E00E94FC276FEFC11165E06C
:1021200084E290E00E94FC276FEFC11167E085E236
:1021300090E0CF910C94FC2780E00E94841060E036
:1021400087E290E00E94FC2760E086E290E00E9437
:10215000FC270E942F100E941F1081E00C94841015
:10216000CF93C0918102C2FB992790F9981799F0FB
:1021700080FBC2F9C09381026091800284E090E00C
:102180000E94FC276C2F82E290E00E94FC2782E0F4
:10219000CF910C94F50ACF9108950F931F93CF938D
:1021A000DF93C42FD0E0CC0FDD1F2EE0629FC00D67
:1021B000D11D11243CE8839FC00DD11D1124CE01F7
:1021C00088960E94E827082F10E0102F0027CE01E4
:1021D00089960E94E8279801282BC901DF91CF91A9
:1021E0001F910F910895462F843038F47A3028F4E7
:1021F000673018F4672F0C94CD1090E080E00895BC
:10220000CF92DF92FF920F931F93CF93DF936C01D6
:102210000091B70280910D02082BC7E0D0E010E0DA
:10222000FC2EC8010C2E02C0959587950A94E2F702
:1022300080FD0CC02197A0F7F12C8F2DDF91CF915D
:102240001F910F91FF90DF90CF900895B6018C2FD2
:102250000E94F3100E942608019761F3EECFCF93FE
:10226000DF93EC010E940011BE010E94F310DF9188
:10227000CF910C942608FC01808191810E942F113E
:10228000292F2F7092959F7092509E3078F4E92FED
:10229000F0E0E45BF74D0C949E27803F19F020F4AA
:1022A000883E20F481E00895843FE1F380E00895C2
:1022B000883EC0F3813FD1F7F5CF822F8695869572
:1022C0008695089583E290E00E94E827823289F49F
:1022D00084E290E00E94E827853059F485E290E09E
:1022E0000E94E82791E0873009F090E0892F817003
:1022F000089580E0FCCFCF9384E090E00E94E8272F
:10230000C82F82E290E00E94E827982F8C2FCF916F
:10231000089560917002669570E04BE050E08CE0AB
:1023200091E00E943028892B19F481E080934802C3
:102330000E949F0590934202809341020895CF929C
:10234000DF92EF92FF926B017C010E94E905B701D9
:10235000A60188E090E0FF90EF90DF90CF900C9482
:102360000E285F926F927F928F929F92AF92BF9250
:10237000CF92DF92EF92FF920F931F93CF93DF9351
:1023800000D00F92CDB7DEB7182F762E042F622E15
:102390009091700290FF29C0E92FE695AE2FB0E032
:1023A000A35ABE4F8C91809347029E7F923081F555
:1023B0009E012F5F3F4F812F0E94F8054B8169815D
:1023C0008A810E945B0E10937102709272020093D8
:1023D0007302662051F060917002709171028091D9
:1023E0007202909173020E949F110F900F900F90B4
:1023F000DF91CF911F910F91FF90EF90DF90CF90E1
:10240000BF90AF909F908F907F906F905F90089556
:10241000823019F400917302D6CF863019F41091EE
:102420007102D1CF8930D9F3893169F6E9518E2F04
:102430008170582EE695F0E0EA57FC4FA590B490D5
:10244000BB248CE4E82E82E0F82ED12CC12C9CE039
:10245000892E912CC601B4010E945427812F51105E
:1024600013C0860F9701402F672D0E94F805CA0CF4
:10247000DB1C83E0E80EF11C80E7E81682E0F8063A
:1024800049F70E943E0C9FCF861BECCFE0E7F2E0BD
:10249000438128E0421B08F440E021E06281818111
:1024A0000C94B111E0E7F2E0438128E0420F08F418
:1024B0004FEF21E0628181810C94B111E0E7F2E0FD
:1024C000628128E0621B08F460E021E043818181A1
:1024D0000C94B111E0E7F2E0628128E0620F08F4A9
:1024E0006FEF21E0438181810C94B111E0E7F2E0CC
:1024F000818121E04381628188500C94B111E0E731
:10250000F2E0818121E043816281885F0C94B11106
:1025100080917402882319F0815080937402609135
:1025200070027091710280917202909173020C940A
:102530009F1180917402833018F48F5F809374022E
:102540006091700270917102809172029091730299
:102550000C949F119091700290FF36C09170811180
:1025600029C0926090937002662351F060917002CE
:102570007091710280917202909173020E949F117A
:1025800060917002669570E04BE050E08CE091E065
:102590000E943028892BA9F01092480281E0809394
:1025A000440220E0409173026091720280917102B6
:1025B0000C94B111853210F09864D4CF880F982B09
:1025C000D1CF0E948911EACF089561E00C94AA123C
:1025D000809170028695815009F484E261E00C9448
:1025E000AA128091700286958F5F853208F081E093
:1025F00061E00C94AA129091700290FF07C096952A
:10260000981720F0961710F40C94F1120C94E51220
:10261000E0E7F2E083E0808311828FEF828383839F
:10262000148260817181828193810C949F11109238
:102630000B0280911A01E6E9F1E0882359F08091BC
:10264000800287FF07C08EE1DF011D928A95E9F7BE
:102650000C94BD0A86E0F8CF1F93CF93DF93CDB7DC
:10266000DEB7AA970FB6F894DEBF0FBECDBF8CEAD7
:1026700092E02091F100DC012D93CD01B2E0843B8A
:102680009B07B9F78091AD02833009F472C0B8F4AA
:10269000813009F449C0823009F4B3C08091E80068
:1026A00083FF8BC28091AC029091AD029A3008F00A
:1026B00084C2E92FF0E0E65AF74D0C949E278A3049
:1026C00009F48EC08B3009F471C0893039F78091DC
:1026D000AC02813219F78091B0029091B10200975B
:1026E00011F00297D9F68091E800877F8093E80087
:1026F0008091E80082FF38C09091F3008091F20051
:10270000029731F48091F100813011F0863021F48C
:102710008091F100809387028091E8008B7780930D
:10272000E8000E947C04BACF8091AC02813A09F0A3
:10273000B5CF8091E800877F8093E8008091B00258
:102740009091B102892B61F460E288E892E070E038
:102750000E942E058091E8008B778093E8009ECF41
:1027600060E090E080E0F3CF8091AA028111C0CFB9
:1027700095CF8091AC02813A09F090CF8091B00260
:102780009091B102892B09F089CF8091E800877F71
:102790008093E8008091E80080FFFCCF80911A01CF
:1027A0008093F1008091E8008E77B9CF8091AC02E0
:1027B000813209F073CF8091B0029091B102892BE0
:1027C00009F06CCF8091E800877F8093E8000E9439
:1027D0007C048091AE0280931A010E9417135ECF91
:1027E0008091AC02813209F059CF8091E800877F57
:1027F0008093E8000E947C048091AF02809386025F
:102800004DCF8091AC02813A09F048CF8091E80029
:10281000877F8093E8008091E80080FFFCCF809163
:102820008602BECF803899F0823809F0C6C1809107
:10283000B0028F70873008F0C0C18093E9008091AA
:10284000EB0085FB882780F91092E90006C0809193
:10285000A8029091A902911182609091E800977F5F
:102860009093E8008093F1001092F1008091E800CD
:102870008E779FC1882309F48DC1823009F09DC1F4
:102880008091AE02811190C18091B0028F702FEFC4
:10289000280F263008F091C18093E9002091EB00C9
:1028A00020FF82C1933031F48091EB0080628093ED
:1028B000EB007AC19091EB0090619093EB0021E0E6
:1028C00030E001C0220F8A95EAF72093EA001092C7
:1028D000EA008091EB008860EACF81116EC110910F
:1028E000AE021F778091E3008078812B8093E30014
:1028F0008091E800877F8093E8000E947C048091AB
:10290000E80080FFFCCF8091E30080688093E300C3
:1029100082E0111183E08093AA024FC18058823077
:1029200008F04BC12091AE023091AF022C3DE3E0A4
:102930003E07A1F583E08A838AE289834FB7F89442
:10294000DE01139620E03EE051E2E32FF0E05093E9
:102950005700E49120FF03C0E295EF703F5FEF70F6
:102960008E2F90E0EA30C0F0C7968D939D932F5F35
:10297000243159F74FBF8091E800877F8093E800AA
:102980006AE270E0CE0101960E942E058091E80077
:102990008B778093E80011C1C096E7CF8091B00299
:1029A0009091B102432F55274330510509F44AC095
:1029B00078F54130510509F47AC08BE590E0E7ECF9
:1029C000F6E04230510509F0F8C02091E800277F79
:1029D0002093E8002091B2023091B302821793074E
:1029E00008F49C0140E02115310509F065C0411152
:1029F00063C08091E80082FDC9CF8091AA0288233C
:102A000029F2853019F28091E80083FFF2CFBECF22
:102A10004132510509F43CC04232510509F0CDC0A4
:102A20008330910508F0C9C0FC01EE0FFF1FEB5782
:102A3000FE4F0190F081E02D8E579E4FDC018C916E
:102A400090E01AC0332721303105D1F0211531052E
:102A500061F02230310509F0B0C0E4E3F7E0E49121
:102A60008E2F90E0E4E3F7E007C0EEE6F7E0E491B4
:102A70008E2F90E0EEE6F7E0009709F49EC0A5CF18
:102A8000E8E5F7E0E4918E2F90E0E8E5F7E0F4CF99
:102A90008330910508F091C0880F991FFC01E5571C
:102AA000FE4F0190F081E02D89E090E08ECF82E131
:102AB00090E0E2E2F7E089CF8091AA02882309F44E
:102AC00065CF853009F462CF8091E80083FD5ECF49
:102AD0008091E80082FD8DCF8091E80080FF83CF58
:102AE0009091F3008091F2002115310519F08830A2
:102AF000910550F041E0089709F040E08091E8002E
:102B00008E778093E8006FCF44914093F100319627
:102B1000215031090196E8CF803809F04EC08091EC
:102B2000E800877F8093E8008091AB028093F100FA
:102B30009DCE811142C01091AE021230F0F580910D
:102B4000E800877F8093E8001093AB020E947C042A
:102B5000112311F084E005C08091E30087FDFACFD6
:102B600081E08093AA0242E061EC81E00E949B0434
:102B700042E261EC84E00E949B0442E261EC82E06C
:102B80000E949B0442E260EC83E00E949B048091DF
:102B9000AA0213C08091AE02813079F481E09330B3
:102BA00009F080E08093A9021092E9008091E8008A
:102BB000877F8093E8000E947C048091E80083FF77
:102BC0000AC08091E800877F8093E8008091EB0045
:102BD00080628093EB00AA960FB6F894DEBF0FBE1A
:102BE000CDBFDF91CF911F91089569EE7EEF90E008
:102BF00080E00E941A2860E082E090E00E94FC27BA
:102C000060E083E090E00E94FC2710920D0260E0FB
:102C100084E090E00E94FC2760E082E290E00E9465
:102C2000FC2760E085E090E00E94FC2760E086E001
:102C300090E00E94FC276FEF87E090E00E94FC2765
:102C400040E050E0BA0188E090E00E940E2860E089
:102C50008DE090E00E94FC2740E050E0BA0188E15E
:102C600090E00E940E2860E087E190E00E94FC273F
:102C700040E050E0BA018CE190E00E940E2870E044
:102C800060E080E290E00E941A2840E050E0BA0143
:102C900088E190E00E940E2880E00E9484100E944B
:102CA0009C10E0E7F2E080818160808386950E943D
:102CB000E51221E040E86FEF80E00E94B1118BE067
:102CC0000E94E51240E050E0BA018FE090E00E94DF
:102CD0000E2840E050E0BA0183E190E00C940E2809
:102CE0003F924F925F926F927F928F929F92AF929C
:102CF000BF92CF92DF92EF92FF920F931F93CF93E9
:102D0000DF9300D000D00F92CDB7DEB78C01FC016D
:102D100083819481892B31F08081918189238F3F38
:102D200009F0A4C50F900F900F900F900F90DF91B6
:102D3000CF911F910F91FF90EF90DF90CF90BF90B8
:102D4000AF909F908F907F906F905F904F903F904B
:102D500008950E940011F82E682F89819A810E949F
:102D6000910A69817A818F2D0E94F3107C01F8010C
:102D70008281882309F46DC5970122513F45203196
:102D8000310508F039C58FEF93E00E94E827FEEE89
:102D9000EF0E58E5852E52E0952E8823A1F1809103
:102DA0000802877009F4BECFF8018281882309F4F4
:102DB000B9CF8091810282FDB5CF82E00F900F9054
:102DC0000F900F900F90DF91CF911F910F91FF9077
:102DD000EF90DF90CF90BF90AF909F908F907F90BB
:102DE0006F905F904F903F900C94F50A811424E00F
:102DF0009206A9F2C4010E94E827811101C0EA9459
:102E00003FEF831A930AE110F1CF1C821B82442406
:102E100043944AE0342E74018FEFE81AF80AC40193
:102E20000E94E82789831A82882309F4B8CF9FEF8C
:102E3000980F933000F58A83498292E0890E911CA5
:102E4000C7010E94E8278B83882309F4A8CFFE01DD
:102E500031967F01F70120812223E9F2213009F028
:102E600049C091818281913041F4F2E0EF0EF11C72
:102E70000E949E0F09C04701EACF923049F422E038
:102E8000E20EF11C0E94E90E3FEFE31AF30AE2CFD3
:102E9000933031F432E0E30EF11C0E94310BF4CF99
:102EA000943021F08FEFE81AF80AEECF92E0E90EA5
:102EB000F11C30E020E0B7016F5F7F4FF7014181E7
:102EC0008053990B8A30910550F021503109E0F27E
:102ED0008FE99FE00197F1F700C00000F6CF329E26
:102EE000F001339EF00D11249C012E0F3F1F842F03
:102EF0007B01E1CFE22FF0E0EC50FE4F5490822FA7
:102F000086958695869590E0FC01EC51FE4F649085
:102F10002770712C022E02C0759467940A94E2F710
:102F2000E1E06E227724FC01EC52FE4FA490B12C1C
:102F3000022E02C0B594A7940A94E2F7F1E0AF2202
:102F4000BB24FC01EC53FE4FC490D12C02C0D5949D
:102F5000C7942A95E2F721E0C222DD2461147104AE
:102F600019F081EE0E94E90EA114B10419F086EE69
:102F70000E94E90E852D0E949E0FAB2819F086EE67
:102F80000E94310B672819F081EE0E94310BCD2889
:102F900009F47ACF8CE26CCF81E00E94110B0E9481
:102FA000DE0AFDCE81E00E94E90AF9CF82E0F5CF8A
:102FB00095EFE9169CE5F90609F46AC008F464C0C7
:102FC00027E245EE66EEF6EFEF16FCE5FF0609F4A4
:102FD0003CC4882309F45BC41092B60223E0E216D5
:102FE0002DE5F20608F05BC03AEFE3163CE5F30688
:102FF00030F4C70182509C45449708F056C00E94A7
:103000007B11909381028093800290E1E9169CE508
:10301000F90609F431C108F0A3C0F8E0EF16FCE5A9
:10302000FF0609F41BC108F06CC034E0E3163CE570
:10303000F30609F405C108F04EC092E0E9169CE5DC
:10304000F90609F4F7C0809180028260E3E0EE1691
:10305000ECE5FE0609F4F1C060918002F090810277
:1030600084E090E00E94FC276F2D82E290E00E94B5
:10307000FC270E94171393CE27E245EE65EEE5C3C9
:1030800026E241EE60EEE1C327E245EE64EEDDC3E9
:1030900026E241EE62EED9C328E241E0EFCF81E6BD
:1030A000E8168DE5F80609F4AACF80910B02F6E147
:1030B000EF16FCE5FF0609F0F7C38A7A91E009F400
:1030C00090E09093B4018111FCC089E20E942B0A28
:1030D0000E94BB0964CE809180028061F6E0EF1609
:1030E000FCE5FF0609F4A9C080918002886027E012
:1030F000E2162CE5F20608F4A0C0809180028062FE
:103100009CC0809180028D7F3CE0E3163CE5F30695
:1031100009F493C078F4809180028C609AE0E916FB
:103120009CE5F90609F489C008F49CC080918002EE
:103130008E7F83C080918002877FFEE0EF16FCE5E2
:10314000FF0609F47AC0809180028B7F2FE0E2169F
:103150002CE5F20608F471C0809180028F7E6DC06C
:103160003CEFE3163CE5F30609F482C0A0F594E1D8
:10317000E9169CE5F90609F493C098F4F2E1EF161C
:10318000FCE5FF0609F47CC0809180028F7B23E17F
:10319000E2162CE5F20608F450C080918002837F8D
:1031A0004CC03AEFE3163CE5F30609F44DC008F0D5
:1031B00051C095E1E9169CE5F90609F04DCF8091E3
:1031C000800282FB992790F921E0922790FB82F9F7
:1031D00090FB83F932C0E114EDE5FE0609F456C018
:1031E000A0F48091810283602EEFE2162CE5F206B6
:1031F00071F1809181028D7F3FEFE3163CE5F3068C
:1032000030F1809181028C7F22C082E0E8168DE54A
:10321000F80609F454C008F44CC0E1E6EE16EDE5FA
:10322000FE0609F019CF90918002892F8F7E94FFBE
:10323000806103C0809180028160809380020CCF06
:10324000809180028460F9CF8091810281608093B7
:10325000810202CF809181028260F9CF8091800249
:103260008064EBCF0E941713809180028068E5CFC5
:10327000809181028E7FEBCF809180028F7DDDCFA8
:103280000E941713809180028F77D7CF809181029F
:10329000982F909591708E7F892B90FB81F9D7CFD5
:1032A0000E94171390918002892F97FB87F980580D
:1032B000C4CF61E08EE090E00E94FC27CDCE60E0BC
:1032C000F9CF85E303CF85E3ECC28091700280FFE4
:1032D0001BC08E7F809370026091700270917102AA
:1032E00080917202909173020E949F111092480285
:1032F0002FEF30E782E0215030408040E1F700C0FE
:1033000000000E943E0C4BCD816080937002869538
:103310000E94E51244CD48EE52E161EF72E10E9455
:10332000E3053DCD41EF52E168EE72E1F8CF4FE7A2
:1033300052E166E772E1F3CF4EE552E16AE672E1EF
:10334000EECF46E452E162E572E1E9CF42E552E1B7
:1033500066E472E1E4CF49E952E168E872E1DFCF67
:1033600081E0D6CF65E082E00E94FB1218CD68E0D4
:1033700086E0FACF64E18FE0F7CF67E185E1F4CF33
:1033800062E289E1F1CF83E2C3CF3BE5E3163DE59D
:10339000F30611F18CE5E8168DE5F80609F0B6C2E2
:1033A0008091810282FB882780F991E089270E9421
:1033B000B010ACC20E9417139FEFE4E3FCE0915001
:1033C000E040F040E1F700C000000E941A0C0E94AB
:1033D000F515E5CC81E0EBCF80E0E9CFC7010E9495
:1033E000690AD82EA2C22F2D2F70C22E8F2D807F5A
:1033F00019F0C29490EFC922DD20B9F0CC2069F019
:1034000080E28E0D883010F0811009C080910B028F
:10341000C82AC0920B020E94BB098E2D4DC080911C
:103420000A02C82AC0920A02F6CF8E2D0E94310BE2
:10343000CC2009F443C080E28E0D883010F081105A
:1034400004C08C2D0E94B40906C0C09480910A0269
:10345000C822C0920A020E94BB0930C03F2D3F70B3
:10346000C32E8F2D807F803219F0C29480EFC82246
:10347000882089F081E0881609F47FC0DD2009F4F6
:1034800089C0BB2009F47FC0F801858180FFC5CFCA
:103490008F70858378C02091810222FF4BC0DD2090
:1034A00009F442C0CC2039F080910B02C82AC092A6
:1034B0000B020E94BB0980E00E94E90E292D2850D2
:1034C000330B2430310510F40E94D705AA2009F4EB
:1034D00029CC8091080280FD25CCF80112828595C7
:1034E000859585950E94110BC8010E9470168091E8
:1034F00008028595859585950F900F900F900F90F8
:103500000F90DF91CF911F910F91FF90EF90DF907F
:10351000CF90BF90AF909F908F907F906F905F9073
:103520004F903F900C94E90A80E00E94310BCC2030
:1035300029F287CFDD20A1F090910C028C2D892BF0
:10354000B11003C00E94270BB9CFE1E0BE12FACF41
:1035500022FDB4CF981709F4B1CF80930C02AECFFF
:10356000B11006C00E94AE098C2D0E94200BA6CF80
:10357000F1E0BF1609F4A2CFF5CFDD2031F025E050
:103580002B1508F49BCF8C2DDDCF34E03B1508F4D0
:1035900095CFEACFBB2041F3F9E38F1209C02FEF9B
:1035A00037EE83E0215030408040E1F700C000005A
:1035B0008E2D0E94310B82CF8F2D8695869583703C
:1035C00061F0813009F07ACFC7019370D11002C049
:1035D00090E080E00E94AB0571CFC7019370D110DD
:1035E00002C090E080E00E94C10568CF8E2DDD20F2
:1035F00029F00E9470070E948E0660CF0E94B506D7
:10360000FACF8F2D837091F5D11058CF4E2D429562
:1036100046954770440F440F8E2D8F70042E01C0C5
:10362000880F0A94EAF72E2D2071E4FE07C02FE0E0
:1036300030E001C0220F4A95EAF720953F2D3695DC
:1036400036953370323069F050F440910D023130CC
:1036500029F0822B84230E941C0B30CF842B822BD9
:10366000FACF282B80910D028227F5CF8695DD2099
:1036700011F08F2D8170882309F420CF4E2D4295B3
:1036800046954770440F440F8E2D8F70042E01C055
:10369000880F0A94EAF72E2D2071E4FE07C02FE070
:1036A00030E001C0220F4A95EAF720953F2D36956C
:1036B00036953370323069F050F44091B7023130B2
:1036C00029F0822B84230E94DA0AF8CE842B822BE5
:1036D000FACF282B8091B7028227F5CF9F2D9F70BC
:1036E000F92EDD2029F0892F0E94110B8E2D2ACF73
:1036F0008E2D0E94200B8F2D0E94E90ADFCE8E2D89
:10370000E2EF8E16B1F1E81570F0F0EF8F16D1F000
:1037100021EF821691F0DD2009F45EC0B1107DCE5C
:103720008F2D8F712AC033EF831651F194EF8912D8
:10373000F2CF8091810282FF2FC08F2D8F71DD200B
:10374000D9F21BC0DD2081F0E4E0EB1508F4B6CE21
:103750002F2D2F7181E090E001C0880F2A95EAF7A4
:103760009091B7028927AFCFF5E0FB1508F4A6CEFC
:10377000EFCF8F2D8F71D110BFCF0E94110B9ECE36
:1037800080E0DD2009F49FCF9F2D9F7181E001C073
:10379000880F9A95EAF797CFDD2099F02F2D2F719A
:1037A000F22E822F0E94110B8091810282FD07C0B0
:1037B00038E0F39EC00111248360809308028F2DAE
:1037C000DCCF81E00E94F50A81E08B1508F076CE0F
:1037D00082E00E94F50A72CEBB2059F0893309F0CD
:1037E000E7CE9FEFE7EEF3E09150E040F040E1F7E5
:1037F000DDCE8F2D8F7180CFF0E1EF16FFE5FF0654
:1038000009F4CACB21E1E2162FE5F20609F4CECB8A
:1038100093EFE9169CE5F90609F432CC08F0C8CB21
:10382000F8EDEF16FCE5FF0609F426CC29EDE216CB
:103830002CE5F20609F430CC37EDE3163CE5F3064F
:1038400009F0C7CB26E241EE61EEC8010E94BB0F32
:10385000A6CA30E1E3163FE5F30609F4A3CB91E1F4
:10386000E9169FE5F906A1F682E09DCB85E0DE0131
:10387000119601900D928A95E1F7F80122818981D4
:103880009A81211166CA0E94690AF82E6ACAF6E175
:10389000EF16FCE5FF06D1F58091B401811113CD3F
:1038A00089E20E94000A14CC82722CECE2162CE50C
:1038B000F20609F450CD08F0ABC096ECE9169CE591
:1038C000F90609F434CD08F07AC0F3ECEF16FCE504
:1038D000FF0609F420CD08F061C032ECE3163CE5A8
:1038E000F30609F4F2CC9AE5E9169DE5F90609F428
:1038F00071CD08F04ACDE114FCE5FF0609F45ACD7C
:103900002EEDE2162CE5F20609F461CDF801828174
:10391000E080F180882309F461CDC7010E94001185
:10392000D82E682FC7010E94910AB7018D2D0E94E1
:10393000F3100E9426087C01882EF801D280B58001
:10394000B2943FE0B322809108028770C1F0AD2CA1
:10395000DD20B1F08F2D807F803421F080E28E0D4C
:10396000883068F08091810282FD09C082E00E9467
:10397000F50A809108028770AA24A3948111A12CD2
:103980009F2C92942FE09222FBE0F91508F496CD3B
:10399000E92DF0E0EC59F74D0C949E2794ECE916D4
:1039A0009CE5F90609F4BECC46E752E16FE772E107
:1039B000E5ECEE16ECE5FE0609F4B1CC94CFF9EC9B
:1039C000EF16FCE5FF0609F4BCCC88F437ECE316EF
:1039D0003CE5F30609F4B0CC4AE652E16EE572E14B
:1039E00098ECE9169CE5F90609F499CC7CCFEAEC51
:1039F000EE16ECE5FE0609F4A9CC48E852E169E9C7
:103A000072E1FBECEF16FCE5FF0609F488CC6BCF06
:103A100021EDE2162CE5F20609F4ACCCB8F48EECFC
:103A2000E8168CE5F80609F49DCC08F499CCEFEC87
:103A3000EE16ECE5FE0609F49ACC6EE089E0F0EDB6
:103A4000EF16FCE5FF0609F48FCC4DCF24EDE2160E
:103A50002CE5F20609F494CC70F482EDE8168CE5BE
:103A6000F80609F48ACC88E193EDE9169CE5F9069D
:103A700009F44ECC38CFE5EDEE16ECE5FE0609F480
:103A800082CCFDE5EF16FF0609F489C92CCF1F9300
:103A9000CF93DF938091D501807FA9F48091D201EB
:103AA000882389F080910702D091D6016091D001DE
:103AB0007091D101A091D301B091D401C62FC72339
:103AC00016E0D81304C0DF91CF911F91089590E0C4
:103AD000109711F0CF3F19F401968770F2CF189F1D
:103AE0009001199F300D1124F901E952FE4F4181D7
:103AF0004713F2CF40814613EFCF42814111ECCF03
:103B0000438154814A1B5B0B483C510528F7809147
:103B1000D5018F7080618093D501F901E452FE4F89
:103B200080818F708061808380ED91E00E947016AB
:103B3000DF91CF911F910C945F0AAF92BF92CF9209
:103B4000DF92EF92FF920F931F93CF93DF93CDB746
:103B5000DEB761970FB6F894DEBF0FBECDBF8C0104
:103B600085E0F801DE011D9601900D928A95E1F73E
:103B7000F801E28080EDA82E81E0B82E6091D3019B
:103B80007091D4016115710509F432C19091D00191
:103B90004091D101892F84238F3F09F429C12081CD
:103BA0003181C380D480F090D201F601E61BF70B7F
:103BB000FF2009F4E8C08091D501582F507FE83CE0
:103BC000F10508F0ABC0511177C0FE2C431321C0A2
:103BD00092131FC0E1101DC08F7080618093D501CA
:103BE000C5010E9470168091D501F80185838F2D43
:103BF00061960FB6F894DEBF0FBECDBFDF91CF91B7
:103C00001F910F91FF90EF90DF90CF90BF90AF90FA
:103C10000895CD2829F0822F83238F3F09F003C117
:103C200080E0F82FF170DF2E80FF3CC0809107020A
:103C30004091D60156E0841315C02D873E878D85AF
:103C40009E850E942F11292F22952F702230F0F08F
:103C5000243018F59F70F1F0F8019581907FD1F430
:103C6000D12C1EC090E0589FF001599FF00D1124F7
:103C7000E952FE4F6181361306C06081261303C0EE
:103C80006281E6120FC001968770D5CF9F7011F048
:103C9000882331F3805E883018F3C8010E947016C3
:103CA000FD2CA5CFEE2009F4A2CF8091D501816033
:103CB0008093D501F12C9BCF431306C0921304C00F
:103CC000F801EE2009F479C0C8010E943B11882355
:103CD00009F1EE20F9F08091D501803270F0209149
:103CE000D0013091D10138872F831986DB86CA86AF
:103CF0008C87CE0107960E94701686E0F801A0ED31
:103D0000B1E001900D928A95E1F70E94471DFF24D2
:103D1000F3946DCFC8010E947016F9CF51110AC0FB
:103D200080ED91E00E94701686E0F50111928A956F
:103D3000E9F7C0CF43130FC092130DC0E1100BC0C1
:103D4000F8018583C8010E94701686E0F501119282
:103D50008A95E9F74CCFC8010E943B118823D1F224
:103D6000EE20C1F28091D501803238F22091D0014D
:103D70003091D1013A8329831B82DD82CC828E83EC
:103D8000CE010196B8CFE83CF105F8F6FE2CEE2006
:103D900009F243131FC092131DC08091D50180FD0D
:103DA00010C0982F907F69F0F8018583903F31F023
:103DB000982F907F905F8F70892B8583C8010E9418
:103DC000701686E0F801A0EDB1E001900D928A95A1
:103DD000E1F70DCFC8010E943B1181118ECF809178
:103DE000D50181608093D501C8010E947016FFCE75
:103DF000EE2009F48FCFC8010E943B11F82E8823D2
:103E000009F488CF86E0F801A0EDB1E001900D92B1
:103E10008A95E1F78091D0019091D1010E942F11F4
:103E20000E94471DE4CE81E08E25FBCE1F93CF93E9
:103E3000DF93CDB7DEB767970FB6F894DEBF0FBE3E
:103E4000CDBF4B8B5C8B6D8B7E8B8F8B61111092FA
:103E50000A021A8A198A85E0FE017396DE011D9610
:103E600001900D928A95E1F786E0FE013D96DE0114
:103E7000179601900D928A95E1F7CE0107960E9460
:103E80009D1D882389F016E0809107029091D6014C
:103E9000891349C067960FB6F894DEBF0FBECDBF39
:103EA000DF91CF911F91089586E0FE013796DE01E4
:103EB000119601900D928A95E1F78A859B85892B51
:103EC00011F38F81988589238F3FE9F22091D601E4
:103ED00030E0C90101968770992740910702481781
:103EE000190671F40E9417131092D601109207025E
:103EF00086E0E0EDF1E0DF011D928A95E9F7C3CF9E
:103F000096E0929FD001939FB00D1124A952BE4F0D
:103F1000FE01319601900D929A95E1F78093D601BA
:103F20000E945F0AB0CF819FC001112489529E4F29
:103F30000E949D1D882309F4ADCF8091070290E077
:103F4000019687709927809307029ECF8F929F9248
:103F5000BF92CF92DF92EF92FF920F931F93CF9376
:103F6000DF93CDB7DEB72A970FB6F894DEBF0FBE4A
:103F7000CDBF8E010F5F1F4F8AE0F80111928A9525
:103F8000E9F79CE4E92E91E0F92EBB24B394CC240C
:103F9000C394D12CF70181917F018F3F09F449C06F
:103FA000F894E82FE295EF70F0E021A18F70A60160
:103FB00002C0440F551F8A95E2F7CA01922F982B31
:103FC00091A392A18095892382A3789400C083E570
:103FD000882E81E0982ED8016B2D6095F401919187
:103FE0004F018D919D01215031099F3F09F45DC022
:103FF000492F42954F7050E0FA0140A150E09F7068
:1040000002C0559547959A95E2F740FD4EC08B2921
:10401000F9018083FDE58F16F1E09F06F9F6F701BF
:10402000319780818F3F11F00E94CC0740EA4A957A
:10403000F1F7BB0C53E5E51651E0F50609F0AACF00
:104040004AE050E0B80181E192E00E943D28FF245F
:10405000F394009709F4F12C892B49F18AE0F801D7
:10406000A1E1B2E001900D928A95E1F781E08093A1
:1040700010020E949F0590930F0280930E02809180
:104080000E0290910F020E9490050597A0F0E1E1C9
:10409000F2E0AAE2B2E08BE192E021912D938E173B
:1040A0009F07D9F71092100206C08623B1CF8091E6
:1040B00010028111E4CF8F2D2A960FB6F894DEBF3F
:1040C0000FBECDBFDF91CF911F910F91FF90EF9069
:1040D000DF90CF90BF909F908F90089590E080E008
:1040E0000E94F627893E9E4F11F40C94621180E0E5
:1040F00008951F920F920FB60F9211242F933F93A2
:104100004F935F936F937F938F939F93AF93BF93DF
:10411000CF93DF93EF93FF93D091E900DF7080910D
:10412000EC00C82FC17080FDC0E81092E9008091BA
:10413000F000877F8093F00078940E942C131092F7
:10414000E9008091F00088608093F000CD2BCF7063
:10415000C093E900FF91EF91DF91CF91BF91AF91B3
:104160009F918F917F916F915F914F913F912F918F
:104170000F900FBE0F901F9018951F920F920FB6C1
:104180000F9211242F933F934F935F936F937F93DD
:104190008F939F93AF93BF93EF93FF938091E10031
:1041A00082FF09C08091E20082FF05C08091E1009A
:1041B0008B7F8093E1008091DA0080FF24C08091A2
:1041C000D80080FF20C08091DA008E7F8093DA00D3
:1041D0008091D90080FF9DC080E189BD82E189BDC9
:1041E00009B400FEFDCF81E08093AA028091850290
:1041F000811109C00E9402040E94CD048091E20056
:1042000084608093E2008091E10080FF17C080917C
:10421000E20080FF13C08091E2008E7F8093E20075
:104220008091E20080618093E2008091D8008062FA
:104230008093D80019BC85E08093AA028091E100A8
:1042400084FF2BC08091E20084FF27C080E189BDFC
:1042500082E189BD89B5982F917080FFFBCF809155
:10426000D8008F7D8093D8008091E1008F7E80936D
:10427000E1008091E2008F7E8093E2008091E20075
:1042800081608093E2008091AB02882309F447C0EB
:1042900084E08093AA028091AA028091E10083FFCA
:1042A00027C08091E20083FF23C08091E100877FD7
:1042B0008093E10082E08093AA021092AB02809189
:1042C000E1008E7F8093E1008091E2008E7F8093F9
:1042D000E2008091E20080618093E20042E060E0D1
:1042E00080E00E949B048091F00088608093F00041
:1042F000FF91EF91BF91AF919F918F917F916F91BE
:104300005F914F913F912F910F900FBE0F901F9093
:10431000189519BC1092AA021092850274CF809150
:10432000E30087FD93E09093AA02B5CF78941F92A3
:104330001FB61F9211248F939F93AF93BF938091C9
:104340007C0290917D02A0917E02B0917F02019645
:10435000A11DB11D80937C0290937D02A0937E02EB
:10436000B0937F02BF91AF919F918F911F901FBE1D
:104370001F9018951F921FB61F9211248F939F9321
:10438000AF93BF9380917B02811113C080917C0217
:1043900090917D02A0917E02B0917F024196A11D75
:1043A000B11D80937C0290937D02A0937E02B09316
:1043B0007F02BF91AF919F918F911F901FBE1F9061
:1043C0001895CDB7DEB7AA970FB6F894DEBF0FBE2B
:1043D000CDBF84B7877F84BF0FB6F894A89580912E
:1043E0006000886180936000109260000FBE80E8DA
:1043F00090E00FB6F89480936100909361000FBE37
:1044000085B7806885BF85B7806885BF8AEC97E0EF
:1044100090939301809392010E9402040E94CD0424
:104420008091E20084608093E20078948091AA02F7
:104430008823A1F01091E9001F709091EC00892F62
:10444000817090FD80E8182B1092E9008091E800BF
:1044500083FD0E942C131F701093E90082E084BD3D
:1044600093E095BD9AEF97BD80936E000E94621114
:10447000811102C00E949C100CE411E0E3E5EE2ED5
:10448000E1E0FE2ED8018D918D018F3F11F00E9449
:10449000CC07E016F106B1F703E511E07DE5E72E64
:1044A00071E0F72EF80181918F018F3F11F00E948A
:1044B000CC07E016F106B1F78AE0EAE2F2E0DF01AC
:1044C000282F1D922A95E9F7E1E1F2E0DF011D9224
:1044D0008A95E9F70E946E20811102C00E94F515AD
:1044E00082E090E00E94E82780931F020E947B11E7
:1044F00090938102809380020E94A61FEFE3FCE963
:104500003197F1F700C000000E94A61F80912A0297
:1045100080FF08C06FEF7FEF90E080E00E941A28D4
:104520000E941A0C83E090E00E94E8270E941C0B76
:1045300080911B02811133C00E946E20811104C042
:104540000E94F5150E94081388E090E00E94F02771
:104550006093700270937102809372029093730261
:104560006E7F71F40E94081388E090E00E94F027AB
:104570006093700270937102809372029093730241
:104580000E94E905109248028091700280FF04C0E9
:1045900060E086950E94AA1281E080931B0280E071
:1045A00091E0909378028093770248E1C42ED12C59
:1045B00050E4952E64E3A62E62E0B62E8091AA0206
:1045C000FF24F39400E112E1853009F4CFC10E9489
:1045D000A61F882359F08FB7F89440917C02509120
:1045E0007D0260917E0270917F028FBF3AE2E32EDE
:1045F00032E0F32EE0E2F2E0D70110E000E0302FED
:104600008D919191981709F4D1C1292F282790E015
:1046100077247394422F472109F4C3C199A33AA385
:10462000872191E009F490E09BA30E949F0581609F
:10463000782F9DA38CA349A15AA16BA18DA10E94A3
:10464000161FF801E05EFD4F808178267082809110
:1046500048028823D1F180914702E0917002E695EB
:10466000E81BE0934302823009F0B7C1F0E0EE5757
:10467000FD4FE4910E2F10E025ED622E2EE0722EFC
:1046800080914402882361F0109244020E949F05A9
:10469000909342028093410210924602109245028A
:1046A0000E949F05E0914102F09142028E1B9F0BF8
:1046B0008F3F9F4750F4E00FF11FF0934202E093C9
:1046C000410281E492E0F301099586E0EBE3F2E038
:1046D000DE01119601900D928A95E1F770903D02EE
:1046E00060903E0210913F020091400210923D0204
:1046F00010923E0210923F0210924002872D8629AE
:1047000009F448C08091390290913A020E949005C4
:104710009C0190913502992309F4B3C323333105E9
:10472000C8F19F3F19F09F5F90933502772059F0B1
:104730000E9450079FEF17140CF491E0899F802D81
:10474000112480933D02662059F00E9450079FEF8C
:1047500016140CF491E0899F802D112480933E0261
:1047600030913D023323B1F020913E02222391F09B
:1047700045EB3403C0011124992309F488C19093B7
:104780003D0245EB240390011124332309F483C136
:1047900030933E02812F802B09F448C0809137026C
:1047A000909138020E9490059C01909134029923C7
:1047B00009F462C325363105C8F19F3F19F09F5FA8
:1047C00090933402112359F00E942E079FEF111687
:1047D0000CF491E0899F802D112480933F020023E7
:1047E00059F00E942E079FEF10160CF491E0899F5C
:1047F000802D11248093400230913F023323B1F089
:1048000020914002222391F045EB3403C001112492
:10481000992309F444C190933F0245EB240390018E
:104820001124332309F43FC13093400280913D02AB
:1048300090913E02892B90913F02892B90914002EA
:10484000892B11F00E948E0686E0FE013196ABE3C3
:10485000B2E001900D928A95E1F70E94D705909100
:104860001E02891721F00E94D70580931E028091B5
:10487000AA02843009F0A2CE83E08093E9008091FF
:10488000E80082FF9BCE8091E80090E085FF0CC09D
:104890000E94210450E2652E712C8E010F5F1F4F84
:1048A000882309F40EC191E08091E8008B77809312
:1048B000E800992309F482CEE981E150E33108F060
:1048C0008FC1F0E0E059F74D0C949E278091AA0229
:1048D000843009F43DC01092480280911D0281117C
:1048E00016C0F0921D0280917002982F91709093E3
:1048F0001C028E7F80937002FFEF20E742E0F150B0
:1049000020404040E1F700C000000E943E0C1092A1
:104910007B020FB6F894A895C09260000FBE9092EB
:10492000600083B7817F846083BF83B7816083BF6A
:104930007894889583B78E7F83BF0FB6F894A89537
:1049400080916000886180936000109260000FBECB
:104950008091A902882351F00E94A61FEAE2F2E0AA
:104960008191811173C2AE16BF06D1F78091AA0260
:10497000853009F4ABCF0E9417130E94D70510921F
:104980001D0280911C02882349F080917002816091
:104990008093700260E086950E94AA120E9489119D
:1049A00016CE9F5F770C973009F034CE0F5F1F4F04
:1049B0000A30110509F023CE8FEF8EA38FA318A61E
:1049C0000E949F058160782F9AA789A74EA15FA1B9
:1049D00068A58AA50E94161F3ACE863059F4F0E0E9
:1049E000E158FD4FE4910E2F10E095EC692E9EE00A
:1049F000792E46CE893061F4E695F0E0E458FD4F1B
:104A0000E4910E2F10E081E3682E8EE0782E38CEF0
:104A10008F3061F4E695F0E0E758FD4FE4910E2FFA
:104A200010E0B3EC6B2EBDE07B2E2ACE853159F41D
:104A3000F0E0EA58FD4FE4910E2F10E0A5E76A2E52
:104A4000ADE07A2E1DCE08E210E07CEE672E7CE011
:104A5000772E883109F414CE833249F4E4E7F2E08A
:104A600005911491FCE66F2EFEE07F2E09CE04EF37
:104A700011E0E3EB6E2EECE07E2E843209F400CEE2
:104A800000ED17E068EE662E65E0762EF9CD81E048
:104A900080933D0276CE81E080933E027BCE81E022
:104AA00080933F02BACE81E080934002BFCE8091D6
:104AB000F100D8018D938D01B1E06B1A710809F4F2
:104AC000F2CE8091E80085FDF2CF8091E8008B77EF
:104AD0008093E8000E942104882399F3E4CE1A828F
:104AE00089E08B8332C08A818230C1F0833009F43F
:104AF00053C0813009F074C02FB7F89460917C02E4
:104B000070917D0280917E0290917F022FBF0E9462
:104B1000A4276B837C838D839E8317C086E290E0FD
:104B20000E94E82790E0B0E0A0E04424582E692ECF
:104B30007A2E87E290E00E94E8271B821C82482A96
:104B40005424452454245E824D828091AA028430EC
:104B500009F034CD1091E9001F709091EC00892F7D
:104B6000817090FD80E8182B82E08093E9008091AD
:104B7000E80080FF0DC050E040E060E270E0CE0150
:104B800001960E9452048091E8008E778093E8009D
:104B90001F701093E90012CDFE013396D7018D915D
:104BA0007D018193B4E3EB16B2E0FB06B9F7CDCFFC
:104BB0008A818230A9F46B817C818D819E810E94E3
:104BC000A4272B013C0187E290E00E94FC27992753
:104BD000872D762D652D86E290E00E94FC27B5CFCB
:104BE0008FEF8983B2CF4C816B818A810E94CD1077
:104BF0009827892798279E838D83A7CFED80FE80F5
:104C0000FE24EF24FE248A810B81EEE00E9F8001BA
:104C10001124FCE88F9F000D111D11248C8190E060
:104C2000880F991F080F191F6F2DC80188960E94C1
:104C3000FC276E2DC8018996D0CF0E942F1085CFFA
:104C40008A818138C1F060F4803809F07ECF20E09D
:104C50004B8160917202809171020E94B11175CFF7
:104C6000823859F1833809F070CF20E04091730207
:104C70006C818B81F2CF60E08B810E94AA129B81B4
:104C800080917002911111C08E7F809370021092FA
:104C900048022FEF40E782E0215040408040E1F79A
:104CA00000C000000E943E0C50CF816080937002D3
:104CB00060E086950E94AA1248CF8B81809374028F
:104CC00044CF8A81813899F030F4803809F03DCFA3
:104CD0008091730206CF823891F0833809F035CF86
:104CE000809171028B83809172028C832ECF809190
:104CF000700280FF02C08695F4CE80E0F2CE8091F3
:104D00007402EFCE60917002709171028091720214
:104D1000909173020E949F1118CF80E18A8315CF72
:104D200081E08A8388EADDCE0A811B811027012772
:104D30001027DE0111963D01EC80FD01EE0DF11D05
:104D40007F01C801885A9D4F6E147F0409F4FDCE7F
:104D5000083AF1E01F0758F40E94E827D30114969F
:104D60008C930F5F1F4FFFEF6F1A7F0AEACFF3019B
:104D70001482F7CF0A811B81102701271027CE014B
:104D800001963C01EC80E00EF12EF11CC801885A1E
:104D90009D4FE016F10609F4D8CE083AA1E01A07B3
:104DA00020F4F30164810E94FC27FFEF6F1A7F0A51
:104DB0000F5F1F4FEBCF0E941F10C7CE84E0AECF16
:104DC0000A811B81102701271027CE0101963C0183
:104DD000EC80DC01AE0DB11D7D01C8018896E614A2
:104DE000F70409F4B2CE0033B2E01B0750F40E947E
:104DF000E827F30184830F5F1F4FBFEF6B1A7B0A15
:104E0000ECCFD30114961C92F6CF0A811B81102798
:104E100001271027FE0131963F01EC80E00EF12EB4
:104E2000F11CC8018896E016F10609F48ECE003315
:104E3000F2E01F0728F4D30114966C910E94FC271E
:104E4000BFEF6B1A7B0A0F5F1F4FEBCF09BD19BD78
:104E500009B400FEFDCF8091D8008F7D8093D800EB
:104E60008091E00082608093E0008091E00081FD0D
:104E7000FCCF0E9417137ACD2D32314008F09FCC21
:104E8000D5CC2D32314008F04ECC84CC87FB082E97
:104E9000062687FD819567FD61950E94DC270EF44B
:104EA000919507FC81950895AA1BBB1B51E107C092
:104EB000AA1FBB1FA617B70710F0A61BB70B881FAA
:104EC000991F5A95A9F780959095BC01CD01089539
:104ED00097FB072E16F4009407D077FD09D00E94A7
:104EE000542707FC05D03EF4909581959F4F089577
:104EF000709561957F4F0895A1E21A2EAA1BBB1BE6
:104F0000FD010DC0AA1FBB1FEE1FFF1FA217B30795
:104F1000E407F50720F0A21BB30BE40BF50B661FAB
:104F2000771F881F991F1A9469F76095709580956F
:104F300090959B01AC01BD01CF010895EE0FFF1FBD
:104F40000590F491E02D0994692796276927782721
:104F50008727782708950E94B327332312F48A1BEA
:104F60009B0B0C94C427A29FB001B39FC001A39FC9
:104F7000700D811D1124911DB29F700D811D112492
:104F8000911D08950E94B327B7FF0895821B930BCC
:104F900008950E94B327A59F900DB49F900DA49FE4
:104FA000800D911D11240895B7FF0C94C9270E940C
:104FB000C927821B930B0895991B79E004C0991FA0
:104FC000961708F0961B881F7A95C9F78095089563
:104FD000F999FECF92BD81BDF89A992780B50895C1
:104FE000A6E1B0E044E050E00C942228A8E1B0E053
:104FF00042E050E00C942228262FF999FECF92BD72
:1050000081BDF89A019700B4021639F01FBA20BD8D
:105010000FB6F894FA9AF99A0FBE08950396272FBF
:105020000E94FD270E94FC27252F0E94FD27242F88
:105030000C94FD270196272F0E94FD270C94FC2736
:10504000DC01CB01FC01F999FECF06C0F2BDE1BD48
:10505000F89A319600B40D9241505040B8F7089537
:10506000FC014150504030F001900616D1F73197C5
:10507000CF010895882799270895FB01DC0104C01A
:105080008D910190801921F441505040C8F7881B40
:10509000990B0895F894FFCF4D114D1156115611EB
:1050A00058115611561156114D114D115D115611D1
:1050B00056115D1112143A14DD153A14DD156D14F4
:1050C0008E14DD158C159915F319F3192E1A2E1A55
:1050D000DC1AF61A5E1A5E1A011B6E1B7F1B7F1B01
:1050E0006F257325D825F325FE251D26202661264C
:1050F0008226F025F0258D2690269426BA26DB26DA
:06510000DE26E026052773
:105106008D05DA0BB90BB50BB10B8C0501191A1B02
:105116001C1D1E1F20212201020101818283E20043
:10512600E900EA00B500B600B700CD008301CC0067
:105136008A019201940121022302240225022602F9
:1051460027022A02B300B4006F007000909192C645
:105156003031326667F7F6F5F4F1F03337000102C5
:105166000202020606060909090909090F0F0F0FAF
:105176000F0F1515151819191919191919191919BA
:1051860023244022B684016201AC00D906F206123D
:02519600070010
:00000001FF
